{
	"loyaltyprg.sol": {
		"LoyaltyProgram": {
			"abi": [
				{
					"inputs": [],
					"stateMutability": "nonpayable",
					"type": "constructor"
				},
				{
					"inputs": [
						{
							"internalType": "string",
							"name": "_rewardName",
							"type": "string"
						},
						{
							"internalType": "uint256",
							"name": "_loyaltypointsRequired",
							"type": "uint256"
						}
					],
					"name": "addOrUpdateReward",
					"outputs": [],
					"stateMutability": "nonpayable",
					"type": "function"
				},
				{
					"inputs": [
						{
							"internalType": "address",
							"name": "customer",
							"type": "address"
						},
						{
							"internalType": "int256",
							"name": "_purchaseamt",
							"type": "int256"
						}
					],
					"name": "awardLoyaltyPoints",
					"outputs": [],
					"stateMutability": "nonpayable",
					"type": "function"
				},
				{
					"inputs": [],
					"name": "checkBalancePoints",
					"outputs": [
						{
							"internalType": "uint256",
							"name": "",
							"type": "uint256"
						}
					],
					"stateMutability": "view",
					"type": "function"
				},
				{
					"inputs": [
						{
							"internalType": "string",
							"name": "_accountName",
							"type": "string"
						}
					],
					"name": "createCustomerAccount",
					"outputs": [],
					"stateMutability": "nonpayable",
					"type": "function"
				},
				{
					"inputs": [
						{
							"internalType": "address",
							"name": "",
							"type": "address"
						}
					],
					"name": "customerAccounts",
					"outputs": [
						{
							"internalType": "string",
							"name": "accountName",
							"type": "string"
						},
						{
							"internalType": "uint256",
							"name": "balancepoints",
							"type": "uint256"
						}
					],
					"stateMutability": "view",
					"type": "function"
				},
				{
					"inputs": [],
					"name": "loyaltypoints",
					"outputs": [
						{
							"internalType": "uint256",
							"name": "",
							"type": "uint256"
						}
					],
					"stateMutability": "view",
					"type": "function"
				},
				{
					"inputs": [],
					"name": "merchant",
					"outputs": [
						{
							"internalType": "string",
							"name": "accountName",
							"type": "string"
						},
						{
							"internalType": "uint256",
							"name": "balancepoints",
							"type": "uint256"
						}
					],
					"stateMutability": "view",
					"type": "function"
				},
				{
					"inputs": [],
					"name": "owner",
					"outputs": [
						{
							"internalType": "address",
							"name": "",
							"type": "address"
						}
					],
					"stateMutability": "view",
					"type": "function"
				},
				{
					"inputs": [],
					"name": "purchaseamt",
					"outputs": [
						{
							"internalType": "uint256",
							"name": "",
							"type": "uint256"
						}
					],
					"stateMutability": "view",
					"type": "function"
				},
				{
					"inputs": [
						{
							"internalType": "uint256",
							"name": "rewardIndex",
							"type": "uint256"
						}
					],
					"name": "redeemReward",
					"outputs": [],
					"stateMutability": "nonpayable",
					"type": "function"
				},
				{
					"inputs": [
						{
							"internalType": "uint256",
							"name": "",
							"type": "uint256"
						}
					],
					"name": "rewards",
					"outputs": [
						{
							"internalType": "string",
							"name": "rewardName",
							"type": "string"
						},
						{
							"internalType": "uint256",
							"name": "loyaltypointsRequired",
							"type": "uint256"
						}
					],
					"stateMutability": "view",
					"type": "function"
				}
			],
			"devdoc": {
				"kind": "dev",
				"methods": {},
				"version": 1
			},
			"evm": {
				"assembly": "    /* \"loyaltyprg.sol\":61:3753  contract LoyaltyProgram {... */\n  mstore(0x40, 0x80)\n    /* \"loyaltyprg.sol\":727:1224  constructor() {... */\n  callvalue\n  dup1\n  iszero\n  tag_1\n  jumpi\n  0x00\n  dup1\n  revert\ntag_1:\n  pop\n    /* \"loyaltyprg.sol\":760:770  msg.sender */\n  caller\n    /* \"loyaltyprg.sol\":752:757  owner */\n  0x00\n  dup1\n    /* \"loyaltyprg.sol\":752:770  owner = msg.sender */\n  0x0100\n  exp\n  dup2\n  sload\n  dup2\n  0xffffffffffffffffffffffffffffffffffffffff\n  mul\n  not\n  and\n  swap1\n  dup4\n  0xffffffffffffffffffffffffffffffffffffffff\n  and\n  mul\n  or\n  swap1\n  sstore\n  pop\n    /* \"loyaltyprg.sol\":795:797  10 */\n  0x0a\n    /* \"loyaltyprg.sol\":781:792  purchaseamt */\n  0x01\n    /* \"loyaltyprg.sol\":781:797  purchaseamt = 10 */\n  dup2\n  swap1\n  sstore\n  pop\n    /* \"loyaltyprg.sol\":870:871  1 */\n  0x01\n    /* \"loyaltyprg.sol\":854:867  loyaltypoints */\n  0x02\n    /* \"loyaltyprg.sol\":854:871  loyaltypoints = 1 */\n  dup2\n  swap1\n  sstore\n  pop\n    /* \"loyaltyprg.sol\":927:934  rewards */\n  0x03\n    /* \"loyaltyprg.sol\":940:962  Reward(\"Reward 1\", 10) */\n  mload(0x40)\n  dup1\n  0x40\n  add\n  0x40\n  mstore\n  dup1\n  mload(0x40)\n  dup1\n  0x40\n  add\n  0x40\n  mstore\n  dup1\n  0x08\n  dup2\n  mstore\n  0x20\n  add\n  0x5265776172642031000000000000000000000000000000000000000000000000\n  dup2\n  mstore\n  pop\n  dup2\n  mstore\n  0x20\n  add\n    /* \"loyaltyprg.sol\":959:961  10 */\n  0x0a\n    /* \"loyaltyprg.sol\":940:962  Reward(\"Reward 1\", 10) */\n  dup2\n  mstore\n  pop\n    /* \"loyaltyprg.sol\":927:963  rewards.push(Reward(\"Reward 1\", 10)) */\n  swap1\n  dup1\n  0x01\n  dup2\n  sload\n  add\n  dup1\n  dup3\n  sstore\n  dup1\n  swap2\n  pop\n  pop\n  0x01\n  swap1\n  sub\n  swap1\n  0x00\n  mstore\n  keccak256(0x00, 0x20)\n  swap1\n  0x02\n  mul\n  add\n  0x00\n  swap1\n  swap2\n  swap1\n  swap2\n  swap1\n  swap2\n  pop\n  0x00\n  dup3\n  add\n  mload\n  dup2\n  0x00\n  add\n  swap1\n  dup2\n  tag_5\n  swap2\n  swap1\n  tag_6\n  jump\t// in\ntag_5:\n  pop\n  0x20\n  dup3\n  add\n  mload\n  dup2\n  0x01\n  add\n  sstore\n  pop\n  pop\n    /* \"loyaltyprg.sol\":1012:1019  rewards */\n  0x03\n    /* \"loyaltyprg.sol\":1025:1047  Reward(\"Reward 2\", 20) */\n  mload(0x40)\n  dup1\n  0x40\n  add\n  0x40\n  mstore\n  dup1\n  mload(0x40)\n  dup1\n  0x40\n  add\n  0x40\n  mstore\n  dup1\n  0x08\n  dup2\n  mstore\n  0x20\n  add\n  0x5265776172642032000000000000000000000000000000000000000000000000\n  dup2\n  mstore\n  pop\n  dup2\n  mstore\n  0x20\n  add\n    /* \"loyaltyprg.sol\":1044:1046  20 */\n  0x14\n    /* \"loyaltyprg.sol\":1025:1047  Reward(\"Reward 2\", 20) */\n  dup2\n  mstore\n  pop\n    /* \"loyaltyprg.sol\":1012:1048  rewards.push(Reward(\"Reward 2\", 20)) */\n  swap1\n  dup1\n  0x01\n  dup2\n  sload\n  add\n  dup1\n  dup3\n  sstore\n  dup1\n  swap2\n  pop\n  pop\n  0x01\n  swap1\n  sub\n  swap1\n  0x00\n  mstore\n  keccak256(0x00, 0x20)\n  swap1\n  0x02\n  mul\n  add\n  0x00\n  swap1\n  swap2\n  swap1\n  swap2\n  swap1\n  swap2\n  pop\n  0x00\n  dup3\n  add\n  mload\n  dup2\n  0x00\n  add\n  swap1\n  dup2\n  tag_8\n  swap2\n  swap1\n  tag_6\n  jump\t// in\ntag_8:\n  pop\n  0x20\n  dup3\n  add\n  mload\n  dup2\n  0x01\n  add\n  sstore\n  pop\n  pop\n    /* \"loyaltyprg.sol\":1070:1100  CustomerAccount(\"Merchant\", 0) */\n  mload(0x40)\n  dup1\n  0x40\n  add\n  0x40\n  mstore\n  dup1\n  mload(0x40)\n  dup1\n  0x40\n  add\n  0x40\n  mstore\n  dup1\n  0x08\n  dup2\n  mstore\n  0x20\n  add\n  0x4d65726368616e74000000000000000000000000000000000000000000000000\n  dup2\n  mstore\n  pop\n  dup2\n  mstore\n  0x20\n  add\n    /* \"loyaltyprg.sol\":1098:1099  0 */\n  0x00\n    /* \"loyaltyprg.sol\":1070:1100  CustomerAccount(\"Merchant\", 0) */\n  dup2\n  mstore\n  pop\n    /* \"loyaltyprg.sol\":1059:1067  merchant */\n  0x04\n    /* \"loyaltyprg.sol\":1059:1100  merchant = CustomerAccount(\"Merchant\", 0) */\n  0x00\n  dup3\n  add\n  mload\n  dup2\n  0x00\n  add\n  swap1\n  dup2\n  tag_9\n  swap2\n  swap1\n  tag_6\n  jump\t// in\ntag_9:\n  pop\n  0x20\n  dup3\n  add\n  mload\n  dup2\n  0x01\n  add\n  sstore\n  swap1\n  pop\n  pop\n    /* \"loyaltyprg.sol\":1208:1216  merchant */\n  0x04\n    /* \"loyaltyprg.sol\":1174:1190  customerAccounts */\n  0x06\n    /* \"loyaltyprg.sol\":1174:1205  customerAccounts[address(this)] */\n  0x00\n    /* \"loyaltyprg.sol\":1199:1203  this */\n  address\n    /* \"loyaltyprg.sol\":1174:1205  customerAccounts[address(this)] */\n  0xffffffffffffffffffffffffffffffffffffffff\n  and\n  0xffffffffffffffffffffffffffffffffffffffff\n  and\n  dup2\n  mstore\n  0x20\n  add\n  swap1\n  dup2\n  mstore\n  0x20\n  add\n  0x00\n  keccak256\n    /* \"loyaltyprg.sol\":1174:1216  customerAccounts[address(this)] = merchant */\n  0x00\n  dup3\n  add\n  dup2\n  0x00\n  add\n  swap1\n  dup2\n  tag_10\n  swap2\n  swap1\n  tag_11\n  jump\t// in\ntag_10:\n  pop\n  0x01\n  dup3\n  add\n  sload\n  dup2\n  0x01\n  add\n  sstore\n  swap1\n  pop\n  pop\n    /* \"loyaltyprg.sol\":61:3753  contract LoyaltyProgram {... */\n  jump(tag_12)\n    /* \"#utility.yul\":7:106   */\ntag_13:\n    /* \"#utility.yul\":59:65   */\n  0x00\n    /* \"#utility.yul\":93:98   */\n  dup2\n    /* \"#utility.yul\":87:99   */\n  mload\n    /* \"#utility.yul\":77:99   */\n  swap1\n  pop\n    /* \"#utility.yul\":7:106   */\n  swap2\n  swap1\n  pop\n  jump\t// out\n    /* \"#utility.yul\":112:292   */\ntag_14:\n    /* \"#utility.yul\":160:237   */\n  0x4e487b7100000000000000000000000000000000000000000000000000000000\n    /* \"#utility.yul\":157:158   */\n  0x00\n    /* \"#utility.yul\":150:238   */\n  mstore\n    /* \"#utility.yul\":257:261   */\n  0x41\n    /* \"#utility.yul\":254:255   */\n  0x04\n    /* \"#utility.yul\":247:262   */\n  mstore\n    /* \"#utility.yul\":281:285   */\n  0x24\n    /* \"#utility.yul\":278:279   */\n  0x00\n    /* \"#utility.yul\":271:286   */\n  revert\n    /* \"#utility.yul\":298:478   */\ntag_15:\n    /* \"#utility.yul\":346:423   */\n  0x4e487b7100000000000000000000000000000000000000000000000000000000\n    /* \"#utility.yul\":343:344   */\n  0x00\n    /* \"#utility.yul\":336:424   */\n  mstore\n    /* \"#utility.yul\":443:447   */\n  0x22\n    /* \"#utility.yul\":440:441   */\n  0x04\n    /* \"#utility.yul\":433:448   */\n  mstore\n    /* \"#utility.yul\":467:471   */\n  0x24\n    /* \"#utility.yul\":464:465   */\n  0x00\n    /* \"#utility.yul\":457:472   */\n  revert\n    /* \"#utility.yul\":484:804   */\ntag_16:\n    /* \"#utility.yul\":528:534   */\n  0x00\n    /* \"#utility.yul\":565:566   */\n  0x02\n    /* \"#utility.yul\":559:563   */\n  dup3\n    /* \"#utility.yul\":555:567   */\n  div\n    /* \"#utility.yul\":545:567   */\n  swap1\n  pop\n    /* \"#utility.yul\":612:613   */\n  0x01\n    /* \"#utility.yul\":606:610   */\n  dup3\n    /* \"#utility.yul\":602:614   */\n  and\n    /* \"#utility.yul\":633:651   */\n  dup1\n    /* \"#utility.yul\":623:704   */\n  tag_39\n  jumpi\n    /* \"#utility.yul\":689:693   */\n  0x7f\n    /* \"#utility.yul\":681:687   */\n  dup3\n    /* \"#utility.yul\":677:694   */\n  and\n    /* \"#utility.yul\":667:694   */\n  swap2\n  pop\n    /* \"#utility.yul\":623:704   */\ntag_39:\n    /* \"#utility.yul\":751:753   */\n  0x20\n    /* \"#utility.yul\":743:749   */\n  dup3\n    /* \"#utility.yul\":740:754   */\n  lt\n    /* \"#utility.yul\":720:738   */\n  dup2\n    /* \"#utility.yul\":717:755   */\n  sub\n    /* \"#utility.yul\":714:798   */\n  tag_40\n  jumpi\n    /* \"#utility.yul\":770:788   */\n  tag_41\n  tag_15\n  jump\t// in\ntag_41:\n    /* \"#utility.yul\":714:798   */\ntag_40:\n    /* \"#utility.yul\":535:804   */\n  pop\n    /* \"#utility.yul\":484:804   */\n  swap2\n  swap1\n  pop\n  jump\t// out\n    /* \"#utility.yul\":810:951   */\ntag_17:\n    /* \"#utility.yul\":859:863   */\n  0x00\n    /* \"#utility.yul\":882:885   */\n  dup2\n    /* \"#utility.yul\":874:885   */\n  swap1\n  pop\n    /* \"#utility.yul\":905:908   */\n  dup2\n    /* \"#utility.yul\":902:903   */\n  0x00\n    /* \"#utility.yul\":895:909   */\n  mstore\n    /* \"#utility.yul\":939:943   */\n  0x20\n    /* \"#utility.yul\":936:937   */\n  0x00\n    /* \"#utility.yul\":926:944   */\n  keccak256\n    /* \"#utility.yul\":918:944   */\n  swap1\n  pop\n    /* \"#utility.yul\":810:951   */\n  swap2\n  swap1\n  pop\n  jump\t// out\n    /* \"#utility.yul\":957:1050   */\ntag_18:\n    /* \"#utility.yul\":994:1000   */\n  0x00\n    /* \"#utility.yul\":1041:1043   */\n  0x20\n    /* \"#utility.yul\":1036:1038   */\n  0x1f\n    /* \"#utility.yul\":1029:1034   */\n  dup4\n    /* \"#utility.yul\":1025:1039   */\n  add\n    /* \"#utility.yul\":1021:1044   */\n  div\n    /* \"#utility.yul\":1011:1044   */\n  swap1\n  pop\n    /* \"#utility.yul\":957:1050   */\n  swap2\n  swap1\n  pop\n  jump\t// out\n    /* \"#utility.yul\":1056:1163   */\ntag_19:\n    /* \"#utility.yul\":1100:1108   */\n  0x00\n    /* \"#utility.yul\":1150:1155   */\n  dup3\n    /* \"#utility.yul\":1144:1148   */\n  dup3\n    /* \"#utility.yul\":1140:1156   */\n  shl\n    /* \"#utility.yul\":1119:1156   */\n  swap1\n  pop\n    /* \"#utility.yul\":1056:1163   */\n  swap3\n  swap2\n  pop\n  pop\n  jump\t// out\n    /* \"#utility.yul\":1169:1562   */\ntag_20:\n    /* \"#utility.yul\":1238:1244   */\n  0x00\n    /* \"#utility.yul\":1288:1289   */\n  0x08\n    /* \"#utility.yul\":1276:1286   */\n  dup4\n    /* \"#utility.yul\":1272:1290   */\n  mul\n    /* \"#utility.yul\":1311:1408   */\n  tag_46\n    /* \"#utility.yul\":1341:1407   */\n  0xffffffffffffffffffffffffffffffffffffffffffffffffffffffffffffffff\n    /* \"#utility.yul\":1330:1339   */\n  dup3\n    /* \"#utility.yul\":1311:1408   */\n  tag_19\n  jump\t// in\ntag_46:\n    /* \"#utility.yul\":1429:1468   */\n  tag_47\n    /* \"#utility.yul\":1459:1467   */\n  dup7\n    /* \"#utility.yul\":1448:1457   */\n  dup4\n    /* \"#utility.yul\":1429:1468   */\n  tag_19\n  jump\t// in\ntag_47:\n    /* \"#utility.yul\":1417:1468   */\n  swap6\n  pop\n    /* \"#utility.yul\":1501:1505   */\n  dup1\n    /* \"#utility.yul\":1497:1506   */\n  not\n    /* \"#utility.yul\":1490:1495   */\n  dup5\n    /* \"#utility.yul\":1486:1507   */\n  and\n    /* \"#utility.yul\":1477:1507   */\n  swap4\n  pop\n    /* \"#utility.yul\":1550:1554   */\n  dup1\n    /* \"#utility.yul\":1540:1548   */\n  dup7\n    /* \"#utility.yul\":1536:1555   */\n  and\n    /* \"#utility.yul\":1529:1534   */\n  dup5\n    /* \"#utility.yul\":1526:1556   */\n  or\n    /* \"#utility.yul\":1516:1556   */\n  swap3\n  pop\n    /* \"#utility.yul\":1245:1562   */\n  pop\n  pop\n    /* \"#utility.yul\":1169:1562   */\n  swap4\n  swap3\n  pop\n  pop\n  pop\n  jump\t// out\n    /* \"#utility.yul\":1568:1645   */\ntag_21:\n    /* \"#utility.yul\":1605:1612   */\n  0x00\n    /* \"#utility.yul\":1634:1639   */\n  dup2\n    /* \"#utility.yul\":1623:1639   */\n  swap1\n  pop\n    /* \"#utility.yul\":1568:1645   */\n  swap2\n  swap1\n  pop\n  jump\t// out\n    /* \"#utility.yul\":1651:1711   */\ntag_22:\n    /* \"#utility.yul\":1679:1682   */\n  0x00\n    /* \"#utility.yul\":1700:1705   */\n  dup2\n    /* \"#utility.yul\":1693:1705   */\n  swap1\n  pop\n    /* \"#utility.yul\":1651:1711   */\n  swap2\n  swap1\n  pop\n  jump\t// out\n    /* \"#utility.yul\":1717:1859   */\ntag_23:\n    /* \"#utility.yul\":1767:1776   */\n  0x00\n    /* \"#utility.yul\":1800:1853   */\n  tag_51\n    /* \"#utility.yul\":1818:1852   */\n  tag_52\n    /* \"#utility.yul\":1827:1851   */\n  tag_53\n    /* \"#utility.yul\":1845:1850   */\n  dup5\n    /* \"#utility.yul\":1827:1851   */\n  tag_21\n  jump\t// in\ntag_53:\n    /* \"#utility.yul\":1818:1852   */\n  tag_22\n  jump\t// in\ntag_52:\n    /* \"#utility.yul\":1800:1853   */\n  tag_21\n  jump\t// in\ntag_51:\n    /* \"#utility.yul\":1787:1853   */\n  swap1\n  pop\n    /* \"#utility.yul\":1717:1859   */\n  swap2\n  swap1\n  pop\n  jump\t// out\n    /* \"#utility.yul\":1865:1940   */\ntag_24:\n    /* \"#utility.yul\":1908:1911   */\n  0x00\n    /* \"#utility.yul\":1929:1934   */\n  dup2\n    /* \"#utility.yul\":1922:1934   */\n  swap1\n  pop\n    /* \"#utility.yul\":1865:1940   */\n  swap2\n  swap1\n  pop\n  jump\t// out\n    /* \"#utility.yul\":1946:2215   */\ntag_25:\n    /* \"#utility.yul\":2056:2095   */\n  tag_56\n    /* \"#utility.yul\":2087:2094   */\n  dup4\n    /* \"#utility.yul\":2056:2095   */\n  tag_23\n  jump\t// in\ntag_56:\n    /* \"#utility.yul\":2117:2208   */\n  tag_57\n    /* \"#utility.yul\":2166:2207   */\n  tag_58\n    /* \"#utility.yul\":2190:2206   */\n  dup3\n    /* \"#utility.yul\":2166:2207   */\n  tag_24\n  jump\t// in\ntag_58:\n    /* \"#utility.yul\":2158:2164   */\n  dup5\n    /* \"#utility.yul\":2151:2155   */\n  dup5\n    /* \"#utility.yul\":2145:2156   */\n  sload\n    /* \"#utility.yul\":2117:2208   */\n  tag_20\n  jump\t// in\ntag_57:\n    /* \"#utility.yul\":2111:2115   */\n  dup3\n    /* \"#utility.yul\":2104:2209   */\n  sstore\n    /* \"#utility.yul\":2022:2215   */\n  pop\n    /* \"#utility.yul\":1946:2215   */\n  pop\n  pop\n  pop\n  jump\t// out\n    /* \"#utility.yul\":2221:2294   */\ntag_26:\n    /* \"#utility.yul\":2266:2269   */\n  0x00\n    /* \"#utility.yul\":2221:2294   */\n  swap1\n  jump\t// out\n    /* \"#utility.yul\":2300:2489   */\ntag_27:\n    /* \"#utility.yul\":2377:2409   */\n  tag_61\n  tag_26\n  jump\t// in\ntag_61:\n    /* \"#utility.yul\":2418:2483   */\n  tag_62\n    /* \"#utility.yul\":2476:2482   */\n  dup2\n    /* \"#utility.yul\":2468:2474   */\n  dup5\n    /* \"#utility.yul\":2462:2466   */\n  dup5\n    /* \"#utility.yul\":2418:2483   */\n  tag_25\n  jump\t// in\ntag_62:\n    /* \"#utility.yul\":2353:2489   */\n  pop\n    /* \"#utility.yul\":2300:2489   */\n  pop\n  pop\n  jump\t// out\n    /* \"#utility.yul\":2495:2681   */\ntag_28:\n    /* \"#utility.yul\":2555:2675   */\ntag_64:\n    /* \"#utility.yul\":2572:2575   */\n  dup2\n    /* \"#utility.yul\":2565:2570   */\n  dup2\n    /* \"#utility.yul\":2562:2576   */\n  lt\n    /* \"#utility.yul\":2555:2675   */\n  iszero\n  tag_66\n  jumpi\n    /* \"#utility.yul\":2626:2665   */\n  tag_67\n    /* \"#utility.yul\":2663:2664   */\n  0x00\n    /* \"#utility.yul\":2656:2661   */\n  dup3\n    /* \"#utility.yul\":2626:2665   */\n  tag_27\n  jump\t// in\ntag_67:\n    /* \"#utility.yul\":2599:2600   */\n  0x01\n    /* \"#utility.yul\":2592:2597   */\n  dup2\n    /* \"#utility.yul\":2588:2601   */\n  add\n    /* \"#utility.yul\":2579:2601   */\n  swap1\n  pop\n    /* \"#utility.yul\":2555:2675   */\n  jump(tag_64)\ntag_66:\n    /* \"#utility.yul\":2495:2681   */\n  pop\n  pop\n  jump\t// out\n    /* \"#utility.yul\":2687:3230   */\ntag_29:\n    /* \"#utility.yul\":2788:2790   */\n  0x1f\n    /* \"#utility.yul\":2783:2786   */\n  dup3\n    /* \"#utility.yul\":2780:2791   */\n  gt\n    /* \"#utility.yul\":2777:3223   */\n  iszero\n  tag_69\n  jumpi\n    /* \"#utility.yul\":2822:2860   */\n  tag_70\n    /* \"#utility.yul\":2854:2859   */\n  dup2\n    /* \"#utility.yul\":2822:2860   */\n  tag_17\n  jump\t// in\ntag_70:\n    /* \"#utility.yul\":2906:2935   */\n  tag_71\n    /* \"#utility.yul\":2924:2934   */\n  dup5\n    /* \"#utility.yul\":2906:2935   */\n  tag_18\n  jump\t// in\ntag_71:\n    /* \"#utility.yul\":2896:2904   */\n  dup2\n    /* \"#utility.yul\":2892:2936   */\n  add\n    /* \"#utility.yul\":3089:3091   */\n  0x20\n    /* \"#utility.yul\":3077:3087   */\n  dup6\n    /* \"#utility.yul\":3074:3092   */\n  lt\n    /* \"#utility.yul\":3071:3120   */\n  iszero\n  tag_72\n  jumpi\n    /* \"#utility.yul\":3110:3118   */\n  dup2\n    /* \"#utility.yul\":3095:3118   */\n  swap1\n  pop\n    /* \"#utility.yul\":3071:3120   */\ntag_72:\n    /* \"#utility.yul\":3133:3213   */\n  tag_73\n    /* \"#utility.yul\":3189:3211   */\n  tag_74\n    /* \"#utility.yul\":3207:3210   */\n  dup6\n    /* \"#utility.yul\":3189:3211   */\n  tag_18\n  jump\t// in\ntag_74:\n    /* \"#utility.yul\":3179:3187   */\n  dup4\n    /* \"#utility.yul\":3175:3212   */\n  add\n    /* \"#utility.yul\":3162:3173   */\n  dup3\n    /* \"#utility.yul\":3133:3213   */\n  tag_28\n  jump\t// in\ntag_73:\n    /* \"#utility.yul\":2792:3223   */\n  pop\n  pop\n    /* \"#utility.yul\":2777:3223   */\ntag_69:\n    /* \"#utility.yul\":2687:3230   */\n  pop\n  pop\n  pop\n  jump\t// out\n    /* \"#utility.yul\":3236:3353   */\ntag_30:\n    /* \"#utility.yul\":3290:3298   */\n  0x00\n    /* \"#utility.yul\":3340:3345   */\n  dup3\n    /* \"#utility.yul\":3334:3338   */\n  dup3\n    /* \"#utility.yul\":3330:3346   */\n  shr\n    /* \"#utility.yul\":3309:3346   */\n  swap1\n  pop\n    /* \"#utility.yul\":3236:3353   */\n  swap3\n  swap2\n  pop\n  pop\n  jump\t// out\n    /* \"#utility.yul\":3359:3528   */\ntag_31:\n    /* \"#utility.yul\":3403:3409   */\n  0x00\n    /* \"#utility.yul\":3436:3487   */\n  tag_77\n    /* \"#utility.yul\":3484:3485   */\n  0x00\n    /* \"#utility.yul\":3480:3486   */\n  not\n    /* \"#utility.yul\":3472:3477   */\n  dup5\n    /* \"#utility.yul\":3469:3470   */\n  0x08\n    /* \"#utility.yul\":3465:3478   */\n  mul\n    /* \"#utility.yul\":3436:3487   */\n  tag_30\n  jump\t// in\ntag_77:\n    /* \"#utility.yul\":3432:3488   */\n  not\n    /* \"#utility.yul\":3517:3521   */\n  dup1\n    /* \"#utility.yul\":3511:3515   */\n  dup4\n    /* \"#utility.yul\":3507:3522   */\n  and\n    /* \"#utility.yul\":3497:3522   */\n  swap2\n  pop\n    /* \"#utility.yul\":3410:3528   */\n  pop\n    /* \"#utility.yul\":3359:3528   */\n  swap3\n  swap2\n  pop\n  pop\n  jump\t// out\n    /* \"#utility.yul\":3533:3828   */\ntag_32:\n    /* \"#utility.yul\":3609:3613   */\n  0x00\n    /* \"#utility.yul\":3755:3784   */\n  tag_79\n    /* \"#utility.yul\":3780:3783   */\n  dup4\n    /* \"#utility.yul\":3774:3778   */\n  dup4\n    /* \"#utility.yul\":3755:3784   */\n  tag_31\n  jump\t// in\ntag_79:\n    /* \"#utility.yul\":3747:3784   */\n  swap2\n  pop\n    /* \"#utility.yul\":3817:3820   */\n  dup3\n    /* \"#utility.yul\":3814:3815   */\n  0x02\n    /* \"#utility.yul\":3810:3821   */\n  mul\n    /* \"#utility.yul\":3804:3808   */\n  dup3\n    /* \"#utility.yul\":3801:3822   */\n  or\n    /* \"#utility.yul\":3793:3822   */\n  swap1\n  pop\n    /* \"#utility.yul\":3533:3828   */\n  swap3\n  swap2\n  pop\n  pop\n  jump\t// out\n    /* \"#utility.yul\":3833:5228   */\ntag_6:\n    /* \"#utility.yul\":3950:3987   */\n  tag_81\n    /* \"#utility.yul\":3983:3986   */\n  dup3\n    /* \"#utility.yul\":3950:3987   */\n  tag_13\n  jump\t// in\ntag_81:\n    /* \"#utility.yul\":4052:4070   */\n  0xffffffffffffffff\n    /* \"#utility.yul\":4044:4050   */\n  dup2\n    /* \"#utility.yul\":4041:4071   */\n  gt\n    /* \"#utility.yul\":4038:4094   */\n  iszero\n  tag_82\n  jumpi\n    /* \"#utility.yul\":4074:4092   */\n  tag_83\n  tag_14\n  jump\t// in\ntag_83:\n    /* \"#utility.yul\":4038:4094   */\ntag_82:\n    /* \"#utility.yul\":4118:4156   */\n  tag_84\n    /* \"#utility.yul\":4150:4154   */\n  dup3\n    /* \"#utility.yul\":4144:4155   */\n  sload\n    /* \"#utility.yul\":4118:4156   */\n  tag_16\n  jump\t// in\ntag_84:\n    /* \"#utility.yul\":4203:4270   */\n  tag_85\n    /* \"#utility.yul\":4263:4269   */\n  dup3\n    /* \"#utility.yul\":4255:4261   */\n  dup3\n    /* \"#utility.yul\":4249:4253   */\n  dup6\n    /* \"#utility.yul\":4203:4270   */\n  tag_29\n  jump\t// in\ntag_85:\n    /* \"#utility.yul\":4297:4298   */\n  0x00\n    /* \"#utility.yul\":4321:4325   */\n  0x20\n    /* \"#utility.yul\":4308:4325   */\n  swap1\n  pop\n    /* \"#utility.yul\":4353:4355   */\n  0x1f\n    /* \"#utility.yul\":4345:4351   */\n  dup4\n    /* \"#utility.yul\":4342:4356   */\n  gt\n    /* \"#utility.yul\":4370:4371   */\n  0x01\n    /* \"#utility.yul\":4365:4983   */\n  dup2\n  eq\n  tag_87\n  jumpi\n    /* \"#utility.yul\":5027:5028   */\n  0x00\n    /* \"#utility.yul\":5044:5050   */\n  dup5\n    /* \"#utility.yul\":5041:5118   */\n  iszero\n  tag_88\n  jumpi\n    /* \"#utility.yul\":5093:5102   */\n  dup3\n    /* \"#utility.yul\":5088:5091   */\n  dup8\n    /* \"#utility.yul\":5084:5103   */\n  add\n    /* \"#utility.yul\":5078:5104   */\n  mload\n    /* \"#utility.yul\":5069:5104   */\n  swap1\n  pop\n    /* \"#utility.yul\":5041:5118   */\ntag_88:\n    /* \"#utility.yul\":5144:5211   */\n  tag_89\n    /* \"#utility.yul\":5204:5210   */\n  dup6\n    /* \"#utility.yul\":5197:5202   */\n  dup3\n    /* \"#utility.yul\":5144:5211   */\n  tag_32\n  jump\t// in\ntag_89:\n    /* \"#utility.yul\":5138:5142   */\n  dup7\n    /* \"#utility.yul\":5131:5212   */\n  sstore\n    /* \"#utility.yul\":5000:5222   */\n  pop\n    /* \"#utility.yul\":4335:5222   */\n  jump(tag_86)\n    /* \"#utility.yul\":4365:4983   */\ntag_87:\n    /* \"#utility.yul\":4417:4421   */\n  0x1f\n    /* \"#utility.yul\":4413:4422   */\n  not\n    /* \"#utility.yul\":4405:4411   */\n  dup5\n    /* \"#utility.yul\":4401:4423   */\n  and\n    /* \"#utility.yul\":4451:4488   */\n  tag_90\n    /* \"#utility.yul\":4483:4487   */\n  dup7\n    /* \"#utility.yul\":4451:4488   */\n  tag_17\n  jump\t// in\ntag_90:\n    /* \"#utility.yul\":4510:4511   */\n  0x00\n    /* \"#utility.yul\":4524:4732   */\ntag_91:\n    /* \"#utility.yul\":4538:4545   */\n  dup3\n    /* \"#utility.yul\":4535:4536   */\n  dup2\n    /* \"#utility.yul\":4532:4546   */\n  lt\n    /* \"#utility.yul\":4524:4732   */\n  iszero\n  tag_93\n  jumpi\n    /* \"#utility.yul\":4617:4626   */\n  dup5\n    /* \"#utility.yul\":4612:4615   */\n  dup10\n    /* \"#utility.yul\":4608:4627   */\n  add\n    /* \"#utility.yul\":4602:4628   */\n  mload\n    /* \"#utility.yul\":4594:4600   */\n  dup3\n    /* \"#utility.yul\":4587:4629   */\n  sstore\n    /* \"#utility.yul\":4668:4669   */\n  0x01\n    /* \"#utility.yul\":4660:4666   */\n  dup3\n    /* \"#utility.yul\":4656:4670   */\n  add\n    /* \"#utility.yul\":4646:4670   */\n  swap2\n  pop\n    /* \"#utility.yul\":4715:4717   */\n  0x20\n    /* \"#utility.yul\":4704:4713   */\n  dup6\n    /* \"#utility.yul\":4700:4718   */\n  add\n    /* \"#utility.yul\":4687:4718   */\n  swap5\n  pop\n    /* \"#utility.yul\":4561:4565   */\n  0x20\n    /* \"#utility.yul\":4558:4559   */\n  dup2\n    /* \"#utility.yul\":4554:4566   */\n  add\n    /* \"#utility.yul\":4549:4566   */\n  swap1\n  pop\n    /* \"#utility.yul\":4524:4732   */\n  jump(tag_91)\ntag_93:\n    /* \"#utility.yul\":4760:4766   */\n  dup7\n    /* \"#utility.yul\":4751:4758   */\n  dup4\n    /* \"#utility.yul\":4748:4767   */\n  lt\n    /* \"#utility.yul\":4745:4924   */\n  iszero\n  tag_94\n  jumpi\n    /* \"#utility.yul\":4818:4827   */\n  dup5\n    /* \"#utility.yul\":4813:4816   */\n  dup10\n    /* \"#utility.yul\":4809:4828   */\n  add\n    /* \"#utility.yul\":4803:4829   */\n  mload\n    /* \"#utility.yul\":4861:4909   */\n  tag_95\n    /* \"#utility.yul\":4903:4907   */\n  0x1f\n    /* \"#utility.yul\":4895:4901   */\n  dup10\n    /* \"#utility.yul\":4891:4908   */\n  and\n    /* \"#utility.yul\":4880:4889   */\n  dup3\n    /* \"#utility.yul\":4861:4909   */\n  tag_31\n  jump\t// in\ntag_95:\n    /* \"#utility.yul\":4853:4859   */\n  dup4\n    /* \"#utility.yul\":4846:4910   */\n  sstore\n    /* \"#utility.yul\":4768:4924   */\n  pop\n    /* \"#utility.yul\":4745:4924   */\ntag_94:\n    /* \"#utility.yul\":4970:4971   */\n  0x01\n    /* \"#utility.yul\":4966:4967   */\n  0x02\n    /* \"#utility.yul\":4958:4964   */\n  dup9\n    /* \"#utility.yul\":4954:4968   */\n  mul\n    /* \"#utility.yul\":4950:4972   */\n  add\n    /* \"#utility.yul\":4944:4948   */\n  dup9\n    /* \"#utility.yul\":4937:4973   */\n  sstore\n    /* \"#utility.yul\":4372:4983   */\n  pop\n  pop\n  pop\n    /* \"#utility.yul\":4335:5222   */\ntag_86:\n  pop\n    /* \"#utility.yul\":3925:5228   */\n  pop\n  pop\n  pop\n    /* \"#utility.yul\":3833:5228   */\n  pop\n  pop\n  jump\t// out\n    /* \"#utility.yul\":5234:5383   */\ntag_33:\n    /* \"#utility.yul\":5283:5289   */\n  0x00\n    /* \"#utility.yul\":5317:5322   */\n  dup2\n    /* \"#utility.yul\":5311:5323   */\n  sload\n    /* \"#utility.yul\":5301:5323   */\n  swap1\n  pop\n    /* \"#utility.yul\":5343:5376   */\n  tag_97\n    /* \"#utility.yul\":5369:5375   */\n  dup2\n    /* \"#utility.yul\":5343:5376   */\n  tag_16\n  jump\t// in\ntag_97:\n    /* \"#utility.yul\":5333:5376   */\n  swap1\n  pop\n    /* \"#utility.yul\":5234:5383   */\n  swap2\n  swap1\n  pop\n  jump\t// out\n    /* \"#utility.yul\":5389:6840   */\ntag_11:\n    /* \"#utility.yul\":5500:5503   */\n  dup2\n    /* \"#utility.yul\":5494:5498   */\n  dup2\n    /* \"#utility.yul\":5491:5504   */\n  sub\n    /* \"#utility.yul\":5488:5514   */\n  tag_99\n  jumpi\n    /* \"#utility.yul\":5507:5512   */\n  pop\n  pop\n  jump(tag_98)\n    /* \"#utility.yul\":5488:5514   */\ntag_99:\n    /* \"#utility.yul\":5538:5572   */\n  tag_100\n    /* \"#utility.yul\":5568:5571   */\n  dup3\n    /* \"#utility.yul\":5538:5572   */\n  tag_33\n  jump\t// in\ntag_100:\n    /* \"#utility.yul\":5637:5655   */\n  0xffffffffffffffff\n    /* \"#utility.yul\":5629:5635   */\n  dup2\n    /* \"#utility.yul\":5626:5656   */\n  gt\n    /* \"#utility.yul\":5623:5679   */\n  iszero\n  tag_101\n  jumpi\n    /* \"#utility.yul\":5659:5677   */\n  tag_102\n  tag_14\n  jump\t// in\ntag_102:\n    /* \"#utility.yul\":5623:5679   */\ntag_101:\n    /* \"#utility.yul\":5703:5741   */\n  tag_103\n    /* \"#utility.yul\":5735:5739   */\n  dup3\n    /* \"#utility.yul\":5729:5740   */\n  sload\n    /* \"#utility.yul\":5703:5741   */\n  tag_16\n  jump\t// in\ntag_103:\n    /* \"#utility.yul\":5788:5855   */\n  tag_104\n    /* \"#utility.yul\":5848:5854   */\n  dup3\n    /* \"#utility.yul\":5840:5846   */\n  dup3\n    /* \"#utility.yul\":5834:5838   */\n  dup6\n    /* \"#utility.yul\":5788:5855   */\n  tag_29\n  jump\t// in\ntag_104:\n    /* \"#utility.yul\":5882:5883   */\n  0x00\n    /* \"#utility.yul\":5911:5913   */\n  0x1f\n    /* \"#utility.yul\":5903:5909   */\n  dup4\n    /* \"#utility.yul\":5900:5914   */\n  gt\n    /* \"#utility.yul\":5928:5929   */\n  0x01\n    /* \"#utility.yul\":5923:6595   */\n  dup2\n  eq\n  tag_106\n  jumpi\n    /* \"#utility.yul\":6639:6640   */\n  0x00\n    /* \"#utility.yul\":6656:6662   */\n  dup5\n    /* \"#utility.yul\":6653:6730   */\n  iszero\n  tag_107\n  jumpi\n    /* \"#utility.yul\":6705:6714   */\n  dup3\n    /* \"#utility.yul\":6700:6703   */\n  dup8\n    /* \"#utility.yul\":6696:6715   */\n  add\n    /* \"#utility.yul\":6690:6716   */\n  sload\n    /* \"#utility.yul\":6681:6716   */\n  swap1\n  pop\n    /* \"#utility.yul\":6653:6730   */\ntag_107:\n    /* \"#utility.yul\":6756:6823   */\n  tag_108\n    /* \"#utility.yul\":6816:6822   */\n  dup6\n    /* \"#utility.yul\":6809:6814   */\n  dup3\n    /* \"#utility.yul\":6756:6823   */\n  tag_32\n  jump\t// in\ntag_108:\n    /* \"#utility.yul\":6750:6754   */\n  dup7\n    /* \"#utility.yul\":6743:6824   */\n  sstore\n    /* \"#utility.yul\":6612:6834   */\n  pop\n    /* \"#utility.yul\":5893:6834   */\n  jump(tag_105)\n    /* \"#utility.yul\":5923:6595   */\ntag_106:\n    /* \"#utility.yul\":5975:5979   */\n  0x1f\n    /* \"#utility.yul\":5971:5980   */\n  not\n    /* \"#utility.yul\":5963:5969   */\n  dup5\n    /* \"#utility.yul\":5959:5981   */\n  and\n    /* \"#utility.yul\":6001:6037   */\n  tag_109\n    /* \"#utility.yul\":6033:6036   */\n  dup8\n    /* \"#utility.yul\":6001:6037   */\n  tag_17\n  jump\t// in\ntag_109:\n    /* \"#utility.yul\":5994:6037   */\n  swap7\n  pop\n    /* \"#utility.yul\":6064:6101   */\n  tag_110\n    /* \"#utility.yul\":6096:6100   */\n  dup7\n    /* \"#utility.yul\":6064:6101   */\n  tag_17\n  jump\t// in\ntag_110:\n    /* \"#utility.yul\":6123:6124   */\n  0x00\n    /* \"#utility.yul\":6137:6344   */\ntag_111:\n    /* \"#utility.yul\":6151:6158   */\n  dup3\n    /* \"#utility.yul\":6148:6149   */\n  dup2\n    /* \"#utility.yul\":6145:6159   */\n  lt\n    /* \"#utility.yul\":6137:6344   */\n  iszero\n  tag_113\n  jumpi\n    /* \"#utility.yul\":6230:6239   */\n  dup5\n    /* \"#utility.yul\":6225:6228   */\n  dup10\n    /* \"#utility.yul\":6221:6240   */\n  add\n    /* \"#utility.yul\":6215:6241   */\n  sload\n    /* \"#utility.yul\":6207:6213   */\n  dup3\n    /* \"#utility.yul\":6200:6242   */\n  sstore\n    /* \"#utility.yul\":6281:6282   */\n  0x01\n    /* \"#utility.yul\":6273:6279   */\n  dup3\n    /* \"#utility.yul\":6269:6283   */\n  add\n    /* \"#utility.yul\":6259:6283   */\n  swap2\n  pop\n    /* \"#utility.yul\":6328:6329   */\n  0x01\n    /* \"#utility.yul\":6317:6326   */\n  dup6\n    /* \"#utility.yul\":6313:6330   */\n  add\n    /* \"#utility.yul\":6300:6330   */\n  swap5\n  pop\n    /* \"#utility.yul\":6174:6178   */\n  0x20\n    /* \"#utility.yul\":6171:6172   */\n  dup2\n    /* \"#utility.yul\":6167:6179   */\n  add\n    /* \"#utility.yul\":6162:6179   */\n  swap1\n  pop\n    /* \"#utility.yul\":6137:6344   */\n  jump(tag_111)\ntag_113:\n    /* \"#utility.yul\":6372:6378   */\n  dup7\n    /* \"#utility.yul\":6363:6370   */\n  dup4\n    /* \"#utility.yul\":6360:6379   */\n  lt\n    /* \"#utility.yul\":6357:6536   */\n  iszero\n  tag_114\n  jumpi\n    /* \"#utility.yul\":6430:6439   */\n  dup5\n    /* \"#utility.yul\":6425:6428   */\n  dup10\n    /* \"#utility.yul\":6421:6440   */\n  add\n    /* \"#utility.yul\":6415:6441   */\n  sload\n    /* \"#utility.yul\":6473:6521   */\n  tag_115\n    /* \"#utility.yul\":6515:6519   */\n  0x1f\n    /* \"#utility.yul\":6507:6513   */\n  dup10\n    /* \"#utility.yul\":6503:6520   */\n  and\n    /* \"#utility.yul\":6492:6501   */\n  dup3\n    /* \"#utility.yul\":6473:6521   */\n  tag_31\n  jump\t// in\ntag_115:\n    /* \"#utility.yul\":6465:6471   */\n  dup4\n    /* \"#utility.yul\":6458:6522   */\n  sstore\n    /* \"#utility.yul\":6380:6536   */\n  pop\n    /* \"#utility.yul\":6357:6536   */\ntag_114:\n    /* \"#utility.yul\":6582:6583   */\n  0x01\n    /* \"#utility.yul\":6578:6579   */\n  0x02\n    /* \"#utility.yul\":6570:6576   */\n  dup9\n    /* \"#utility.yul\":6566:6580   */\n  mul\n    /* \"#utility.yul\":6562:6584   */\n  add\n    /* \"#utility.yul\":6556:6560   */\n  dup9\n    /* \"#utility.yul\":6549:6585   */\n  sstore\n    /* \"#utility.yul\":5930:6595   */\n  pop\n  pop\n  pop\n    /* \"#utility.yul\":5893:6834   */\ntag_105:\n  pop\n    /* \"#utility.yul\":5478:6840   */\n  pop\n  pop\n  pop\n    /* \"#utility.yul\":5389:6840   */\n  pop\n  pop\ntag_98:\n  jump\t// out\n    /* \"loyaltyprg.sol\":61:3753  contract LoyaltyProgram {... */\ntag_12:\n  dataSize(sub_0)\n  dup1\n  dataOffset(sub_0)\n  0x00\n  codecopy\n  0x00\n  return\nstop\n\nsub_0: assembly {\n        /* \"loyaltyprg.sol\":61:3753  contract LoyaltyProgram {... */\n      mstore(0x40, 0x80)\n      callvalue\n      dup1\n      iszero\n      tag_1\n      jumpi\n      0x00\n      dup1\n      revert\n    tag_1:\n      pop\n      jumpi(tag_2, lt(calldatasize, 0x04))\n      shr(0xe0, calldataload(0x00))\n      dup1\n      0xb2f46666\n      gt\n      tag_14\n      jumpi\n      dup1\n      0xb2f46666\n      eq\n      tag_8\n      jumpi\n      dup1\n      0xbcf3eec6\n      eq\n      tag_9\n      jumpi\n      dup1\n      0xdb03954e\n      eq\n      tag_10\n      jumpi\n      dup1\n      0xf301af42\n      eq\n      tag_11\n      jumpi\n      dup1\n      0xf68e4149\n      eq\n      tag_12\n      jumpi\n      dup1\n      0xffef9e84\n      eq\n      tag_13\n      jumpi\n      jump(tag_2)\n    tag_14:\n      dup1\n      0x51a71b17\n      eq\n      tag_3\n      jumpi\n      dup1\n      0x6d1ff757\n      eq\n      tag_4\n      jumpi\n      dup1\n      0x7d1cf86b\n      eq\n      tag_5\n      jumpi\n      dup1\n      0x8da5cb5b\n      eq\n      tag_6\n      jumpi\n      dup1\n      0xa5ff7651\n      eq\n      tag_7\n      jumpi\n    tag_2:\n      0x00\n      dup1\n      revert\n        /* \"loyaltyprg.sol\":3168:3750  function redeemReward(uint256 rewardIndex) public {... */\n    tag_3:\n      tag_15\n      0x04\n      dup1\n      calldatasize\n      sub\n      dup2\n      add\n      swap1\n      tag_16\n      swap2\n      swap1\n      tag_17\n      jump\t// in\n    tag_16:\n      tag_18\n      jump\t// in\n    tag_15:\n      stop\n        /* \"loyaltyprg.sol\":252:280  uint256 public loyaltypoints */\n    tag_4:\n      tag_19\n      tag_20\n      jump\t// in\n    tag_19:\n      mload(0x40)\n      tag_21\n      swap2\n      swap1\n      tag_22\n      jump\t// in\n    tag_21:\n      mload(0x40)\n      dup1\n      swap2\n      sub\n      swap1\n      return\n        /* \"loyaltyprg.sol\":1465:2061  function addOrUpdateReward(string memory _rewardName, uint256 _loyaltypointsRequired)... */\n    tag_5:\n      tag_23\n      0x04\n      dup1\n      calldatasize\n      sub\n      dup2\n      add\n      swap1\n      tag_24\n      swap2\n      swap1\n      tag_25\n      jump\t// in\n    tag_24:\n      tag_26\n      jump\t// in\n    tag_23:\n      stop\n        /* \"loyaltyprg.sol\":92:112  address public owner */\n    tag_6:\n      tag_27\n      tag_28\n      jump\t// in\n    tag_27:\n      mload(0x40)\n      tag_29\n      swap2\n      swap1\n      tag_30\n      jump\t// in\n    tag_29:\n      mload(0x40)\n      dup1\n      swap2\n      sub\n      swap1\n      return\n        /* \"loyaltyprg.sol\":587:618  CustomerAccount public merchant */\n    tag_7:\n      tag_31\n      tag_32\n      jump\t// in\n    tag_31:\n      mload(0x40)\n      tag_33\n      swap3\n      swap2\n      swap1\n      tag_34\n      jump\t// in\n    tag_33:\n      mload(0x40)\n      dup1\n      swap2\n      sub\n      swap1\n      return\n        /* \"loyaltyprg.sol\":627:686  mapping(address => CustomerAccount) public customerAccounts */\n    tag_8:\n      tag_35\n      0x04\n      dup1\n      calldatasize\n      sub\n      dup2\n      add\n      swap1\n      tag_36\n      swap2\n      swap1\n      tag_37\n      jump\t// in\n    tag_36:\n      tag_38\n      jump\t// in\n    tag_35:\n      mload(0x40)\n      tag_39\n      swap3\n      swap2\n      swap1\n      tag_34\n      jump\t// in\n    tag_39:\n      mload(0x40)\n      dup1\n      swap2\n      sub\n      swap1\n      return\n        /* \"loyaltyprg.sol\":2121:2452  function createCustomerAccount(string memory _accountName) public {... */\n    tag_9:\n      tag_40\n      0x04\n      dup1\n      calldatasize\n      sub\n      dup2\n      add\n      swap1\n      tag_41\n      swap2\n      swap1\n      tag_42\n      jump\t// in\n    tag_41:\n      tag_43\n      jump\t// in\n    tag_40:\n      stop\n        /* \"loyaltyprg.sol\":2725:3111  function awardLoyaltyPoints(address customer, int256 _purchaseamt) public {... */\n    tag_10:\n      tag_44\n      0x04\n      dup1\n      calldatasize\n      sub\n      dup2\n      add\n      swap1\n      tag_45\n      swap2\n      swap1\n      tag_46\n      jump\t// in\n    tag_45:\n      tag_47\n      jump\t// in\n    tag_44:\n      stop\n        /* \"loyaltyprg.sol\":528:551  Reward[] public rewards */\n    tag_11:\n      tag_48\n      0x04\n      dup1\n      calldatasize\n      sub\n      dup2\n      add\n      swap1\n      tag_49\n      swap2\n      swap1\n      tag_17\n      jump\t// in\n    tag_49:\n      tag_50\n      jump\t// in\n    tag_48:\n      mload(0x40)\n      tag_51\n      swap3\n      swap2\n      swap1\n      tag_34\n      jump\t// in\n    tag_51:\n      mload(0x40)\n      dup1\n      swap2\n      sub\n      swap1\n      return\n        /* \"loyaltyprg.sol\":2520:2648  function checkBalancePoints() public view returns (uint256) {... */\n    tag_12:\n      tag_52\n      tag_53\n      jump\t// in\n    tag_52:\n      mload(0x40)\n      tag_54\n      swap2\n      swap1\n      tag_22\n      jump\t// in\n    tag_54:\n      mload(0x40)\n      dup1\n      swap2\n      sub\n      swap1\n      return\n        /* \"loyaltyprg.sol\":172:198  uint256 public purchaseamt */\n    tag_13:\n      tag_55\n      tag_56\n      jump\t// in\n    tag_55:\n      mload(0x40)\n      tag_57\n      swap2\n      swap1\n      tag_22\n      jump\t// in\n    tag_57:\n      mload(0x40)\n      dup1\n      swap2\n      sub\n      swap1\n      return\n        /* \"loyaltyprg.sol\":3168:3750  function redeemReward(uint256 rewardIndex) public {... */\n    tag_18:\n        /* \"loyaltyprg.sol\":3251:3258  rewards */\n      0x03\n        /* \"loyaltyprg.sol\":3251:3265  rewards.length */\n      dup1\n      sload\n      swap1\n      pop\n        /* \"loyaltyprg.sol\":3237:3248  rewardIndex */\n      dup2\n        /* \"loyaltyprg.sol\":3237:3265  rewardIndex < rewards.length */\n      lt\n        /* \"loyaltyprg.sol\":3229:3290  require(rewardIndex < rewards.length, \"Invalid reward index\") */\n      tag_59\n      jumpi\n      mload(0x40)\n      0x08c379a000000000000000000000000000000000000000000000000000000000\n      dup2\n      mstore\n      0x04\n      add\n      tag_60\n      swap1\n      tag_61\n      jump\t// in\n    tag_60:\n      mload(0x40)\n      dup1\n      swap2\n      sub\n      swap1\n      revert\n    tag_59:\n        /* \"loyaltyprg.sol\":3369:3376  rewards */\n      0x03\n        /* \"loyaltyprg.sol\":3377:3388  rewardIndex */\n      dup2\n        /* \"loyaltyprg.sol\":3369:3389  rewards[rewardIndex] */\n      dup2\n      sload\n      dup2\n      lt\n      tag_62\n      jumpi\n      tag_63\n      tag_64\n      jump\t// in\n    tag_63:\n    tag_62:\n      swap1\n      0x00\n      mstore\n      keccak256(0x00, 0x20)\n      swap1\n      0x02\n      mul\n      add\n        /* \"loyaltyprg.sol\":3369:3411  rewards[rewardIndex].loyaltypointsRequired */\n      0x01\n      add\n      sload\n        /* \"loyaltyprg.sol\":3323:3339  customerAccounts */\n      0x06\n        /* \"loyaltyprg.sol\":3323:3351  customerAccounts[msg.sender] */\n      0x00\n        /* \"loyaltyprg.sol\":3340:3350  msg.sender */\n      caller\n        /* \"loyaltyprg.sol\":3323:3351  customerAccounts[msg.sender] */\n      0xffffffffffffffffffffffffffffffffffffffff\n      and\n      0xffffffffffffffffffffffffffffffffffffffff\n      and\n      dup2\n      mstore\n      0x20\n      add\n      swap1\n      dup2\n      mstore\n      0x20\n      add\n      0x00\n      keccak256\n        /* \"loyaltyprg.sol\":3323:3365  customerAccounts[msg.sender].balancepoints */\n      0x01\n      add\n      sload\n        /* \"loyaltyprg.sol\":3323:3411  customerAccounts[msg.sender].balancepoints >= rewards[rewardIndex].loyaltypointsRequired */\n      lt\n      iszero\n        /* \"loyaltyprg.sol\":3301:3465  require(... */\n      tag_66\n      jumpi\n      mload(0x40)\n      0x08c379a000000000000000000000000000000000000000000000000000000000\n      dup2\n      mstore\n      0x04\n      add\n      tag_67\n      swap1\n      tag_68\n      jump\t// in\n    tag_67:\n      mload(0x40)\n      dup1\n      swap2\n      sub\n      swap1\n      revert\n    tag_66:\n        /* \"loyaltyprg.sol\":3522:3529  rewards */\n      0x03\n        /* \"loyaltyprg.sol\":3530:3541  rewardIndex */\n      dup2\n        /* \"loyaltyprg.sol\":3522:3542  rewards[rewardIndex] */\n      dup2\n      sload\n      dup2\n      lt\n      tag_69\n      jumpi\n      tag_70\n      tag_64\n      jump\t// in\n    tag_70:\n    tag_69:\n      swap1\n      0x00\n      mstore\n      keccak256(0x00, 0x20)\n      swap1\n      0x02\n      mul\n      add\n        /* \"loyaltyprg.sol\":3522:3564  rewards[rewardIndex].loyaltypointsRequired */\n      0x01\n      add\n      sload\n        /* \"loyaltyprg.sol\":3476:3492  customerAccounts */\n      0x06\n        /* \"loyaltyprg.sol\":3476:3504  customerAccounts[msg.sender] */\n      0x00\n        /* \"loyaltyprg.sol\":3493:3503  msg.sender */\n      caller\n        /* \"loyaltyprg.sol\":3476:3504  customerAccounts[msg.sender] */\n      0xffffffffffffffffffffffffffffffffffffffff\n      and\n      0xffffffffffffffffffffffffffffffffffffffff\n      and\n      dup2\n      mstore\n      0x20\n      add\n      swap1\n      dup2\n      mstore\n      0x20\n      add\n      0x00\n      keccak256\n        /* \"loyaltyprg.sol\":3476:3518  customerAccounts[msg.sender].balancepoints */\n      0x01\n      add\n      0x00\n        /* \"loyaltyprg.sol\":3476:3564  customerAccounts[msg.sender].balancepoints -= rewards[rewardIndex].loyaltypointsRequired */\n      dup3\n      dup3\n      sload\n      tag_72\n      swap2\n      swap1\n      tag_73\n      jump\t// in\n    tag_72:\n      swap3\n      pop\n      pop\n      dup2\n      swap1\n      sstore\n      pop\n        /* \"loyaltyprg.sol\":3168:3750  function redeemReward(uint256 rewardIndex) public {... */\n      pop\n      jump\t// out\n        /* \"loyaltyprg.sol\":252:280  uint256 public loyaltypoints */\n    tag_20:\n      sload(0x02)\n      dup2\n      jump\t// out\n        /* \"loyaltyprg.sol\":1465:2061  function addOrUpdateReward(string memory _rewardName, uint256 _loyaltypointsRequired)... */\n    tag_26:\n        /* \"loyaltyprg.sol\":1335:1340  owner */\n      0x00\n      dup1\n      sload\n      swap1\n      0x0100\n      exp\n      swap1\n      div\n      0xffffffffffffffffffffffffffffffffffffffff\n      and\n        /* \"loyaltyprg.sol\":1321:1340  msg.sender == owner */\n      0xffffffffffffffffffffffffffffffffffffffff\n      and\n        /* \"loyaltyprg.sol\":1321:1331  msg.sender */\n      caller\n        /* \"loyaltyprg.sol\":1321:1340  msg.sender == owner */\n      0xffffffffffffffffffffffffffffffffffffffff\n      and\n      eq\n        /* \"loyaltyprg.sol\":1313:1382  require(msg.sender == owner, \"Only the owner can call this function\") */\n      tag_75\n      jumpi\n      mload(0x40)\n      0x08c379a000000000000000000000000000000000000000000000000000000000\n      dup2\n      mstore\n      0x04\n      add\n      tag_76\n      swap1\n      tag_77\n      jump\t// in\n    tag_76:\n      mload(0x40)\n      dup1\n      swap2\n      sub\n      swap1\n      revert\n    tag_75:\n        /* \"loyaltyprg.sol\":1602:1619  bool rewardExists */\n      0x00\n        /* \"loyaltyprg.sol\":1643:1652  uint256 i */\n      dup1\n        /* \"loyaltyprg.sol\":1638:1941  for (uint256 i = 0; i < rewards.length; i++) {... */\n    tag_79:\n        /* \"loyaltyprg.sol\":1662:1669  rewards */\n      0x03\n        /* \"loyaltyprg.sol\":1662:1676  rewards.length */\n      dup1\n      sload\n      swap1\n      pop\n        /* \"loyaltyprg.sol\":1658:1659  i */\n      dup2\n        /* \"loyaltyprg.sol\":1658:1676  i < rewards.length */\n      lt\n        /* \"loyaltyprg.sol\":1638:1941  for (uint256 i = 0; i < rewards.length; i++) {... */\n      iszero\n      tag_80\n      jumpi\n        /* \"loyaltyprg.sol\":1761:1772  _rewardName */\n      dup4\n        /* \"loyaltyprg.sol\":1745:1774  keccak256(bytes(_rewardName)) */\n      dup1\n      mload\n      swap1\n      0x20\n      add\n      keccak256\n        /* \"loyaltyprg.sol\":1718:1725  rewards */\n      0x03\n        /* \"loyaltyprg.sol\":1726:1727  i */\n      dup3\n        /* \"loyaltyprg.sol\":1718:1728  rewards[i] */\n      dup2\n      sload\n      dup2\n      lt\n      tag_82\n      jumpi\n      tag_83\n      tag_64\n      jump\t// in\n    tag_83:\n    tag_82:\n      swap1\n      0x00\n      mstore\n      keccak256(0x00, 0x20)\n      swap1\n      0x02\n      mul\n      add\n        /* \"loyaltyprg.sol\":1718:1739  rewards[i].rewardName */\n      0x00\n      add\n        /* \"loyaltyprg.sol\":1702:1741  keccak256(bytes(rewards[i].rewardName)) */\n      mload(0x40)\n      tag_85\n      swap2\n      swap1\n      tag_86\n      jump\t// in\n    tag_85:\n      mload(0x40)\n      dup1\n      swap2\n      sub\n      swap1\n      keccak256\n        /* \"loyaltyprg.sol\":1702:1774  keccak256(bytes(rewards[i].rewardName)) == keccak256(bytes(_rewardName)) */\n      sub\n        /* \"loyaltyprg.sol\":1698:1930  if (keccak256(bytes(rewards[i].rewardName)) == keccak256(bytes(_rewardName))) {... */\n      tag_87\n      jumpi\n        /* \"loyaltyprg.sol\":1830:1852  _loyaltypointsRequired */\n      dup3\n        /* \"loyaltyprg.sol\":1795:1802  rewards */\n      0x03\n        /* \"loyaltyprg.sol\":1803:1804  i */\n      dup3\n        /* \"loyaltyprg.sol\":1795:1805  rewards[i] */\n      dup2\n      sload\n      dup2\n      lt\n      tag_88\n      jumpi\n      tag_89\n      tag_64\n      jump\t// in\n    tag_89:\n    tag_88:\n      swap1\n      0x00\n      mstore\n      keccak256(0x00, 0x20)\n      swap1\n      0x02\n      mul\n      add\n        /* \"loyaltyprg.sol\":1795:1827  rewards[i].loyaltypointsRequired */\n      0x01\n      add\n        /* \"loyaltyprg.sol\":1795:1852  rewards[i].loyaltypointsRequired = _loyaltypointsRequired */\n      dup2\n      swap1\n      sstore\n      pop\n        /* \"loyaltyprg.sol\":1886:1890  true */\n      0x01\n        /* \"loyaltyprg.sol\":1871:1890  rewardExists = true */\n      swap2\n      pop\n        /* \"loyaltyprg.sol\":1909:1914  break */\n      jump(tag_80)\n        /* \"loyaltyprg.sol\":1698:1930  if (keccak256(bytes(rewards[i].rewardName)) == keccak256(bytes(_rewardName))) {... */\n    tag_87:\n        /* \"loyaltyprg.sol\":1678:1681  i++ */\n      dup1\n      dup1\n      tag_91\n      swap1\n      tag_92\n      jump\t// in\n    tag_91:\n      swap2\n      pop\n      pop\n        /* \"loyaltyprg.sol\":1638:1941  for (uint256 i = 0; i < rewards.length; i++) {... */\n      jump(tag_79)\n    tag_80:\n      pop\n        /* \"loyaltyprg.sol\":1956:1968  rewardExists */\n      dup1\n        /* \"loyaltyprg.sol\":1951:2054  if (!rewardExists) {... */\n      tag_93\n      jumpi\n        /* \"loyaltyprg.sol\":1985:1992  rewards */\n      0x03\n        /* \"loyaltyprg.sol\":1998:2041  Reward(_rewardName, _loyaltypointsRequired) */\n      mload(0x40)\n      dup1\n      0x40\n      add\n      0x40\n      mstore\n      dup1\n        /* \"loyaltyprg.sol\":2005:2016  _rewardName */\n      dup6\n        /* \"loyaltyprg.sol\":1998:2041  Reward(_rewardName, _loyaltypointsRequired) */\n      dup2\n      mstore\n      0x20\n      add\n        /* \"loyaltyprg.sol\":2018:2040  _loyaltypointsRequired */\n      dup5\n        /* \"loyaltyprg.sol\":1998:2041  Reward(_rewardName, _loyaltypointsRequired) */\n      dup2\n      mstore\n      pop\n        /* \"loyaltyprg.sol\":1985:2042  rewards.push(Reward(_rewardName, _loyaltypointsRequired)) */\n      swap1\n      dup1\n      0x01\n      dup2\n      sload\n      add\n      dup1\n      dup3\n      sstore\n      dup1\n      swap2\n      pop\n      pop\n      0x01\n      swap1\n      sub\n      swap1\n      0x00\n      mstore\n      keccak256(0x00, 0x20)\n      swap1\n      0x02\n      mul\n      add\n      0x00\n      swap1\n      swap2\n      swap1\n      swap2\n      swap1\n      swap2\n      pop\n      0x00\n      dup3\n      add\n      mload\n      dup2\n      0x00\n      add\n      swap1\n      dup2\n      tag_95\n      swap2\n      swap1\n      tag_96\n      jump\t// in\n    tag_95:\n      pop\n      0x20\n      dup3\n      add\n      mload\n      dup2\n      0x01\n      add\n      sstore\n      pop\n      pop\n        /* \"loyaltyprg.sol\":1951:2054  if (!rewardExists) {... */\n    tag_93:\n        /* \"loyaltyprg.sol\":1591:2061  {... */\n      pop\n        /* \"loyaltyprg.sol\":1465:2061  function addOrUpdateReward(string memory _rewardName, uint256 _loyaltypointsRequired)... */\n      pop\n      pop\n      jump\t// out\n        /* \"loyaltyprg.sol\":92:112  address public owner */\n    tag_28:\n      0x00\n      dup1\n      sload\n      swap1\n      0x0100\n      exp\n      swap1\n      div\n      0xffffffffffffffffffffffffffffffffffffffff\n      and\n      dup2\n      jump\t// out\n        /* \"loyaltyprg.sol\":587:618  CustomerAccount public merchant */\n    tag_32:\n      0x04\n      dup1\n      0x00\n      add\n      dup1\n      sload\n      tag_97\n      swap1\n      tag_98\n      jump\t// in\n    tag_97:\n      dup1\n      0x1f\n      add\n      0x20\n      dup1\n      swap2\n      div\n      mul\n      0x20\n      add\n      mload(0x40)\n      swap1\n      dup2\n      add\n      0x40\n      mstore\n      dup1\n      swap3\n      swap2\n      swap1\n      dup2\n      dup2\n      mstore\n      0x20\n      add\n      dup3\n      dup1\n      sload\n      tag_99\n      swap1\n      tag_98\n      jump\t// in\n    tag_99:\n      dup1\n      iszero\n      tag_100\n      jumpi\n      dup1\n      0x1f\n      lt\n      tag_101\n      jumpi\n      0x0100\n      dup1\n      dup4\n      sload\n      div\n      mul\n      dup4\n      mstore\n      swap2\n      0x20\n      add\n      swap2\n      jump(tag_100)\n    tag_101:\n      dup3\n      add\n      swap2\n      swap1\n      0x00\n      mstore\n      keccak256(0x00, 0x20)\n      swap1\n    tag_102:\n      dup2\n      sload\n      dup2\n      mstore\n      swap1\n      0x01\n      add\n      swap1\n      0x20\n      add\n      dup1\n      dup4\n      gt\n      tag_102\n      jumpi\n      dup3\n      swap1\n      sub\n      0x1f\n      and\n      dup3\n      add\n      swap2\n    tag_100:\n      pop\n      pop\n      pop\n      pop\n      pop\n      swap1\n      dup1\n      0x01\n      add\n      sload\n      swap1\n      pop\n      dup3\n      jump\t// out\n        /* \"loyaltyprg.sol\":627:686  mapping(address => CustomerAccount) public customerAccounts */\n    tag_38:\n      mstore(0x20, 0x06)\n      dup1\n      0x00\n      mstore\n      keccak256(0x00, 0x40)\n      0x00\n      swap2\n      pop\n      swap1\n      pop\n      dup1\n      0x00\n      add\n      dup1\n      sload\n      tag_103\n      swap1\n      tag_98\n      jump\t// in\n    tag_103:\n      dup1\n      0x1f\n      add\n      0x20\n      dup1\n      swap2\n      div\n      mul\n      0x20\n      add\n      mload(0x40)\n      swap1\n      dup2\n      add\n      0x40\n      mstore\n      dup1\n      swap3\n      swap2\n      swap1\n      dup2\n      dup2\n      mstore\n      0x20\n      add\n      dup3\n      dup1\n      sload\n      tag_104\n      swap1\n      tag_98\n      jump\t// in\n    tag_104:\n      dup1\n      iszero\n      tag_105\n      jumpi\n      dup1\n      0x1f\n      lt\n      tag_106\n      jumpi\n      0x0100\n      dup1\n      dup4\n      sload\n      div\n      mul\n      dup4\n      mstore\n      swap2\n      0x20\n      add\n      swap2\n      jump(tag_105)\n    tag_106:\n      dup3\n      add\n      swap2\n      swap1\n      0x00\n      mstore\n      keccak256(0x00, 0x20)\n      swap1\n    tag_107:\n      dup2\n      sload\n      dup2\n      mstore\n      swap1\n      0x01\n      add\n      swap1\n      0x20\n      add\n      dup1\n      dup4\n      gt\n      tag_107\n      jumpi\n      dup3\n      swap1\n      sub\n      0x1f\n      and\n      dup3\n      add\n      swap2\n    tag_105:\n      pop\n      pop\n      pop\n      pop\n      pop\n      swap1\n      dup1\n      0x01\n      add\n      sload\n      swap1\n      pop\n      dup3\n      jump\t// out\n        /* \"loyaltyprg.sol\":2121:2452  function createCustomerAccount(string memory _accountName) public {... */\n    tag_43:\n        /* \"loyaltyprg.sol\":2278:2279  0 */\n      0x00\n        /* \"loyaltyprg.sol\":2226:2242  customerAccounts */\n      0x06\n        /* \"loyaltyprg.sol\":2226:2254  customerAccounts[msg.sender] */\n      0x00\n        /* \"loyaltyprg.sol\":2243:2253  msg.sender */\n      caller\n        /* \"loyaltyprg.sol\":2226:2254  customerAccounts[msg.sender] */\n      0xffffffffffffffffffffffffffffffffffffffff\n      and\n      0xffffffffffffffffffffffffffffffffffffffff\n      and\n      dup2\n      mstore\n      0x20\n      add\n      swap1\n      dup2\n      mstore\n      0x20\n      add\n      0x00\n      keccak256\n        /* \"loyaltyprg.sol\":2226:2266  customerAccounts[msg.sender].accountName */\n      0x00\n      add\n        /* \"loyaltyprg.sol\":2220:2274  bytes(customerAccounts[msg.sender].accountName).length */\n      dup1\n      sload\n      tag_109\n      swap1\n      tag_98\n      jump\t// in\n    tag_109:\n      swap1\n      pop\n        /* \"loyaltyprg.sol\":2220:2279  bytes(customerAccounts[msg.sender].accountName).length == 0 */\n      eq\n        /* \"loyaltyprg.sol\":2198:2338  require(... */\n      tag_110\n      jumpi\n      mload(0x40)\n      0x08c379a000000000000000000000000000000000000000000000000000000000\n      dup2\n      mstore\n      0x04\n      add\n      tag_111\n      swap1\n      tag_112\n      jump\t// in\n    tag_111:\n      mload(0x40)\n      dup1\n      swap2\n      sub\n      swap1\n      revert\n    tag_110:\n        /* \"loyaltyprg.sol\":2380:2413  CustomerAccount(_accountName, 20) */\n      mload(0x40)\n      dup1\n      0x40\n      add\n      0x40\n      mstore\n      dup1\n        /* \"loyaltyprg.sol\":2396:2408  _accountName */\n      dup3\n        /* \"loyaltyprg.sol\":2380:2413  CustomerAccount(_accountName, 20) */\n      dup2\n      mstore\n      0x20\n      add\n        /* \"loyaltyprg.sol\":2410:2412  20 */\n      0x14\n        /* \"loyaltyprg.sol\":2380:2413  CustomerAccount(_accountName, 20) */\n      dup2\n      mstore\n      pop\n        /* \"loyaltyprg.sol\":2349:2365  customerAccounts */\n      0x06\n        /* \"loyaltyprg.sol\":2349:2377  customerAccounts[msg.sender] */\n      0x00\n        /* \"loyaltyprg.sol\":2366:2376  msg.sender */\n      caller\n        /* \"loyaltyprg.sol\":2349:2377  customerAccounts[msg.sender] */\n      0xffffffffffffffffffffffffffffffffffffffff\n      and\n      0xffffffffffffffffffffffffffffffffffffffff\n      and\n      dup2\n      mstore\n      0x20\n      add\n      swap1\n      dup2\n      mstore\n      0x20\n      add\n      0x00\n      keccak256\n        /* \"loyaltyprg.sol\":2349:2413  customerAccounts[msg.sender] = CustomerAccount(_accountName, 20) */\n      0x00\n      dup3\n      add\n      mload\n      dup2\n      0x00\n      add\n      swap1\n      dup2\n      tag_113\n      swap2\n      swap1\n      tag_96\n      jump\t// in\n    tag_113:\n      pop\n      0x20\n      dup3\n      add\n      mload\n      dup2\n      0x01\n      add\n      sstore\n      swap1\n      pop\n      pop\n        /* \"loyaltyprg.sol\":2121:2452  function createCustomerAccount(string memory _accountName) public {... */\n      pop\n      jump\t// out\n        /* \"loyaltyprg.sol\":2725:3111  function awardLoyaltyPoints(address customer, int256 _purchaseamt) public {... */\n    tag_47:\n        /* \"loyaltyprg.sol\":2833:2834  0 */\n      0x00\n        /* \"loyaltyprg.sol\":2818:2830  _purchaseamt */\n      dup2\n        /* \"loyaltyprg.sol\":2818:2834  _purchaseamt > 0 */\n      sgt\n        /* \"loyaltyprg.sol\":2810:2877  require(_purchaseamt > 0, \"Purchase amount must be greater than 0\") */\n      tag_115\n      jumpi\n      mload(0x40)\n      0x08c379a000000000000000000000000000000000000000000000000000000000\n      dup2\n      mstore\n      0x04\n      add\n      tag_116\n      swap1\n      tag_117\n      jump\t// in\n    tag_116:\n      mload(0x40)\n      dup1\n      swap2\n      sub\n      swap1\n      revert\n    tag_115:\n        /* \"loyaltyprg.sol\":2918:2922  this */\n      address\n        /* \"loyaltyprg.sol\":2896:2923  msg.sender == address(this) */\n      0xffffffffffffffffffffffffffffffffffffffff\n      and\n        /* \"loyaltyprg.sol\":2896:2906  msg.sender */\n      caller\n        /* \"loyaltyprg.sol\":2896:2923  msg.sender == address(this) */\n      0xffffffffffffffffffffffffffffffffffffffff\n      and\n      eq\n        /* \"loyaltyprg.sol\":2888:2951  require(msg.sender == address(this), \"Merchant not registered\") */\n      tag_118\n      jumpi\n      mload(0x40)\n      0x08c379a000000000000000000000000000000000000000000000000000000000\n      dup2\n      mstore\n      0x04\n      add\n      tag_119\n      swap1\n      tag_120\n      jump\t// in\n    tag_119:\n      mload(0x40)\n      dup1\n      swap2\n      sub\n      swap1\n      revert\n    tag_118:\n        /* \"loyaltyprg.sol\":2962:2982  uint256 pointsEarned */\n      0x00\n        /* \"loyaltyprg.sol\":3023:3036  loyaltypoints */\n      sload(0x02)\n        /* \"loyaltyprg.sol\":3009:3020  purchaseamt */\n      sload(0x01)\n        /* \"loyaltyprg.sol\":2993:3005  _purchaseamt */\n      dup4\n        /* \"loyaltyprg.sol\":2985:3020  uint256(_purchaseamt) / purchaseamt */\n      tag_121\n      swap2\n      swap1\n      tag_122\n      jump\t// in\n    tag_121:\n        /* \"loyaltyprg.sol\":2985:3036  uint256(_purchaseamt) / purchaseamt * loyaltypoints */\n      tag_123\n      swap2\n      swap1\n      tag_124\n      jump\t// in\n    tag_123:\n        /* \"loyaltyprg.sol\":2962:3036  uint256 pointsEarned = uint256(_purchaseamt) / purchaseamt * loyaltypoints */\n      swap1\n      pop\n        /* \"loyaltyprg.sol\":3091:3103  pointsEarned */\n      dup1\n        /* \"loyaltyprg.sol\":3047:3063  customerAccounts */\n      0x06\n        /* \"loyaltyprg.sol\":3047:3073  customerAccounts[customer] */\n      0x00\n        /* \"loyaltyprg.sol\":3064:3072  customer */\n      dup6\n        /* \"loyaltyprg.sol\":3047:3073  customerAccounts[customer] */\n      0xffffffffffffffffffffffffffffffffffffffff\n      and\n      0xffffffffffffffffffffffffffffffffffffffff\n      and\n      dup2\n      mstore\n      0x20\n      add\n      swap1\n      dup2\n      mstore\n      0x20\n      add\n      0x00\n      keccak256\n        /* \"loyaltyprg.sol\":3047:3087  customerAccounts[customer].balancepoints */\n      0x01\n      add\n      0x00\n        /* \"loyaltyprg.sol\":3047:3103  customerAccounts[customer].balancepoints += pointsEarned */\n      dup3\n      dup3\n      sload\n      tag_125\n      swap2\n      swap1\n      tag_126\n      jump\t// in\n    tag_125:\n      swap3\n      pop\n      pop\n      dup2\n      swap1\n      sstore\n      pop\n        /* \"loyaltyprg.sol\":2799:3111  {... */\n      pop\n        /* \"loyaltyprg.sol\":2725:3111  function awardLoyaltyPoints(address customer, int256 _purchaseamt) public {... */\n      pop\n      pop\n      jump\t// out\n        /* \"loyaltyprg.sol\":528:551  Reward[] public rewards */\n    tag_50:\n      0x03\n      dup2\n      dup2\n      sload\n      dup2\n      lt\n      tag_127\n      jumpi\n      0x00\n      dup1\n      revert\n    tag_127:\n      swap1\n      0x00\n      mstore\n      keccak256(0x00, 0x20)\n      swap1\n      0x02\n      mul\n      add\n      0x00\n      swap2\n      pop\n      swap1\n      pop\n      dup1\n      0x00\n      add\n      dup1\n      sload\n      tag_129\n      swap1\n      tag_98\n      jump\t// in\n    tag_129:\n      dup1\n      0x1f\n      add\n      0x20\n      dup1\n      swap2\n      div\n      mul\n      0x20\n      add\n      mload(0x40)\n      swap1\n      dup2\n      add\n      0x40\n      mstore\n      dup1\n      swap3\n      swap2\n      swap1\n      dup2\n      dup2\n      mstore\n      0x20\n      add\n      dup3\n      dup1\n      sload\n      tag_130\n      swap1\n      tag_98\n      jump\t// in\n    tag_130:\n      dup1\n      iszero\n      tag_131\n      jumpi\n      dup1\n      0x1f\n      lt\n      tag_132\n      jumpi\n      0x0100\n      dup1\n      dup4\n      sload\n      div\n      mul\n      dup4\n      mstore\n      swap2\n      0x20\n      add\n      swap2\n      jump(tag_131)\n    tag_132:\n      dup3\n      add\n      swap2\n      swap1\n      0x00\n      mstore\n      keccak256(0x00, 0x20)\n      swap1\n    tag_133:\n      dup2\n      sload\n      dup2\n      mstore\n      swap1\n      0x01\n      add\n      swap1\n      0x20\n      add\n      dup1\n      dup4\n      gt\n      tag_133\n      jumpi\n      dup3\n      swap1\n      sub\n      0x1f\n      and\n      dup3\n      add\n      swap2\n    tag_131:\n      pop\n      pop\n      pop\n      pop\n      pop\n      swap1\n      dup1\n      0x01\n      add\n      sload\n      swap1\n      pop\n      dup3\n      jump\t// out\n        /* \"loyaltyprg.sol\":2520:2648  function checkBalancePoints() public view returns (uint256) {... */\n    tag_53:\n        /* \"loyaltyprg.sol\":2571:2578  uint256 */\n      0x00\n        /* \"loyaltyprg.sol\":2598:2614  customerAccounts */\n      0x06\n        /* \"loyaltyprg.sol\":2598:2626  customerAccounts[msg.sender] */\n      0x00\n        /* \"loyaltyprg.sol\":2615:2625  msg.sender */\n      caller\n        /* \"loyaltyprg.sol\":2598:2626  customerAccounts[msg.sender] */\n      0xffffffffffffffffffffffffffffffffffffffff\n      and\n      0xffffffffffffffffffffffffffffffffffffffff\n      and\n      dup2\n      mstore\n      0x20\n      add\n      swap1\n      dup2\n      mstore\n      0x20\n      add\n      0x00\n      keccak256\n        /* \"loyaltyprg.sol\":2598:2640  customerAccounts[msg.sender].balancepoints */\n      0x01\n      add\n      sload\n        /* \"loyaltyprg.sol\":2591:2640  return customerAccounts[msg.sender].balancepoints */\n      swap1\n      pop\n        /* \"loyaltyprg.sol\":2520:2648  function checkBalancePoints() public view returns (uint256) {... */\n      swap1\n      jump\t// out\n        /* \"loyaltyprg.sol\":172:198  uint256 public purchaseamt */\n    tag_56:\n      sload(0x01)\n      dup2\n      jump\t// out\n        /* \"#utility.yul\":7:82   */\n    tag_135:\n        /* \"#utility.yul\":40:46   */\n      0x00\n        /* \"#utility.yul\":73:75   */\n      0x40\n        /* \"#utility.yul\":67:76   */\n      mload\n        /* \"#utility.yul\":57:76   */\n      swap1\n      pop\n        /* \"#utility.yul\":7:82   */\n      swap1\n      jump\t// out\n        /* \"#utility.yul\":88:205   */\n    tag_136:\n        /* \"#utility.yul\":197:198   */\n      0x00\n        /* \"#utility.yul\":194:195   */\n      dup1\n        /* \"#utility.yul\":187:199   */\n      revert\n        /* \"#utility.yul\":211:328   */\n    tag_137:\n        /* \"#utility.yul\":320:321   */\n      0x00\n        /* \"#utility.yul\":317:318   */\n      dup1\n        /* \"#utility.yul\":310:322   */\n      revert\n        /* \"#utility.yul\":334:411   */\n    tag_138:\n        /* \"#utility.yul\":371:378   */\n      0x00\n        /* \"#utility.yul\":400:405   */\n      dup2\n        /* \"#utility.yul\":389:405   */\n      swap1\n      pop\n        /* \"#utility.yul\":334:411   */\n      swap2\n      swap1\n      pop\n      jump\t// out\n        /* \"#utility.yul\":417:539   */\n    tag_139:\n        /* \"#utility.yul\":490:514   */\n      tag_203\n        /* \"#utility.yul\":508:513   */\n      dup2\n        /* \"#utility.yul\":490:514   */\n      tag_138\n      jump\t// in\n    tag_203:\n        /* \"#utility.yul\":483:488   */\n      dup2\n        /* \"#utility.yul\":480:515   */\n      eq\n        /* \"#utility.yul\":470:533   */\n      tag_204\n      jumpi\n        /* \"#utility.yul\":529:530   */\n      0x00\n        /* \"#utility.yul\":526:527   */\n      dup1\n        /* \"#utility.yul\":519:531   */\n      revert\n        /* \"#utility.yul\":470:533   */\n    tag_204:\n        /* \"#utility.yul\":417:539   */\n      pop\n      jump\t// out\n        /* \"#utility.yul\":545:684   */\n    tag_140:\n        /* \"#utility.yul\":591:596   */\n      0x00\n        /* \"#utility.yul\":629:635   */\n      dup2\n        /* \"#utility.yul\":616:636   */\n      calldataload\n        /* \"#utility.yul\":607:636   */\n      swap1\n      pop\n        /* \"#utility.yul\":645:678   */\n      tag_206\n        /* \"#utility.yul\":672:677   */\n      dup2\n        /* \"#utility.yul\":645:678   */\n      tag_139\n      jump\t// in\n    tag_206:\n        /* \"#utility.yul\":545:684   */\n      swap3\n      swap2\n      pop\n      pop\n      jump\t// out\n        /* \"#utility.yul\":690:1019   */\n    tag_17:\n        /* \"#utility.yul\":749:755   */\n      0x00\n        /* \"#utility.yul\":798:800   */\n      0x20\n        /* \"#utility.yul\":786:795   */\n      dup3\n        /* \"#utility.yul\":777:784   */\n      dup5\n        /* \"#utility.yul\":773:796   */\n      sub\n        /* \"#utility.yul\":769:801   */\n      slt\n        /* \"#utility.yul\":766:885   */\n      iszero\n      tag_208\n      jumpi\n        /* \"#utility.yul\":804:883   */\n      tag_209\n      tag_136\n      jump\t// in\n    tag_209:\n        /* \"#utility.yul\":766:885   */\n    tag_208:\n        /* \"#utility.yul\":924:925   */\n      0x00\n        /* \"#utility.yul\":949:1002   */\n      tag_210\n        /* \"#utility.yul\":994:1001   */\n      dup5\n        /* \"#utility.yul\":985:991   */\n      dup3\n        /* \"#utility.yul\":974:983   */\n      dup6\n        /* \"#utility.yul\":970:992   */\n      add\n        /* \"#utility.yul\":949:1002   */\n      tag_140\n      jump\t// in\n    tag_210:\n        /* \"#utility.yul\":939:1002   */\n      swap2\n      pop\n        /* \"#utility.yul\":895:1012   */\n      pop\n        /* \"#utility.yul\":690:1019   */\n      swap3\n      swap2\n      pop\n      pop\n      jump\t// out\n        /* \"#utility.yul\":1025:1143   */\n    tag_141:\n        /* \"#utility.yul\":1112:1136   */\n      tag_212\n        /* \"#utility.yul\":1130:1135   */\n      dup2\n        /* \"#utility.yul\":1112:1136   */\n      tag_138\n      jump\t// in\n    tag_212:\n        /* \"#utility.yul\":1107:1110   */\n      dup3\n        /* \"#utility.yul\":1100:1137   */\n      mstore\n        /* \"#utility.yul\":1025:1143   */\n      pop\n      pop\n      jump\t// out\n        /* \"#utility.yul\":1149:1371   */\n    tag_22:\n        /* \"#utility.yul\":1242:1246   */\n      0x00\n        /* \"#utility.yul\":1280:1282   */\n      0x20\n        /* \"#utility.yul\":1269:1278   */\n      dup3\n        /* \"#utility.yul\":1265:1283   */\n      add\n        /* \"#utility.yul\":1257:1283   */\n      swap1\n      pop\n        /* \"#utility.yul\":1293:1364   */\n      tag_214\n        /* \"#utility.yul\":1361:1362   */\n      0x00\n        /* \"#utility.yul\":1350:1359   */\n      dup4\n        /* \"#utility.yul\":1346:1363   */\n      add\n        /* \"#utility.yul\":1337:1343   */\n      dup5\n        /* \"#utility.yul\":1293:1364   */\n      tag_141\n      jump\t// in\n    tag_214:\n        /* \"#utility.yul\":1149:1371   */\n      swap3\n      swap2\n      pop\n      pop\n      jump\t// out\n        /* \"#utility.yul\":1377:1494   */\n    tag_142:\n        /* \"#utility.yul\":1486:1487   */\n      0x00\n        /* \"#utility.yul\":1483:1484   */\n      dup1\n        /* \"#utility.yul\":1476:1488   */\n      revert\n        /* \"#utility.yul\":1500:1617   */\n    tag_143:\n        /* \"#utility.yul\":1609:1610   */\n      0x00\n        /* \"#utility.yul\":1606:1607   */\n      dup1\n        /* \"#utility.yul\":1599:1611   */\n      revert\n        /* \"#utility.yul\":1623:1725   */\n    tag_144:\n        /* \"#utility.yul\":1664:1670   */\n      0x00\n        /* \"#utility.yul\":1715:1717   */\n      0x1f\n        /* \"#utility.yul\":1711:1718   */\n      not\n        /* \"#utility.yul\":1706:1708   */\n      0x1f\n        /* \"#utility.yul\":1699:1704   */\n      dup4\n        /* \"#utility.yul\":1695:1709   */\n      add\n        /* \"#utility.yul\":1691:1719   */\n      and\n        /* \"#utility.yul\":1681:1719   */\n      swap1\n      pop\n        /* \"#utility.yul\":1623:1725   */\n      swap2\n      swap1\n      pop\n      jump\t// out\n        /* \"#utility.yul\":1731:1911   */\n    tag_145:\n        /* \"#utility.yul\":1779:1856   */\n      0x4e487b7100000000000000000000000000000000000000000000000000000000\n        /* \"#utility.yul\":1776:1777   */\n      0x00\n        /* \"#utility.yul\":1769:1857   */\n      mstore\n        /* \"#utility.yul\":1876:1880   */\n      0x41\n        /* \"#utility.yul\":1873:1874   */\n      0x04\n        /* \"#utility.yul\":1866:1881   */\n      mstore\n        /* \"#utility.yul\":1900:1904   */\n      0x24\n        /* \"#utility.yul\":1897:1898   */\n      0x00\n        /* \"#utility.yul\":1890:1905   */\n      revert\n        /* \"#utility.yul\":1917:2198   */\n    tag_146:\n        /* \"#utility.yul\":2000:2027   */\n      tag_220\n        /* \"#utility.yul\":2022:2026   */\n      dup3\n        /* \"#utility.yul\":2000:2027   */\n      tag_144\n      jump\t// in\n    tag_220:\n        /* \"#utility.yul\":1992:1998   */\n      dup2\n        /* \"#utility.yul\":1988:2028   */\n      add\n        /* \"#utility.yul\":2130:2136   */\n      dup2\n        /* \"#utility.yul\":2118:2128   */\n      dup2\n        /* \"#utility.yul\":2115:2137   */\n      lt\n        /* \"#utility.yul\":2094:2112   */\n      0xffffffffffffffff\n        /* \"#utility.yul\":2082:2092   */\n      dup3\n        /* \"#utility.yul\":2079:2113   */\n      gt\n        /* \"#utility.yul\":2076:2138   */\n      or\n        /* \"#utility.yul\":2073:2161   */\n      iszero\n      tag_221\n      jumpi\n        /* \"#utility.yul\":2141:2159   */\n      tag_222\n      tag_145\n      jump\t// in\n    tag_222:\n        /* \"#utility.yul\":2073:2161   */\n    tag_221:\n        /* \"#utility.yul\":2181:2191   */\n      dup1\n        /* \"#utility.yul\":2177:2179   */\n      0x40\n        /* \"#utility.yul\":2170:2192   */\n      mstore\n        /* \"#utility.yul\":1960:2198   */\n      pop\n        /* \"#utility.yul\":1917:2198   */\n      pop\n      pop\n      jump\t// out\n        /* \"#utility.yul\":2204:2333   */\n    tag_147:\n        /* \"#utility.yul\":2238:2244   */\n      0x00\n        /* \"#utility.yul\":2265:2285   */\n      tag_224\n      tag_135\n      jump\t// in\n    tag_224:\n        /* \"#utility.yul\":2255:2285   */\n      swap1\n      pop\n        /* \"#utility.yul\":2294:2327   */\n      tag_225\n        /* \"#utility.yul\":2322:2326   */\n      dup3\n        /* \"#utility.yul\":2314:2320   */\n      dup3\n        /* \"#utility.yul\":2294:2327   */\n      tag_146\n      jump\t// in\n    tag_225:\n        /* \"#utility.yul\":2204:2333   */\n      swap2\n      swap1\n      pop\n      jump\t// out\n        /* \"#utility.yul\":2339:2647   */\n    tag_148:\n        /* \"#utility.yul\":2401:2405   */\n      0x00\n        /* \"#utility.yul\":2491:2509   */\n      0xffffffffffffffff\n        /* \"#utility.yul\":2483:2489   */\n      dup3\n        /* \"#utility.yul\":2480:2510   */\n      gt\n        /* \"#utility.yul\":2477:2533   */\n      iszero\n      tag_227\n      jumpi\n        /* \"#utility.yul\":2513:2531   */\n      tag_228\n      tag_145\n      jump\t// in\n    tag_228:\n        /* \"#utility.yul\":2477:2533   */\n    tag_227:\n        /* \"#utility.yul\":2551:2580   */\n      tag_229\n        /* \"#utility.yul\":2573:2579   */\n      dup3\n        /* \"#utility.yul\":2551:2580   */\n      tag_144\n      jump\t// in\n    tag_229:\n        /* \"#utility.yul\":2543:2580   */\n      swap1\n      pop\n        /* \"#utility.yul\":2635:2639   */\n      0x20\n        /* \"#utility.yul\":2629:2633   */\n      dup2\n        /* \"#utility.yul\":2625:2640   */\n      add\n        /* \"#utility.yul\":2617:2640   */\n      swap1\n      pop\n        /* \"#utility.yul\":2339:2647   */\n      swap2\n      swap1\n      pop\n      jump\t// out\n        /* \"#utility.yul\":2653:2799   */\n    tag_149:\n        /* \"#utility.yul\":2750:2756   */\n      dup3\n        /* \"#utility.yul\":2745:2748   */\n      dup2\n        /* \"#utility.yul\":2740:2743   */\n      dup4\n        /* \"#utility.yul\":2727:2757   */\n      calldatacopy\n        /* \"#utility.yul\":2791:2792   */\n      0x00\n        /* \"#utility.yul\":2782:2788   */\n      dup4\n        /* \"#utility.yul\":2777:2780   */\n      dup4\n        /* \"#utility.yul\":2773:2789   */\n      add\n        /* \"#utility.yul\":2766:2793   */\n      mstore\n        /* \"#utility.yul\":2653:2799   */\n      pop\n      pop\n      pop\n      jump\t// out\n        /* \"#utility.yul\":2805:3230   */\n    tag_150:\n        /* \"#utility.yul\":2883:2888   */\n      0x00\n        /* \"#utility.yul\":2908:2974   */\n      tag_232\n        /* \"#utility.yul\":2924:2973   */\n      tag_233\n        /* \"#utility.yul\":2966:2972   */\n      dup5\n        /* \"#utility.yul\":2924:2973   */\n      tag_148\n      jump\t// in\n    tag_233:\n        /* \"#utility.yul\":2908:2974   */\n      tag_147\n      jump\t// in\n    tag_232:\n        /* \"#utility.yul\":2899:2974   */\n      swap1\n      pop\n        /* \"#utility.yul\":2997:3003   */\n      dup3\n        /* \"#utility.yul\":2990:2995   */\n      dup2\n        /* \"#utility.yul\":2983:3004   */\n      mstore\n        /* \"#utility.yul\":3035:3039   */\n      0x20\n        /* \"#utility.yul\":3028:3033   */\n      dup2\n        /* \"#utility.yul\":3024:3040   */\n      add\n        /* \"#utility.yul\":3073:3076   */\n      dup5\n        /* \"#utility.yul\":3064:3070   */\n      dup5\n        /* \"#utility.yul\":3059:3062   */\n      dup5\n        /* \"#utility.yul\":3055:3071   */\n      add\n        /* \"#utility.yul\":3052:3077   */\n      gt\n        /* \"#utility.yul\":3049:3161   */\n      iszero\n      tag_234\n      jumpi\n        /* \"#utility.yul\":3080:3159   */\n      tag_235\n      tag_143\n      jump\t// in\n    tag_235:\n        /* \"#utility.yul\":3049:3161   */\n    tag_234:\n        /* \"#utility.yul\":3170:3224   */\n      tag_236\n        /* \"#utility.yul\":3217:3223   */\n      dup5\n        /* \"#utility.yul\":3212:3215   */\n      dup3\n        /* \"#utility.yul\":3207:3210   */\n      dup6\n        /* \"#utility.yul\":3170:3224   */\n      tag_149\n      jump\t// in\n    tag_236:\n        /* \"#utility.yul\":2889:3230   */\n      pop\n        /* \"#utility.yul\":2805:3230   */\n      swap4\n      swap3\n      pop\n      pop\n      pop\n      jump\t// out\n        /* \"#utility.yul\":3250:3590   */\n    tag_151:\n        /* \"#utility.yul\":3306:3311   */\n      0x00\n        /* \"#utility.yul\":3355:3358   */\n      dup3\n        /* \"#utility.yul\":3348:3352   */\n      0x1f\n        /* \"#utility.yul\":3340:3346   */\n      dup4\n        /* \"#utility.yul\":3336:3353   */\n      add\n        /* \"#utility.yul\":3332:3359   */\n      slt\n        /* \"#utility.yul\":3322:3444   */\n      tag_238\n      jumpi\n        /* \"#utility.yul\":3363:3442   */\n      tag_239\n      tag_142\n      jump\t// in\n    tag_239:\n        /* \"#utility.yul\":3322:3444   */\n    tag_238:\n        /* \"#utility.yul\":3480:3486   */\n      dup2\n        /* \"#utility.yul\":3467:3487   */\n      calldataload\n        /* \"#utility.yul\":3505:3584   */\n      tag_240\n        /* \"#utility.yul\":3580:3583   */\n      dup5\n        /* \"#utility.yul\":3572:3578   */\n      dup3\n        /* \"#utility.yul\":3565:3569   */\n      0x20\n        /* \"#utility.yul\":3557:3563   */\n      dup7\n        /* \"#utility.yul\":3553:3570   */\n      add\n        /* \"#utility.yul\":3505:3584   */\n      tag_150\n      jump\t// in\n    tag_240:\n        /* \"#utility.yul\":3496:3584   */\n      swap2\n      pop\n        /* \"#utility.yul\":3312:3590   */\n      pop\n        /* \"#utility.yul\":3250:3590   */\n      swap3\n      swap2\n      pop\n      pop\n      jump\t// out\n        /* \"#utility.yul\":3596:4250   */\n    tag_25:\n        /* \"#utility.yul\":3674:3680   */\n      0x00\n        /* \"#utility.yul\":3682:3688   */\n      dup1\n        /* \"#utility.yul\":3731:3733   */\n      0x40\n        /* \"#utility.yul\":3719:3728   */\n      dup4\n        /* \"#utility.yul\":3710:3717   */\n      dup6\n        /* \"#utility.yul\":3706:3729   */\n      sub\n        /* \"#utility.yul\":3702:3734   */\n      slt\n        /* \"#utility.yul\":3699:3818   */\n      iszero\n      tag_242\n      jumpi\n        /* \"#utility.yul\":3737:3816   */\n      tag_243\n      tag_136\n      jump\t// in\n    tag_243:\n        /* \"#utility.yul\":3699:3818   */\n    tag_242:\n        /* \"#utility.yul\":3885:3886   */\n      0x00\n        /* \"#utility.yul\":3874:3883   */\n      dup4\n        /* \"#utility.yul\":3870:3887   */\n      add\n        /* \"#utility.yul\":3857:3888   */\n      calldataload\n        /* \"#utility.yul\":3915:3933   */\n      0xffffffffffffffff\n        /* \"#utility.yul\":3907:3913   */\n      dup2\n        /* \"#utility.yul\":3904:3934   */\n      gt\n        /* \"#utility.yul\":3901:4018   */\n      iszero\n      tag_244\n      jumpi\n        /* \"#utility.yul\":3937:4016   */\n      tag_245\n      tag_137\n      jump\t// in\n    tag_245:\n        /* \"#utility.yul\":3901:4018   */\n    tag_244:\n        /* \"#utility.yul\":4042:4105   */\n      tag_246\n        /* \"#utility.yul\":4097:4104   */\n      dup6\n        /* \"#utility.yul\":4088:4094   */\n      dup3\n        /* \"#utility.yul\":4077:4086   */\n      dup7\n        /* \"#utility.yul\":4073:4095   */\n      add\n        /* \"#utility.yul\":4042:4105   */\n      tag_151\n      jump\t// in\n    tag_246:\n        /* \"#utility.yul\":4032:4105   */\n      swap3\n      pop\n        /* \"#utility.yul\":3828:4115   */\n      pop\n        /* \"#utility.yul\":4154:4156   */\n      0x20\n        /* \"#utility.yul\":4180:4233   */\n      tag_247\n        /* \"#utility.yul\":4225:4232   */\n      dup6\n        /* \"#utility.yul\":4216:4222   */\n      dup3\n        /* \"#utility.yul\":4205:4214   */\n      dup7\n        /* \"#utility.yul\":4201:4223   */\n      add\n        /* \"#utility.yul\":4180:4233   */\n      tag_140\n      jump\t// in\n    tag_247:\n        /* \"#utility.yul\":4170:4233   */\n      swap2\n      pop\n        /* \"#utility.yul\":4125:4243   */\n      pop\n        /* \"#utility.yul\":3596:4250   */\n      swap3\n      pop\n      swap3\n      swap1\n      pop\n      jump\t// out\n        /* \"#utility.yul\":4256:4382   */\n    tag_152:\n        /* \"#utility.yul\":4293:4300   */\n      0x00\n        /* \"#utility.yul\":4333:4375   */\n      0xffffffffffffffffffffffffffffffffffffffff\n        /* \"#utility.yul\":4326:4331   */\n      dup3\n        /* \"#utility.yul\":4322:4376   */\n      and\n        /* \"#utility.yul\":4311:4376   */\n      swap1\n      pop\n        /* \"#utility.yul\":4256:4382   */\n      swap2\n      swap1\n      pop\n      jump\t// out\n        /* \"#utility.yul\":4388:4484   */\n    tag_153:\n        /* \"#utility.yul\":4425:4432   */\n      0x00\n        /* \"#utility.yul\":4454:4478   */\n      tag_250\n        /* \"#utility.yul\":4472:4477   */\n      dup3\n        /* \"#utility.yul\":4454:4478   */\n      tag_152\n      jump\t// in\n    tag_250:\n        /* \"#utility.yul\":4443:4478   */\n      swap1\n      pop\n        /* \"#utility.yul\":4388:4484   */\n      swap2\n      swap1\n      pop\n      jump\t// out\n        /* \"#utility.yul\":4490:4608   */\n    tag_154:\n        /* \"#utility.yul\":4577:4601   */\n      tag_252\n        /* \"#utility.yul\":4595:4600   */\n      dup2\n        /* \"#utility.yul\":4577:4601   */\n      tag_153\n      jump\t// in\n    tag_252:\n        /* \"#utility.yul\":4572:4575   */\n      dup3\n        /* \"#utility.yul\":4565:4602   */\n      mstore\n        /* \"#utility.yul\":4490:4608   */\n      pop\n      pop\n      jump\t// out\n        /* \"#utility.yul\":4614:4836   */\n    tag_30:\n        /* \"#utility.yul\":4707:4711   */\n      0x00\n        /* \"#utility.yul\":4745:4747   */\n      0x20\n        /* \"#utility.yul\":4734:4743   */\n      dup3\n        /* \"#utility.yul\":4730:4748   */\n      add\n        /* \"#utility.yul\":4722:4748   */\n      swap1\n      pop\n        /* \"#utility.yul\":4758:4829   */\n      tag_254\n        /* \"#utility.yul\":4826:4827   */\n      0x00\n        /* \"#utility.yul\":4815:4824   */\n      dup4\n        /* \"#utility.yul\":4811:4828   */\n      add\n        /* \"#utility.yul\":4802:4808   */\n      dup5\n        /* \"#utility.yul\":4758:4829   */\n      tag_154\n      jump\t// in\n    tag_254:\n        /* \"#utility.yul\":4614:4836   */\n      swap3\n      swap2\n      pop\n      pop\n      jump\t// out\n        /* \"#utility.yul\":4842:4941   */\n    tag_155:\n        /* \"#utility.yul\":4894:4900   */\n      0x00\n        /* \"#utility.yul\":4928:4933   */\n      dup2\n        /* \"#utility.yul\":4922:4934   */\n      mload\n        /* \"#utility.yul\":4912:4934   */\n      swap1\n      pop\n        /* \"#utility.yul\":4842:4941   */\n      swap2\n      swap1\n      pop\n      jump\t// out\n        /* \"#utility.yul\":4947:5116   */\n    tag_156:\n        /* \"#utility.yul\":5031:5042   */\n      0x00\n        /* \"#utility.yul\":5065:5071   */\n      dup3\n        /* \"#utility.yul\":5060:5063   */\n      dup3\n        /* \"#utility.yul\":5053:5072   */\n      mstore\n        /* \"#utility.yul\":5105:5109   */\n      0x20\n        /* \"#utility.yul\":5100:5103   */\n      dup3\n        /* \"#utility.yul\":5096:5110   */\n      add\n        /* \"#utility.yul\":5081:5110   */\n      swap1\n      pop\n        /* \"#utility.yul\":4947:5116   */\n      swap3\n      swap2\n      pop\n      pop\n      jump\t// out\n        /* \"#utility.yul\":5122:5368   */\n    tag_157:\n        /* \"#utility.yul\":5203:5204   */\n      0x00\n        /* \"#utility.yul\":5213:5326   */\n    tag_258:\n        /* \"#utility.yul\":5227:5233   */\n      dup4\n        /* \"#utility.yul\":5224:5225   */\n      dup2\n        /* \"#utility.yul\":5221:5234   */\n      lt\n        /* \"#utility.yul\":5213:5326   */\n      iszero\n      tag_260\n      jumpi\n        /* \"#utility.yul\":5312:5313   */\n      dup1\n        /* \"#utility.yul\":5307:5310   */\n      dup3\n        /* \"#utility.yul\":5303:5314   */\n      add\n        /* \"#utility.yul\":5297:5315   */\n      mload\n        /* \"#utility.yul\":5293:5294   */\n      dup2\n        /* \"#utility.yul\":5288:5291   */\n      dup5\n        /* \"#utility.yul\":5284:5295   */\n      add\n        /* \"#utility.yul\":5277:5316   */\n      mstore\n        /* \"#utility.yul\":5249:5251   */\n      0x20\n        /* \"#utility.yul\":5246:5247   */\n      dup2\n        /* \"#utility.yul\":5242:5252   */\n      add\n        /* \"#utility.yul\":5237:5252   */\n      swap1\n      pop\n        /* \"#utility.yul\":5213:5326   */\n      jump(tag_258)\n    tag_260:\n        /* \"#utility.yul\":5360:5361   */\n      0x00\n        /* \"#utility.yul\":5351:5357   */\n      dup5\n        /* \"#utility.yul\":5346:5349   */\n      dup5\n        /* \"#utility.yul\":5342:5358   */\n      add\n        /* \"#utility.yul\":5335:5362   */\n      mstore\n        /* \"#utility.yul\":5184:5368   */\n      pop\n        /* \"#utility.yul\":5122:5368   */\n      pop\n      pop\n      pop\n      jump\t// out\n        /* \"#utility.yul\":5374:5751   */\n    tag_158:\n        /* \"#utility.yul\":5462:5465   */\n      0x00\n        /* \"#utility.yul\":5490:5529   */\n      tag_262\n        /* \"#utility.yul\":5523:5528   */\n      dup3\n        /* \"#utility.yul\":5490:5529   */\n      tag_155\n      jump\t// in\n    tag_262:\n        /* \"#utility.yul\":5545:5616   */\n      tag_263\n        /* \"#utility.yul\":5609:5615   */\n      dup2\n        /* \"#utility.yul\":5604:5607   */\n      dup6\n        /* \"#utility.yul\":5545:5616   */\n      tag_156\n      jump\t// in\n    tag_263:\n        /* \"#utility.yul\":5538:5616   */\n      swap4\n      pop\n        /* \"#utility.yul\":5625:5690   */\n      tag_264\n        /* \"#utility.yul\":5683:5689   */\n      dup2\n        /* \"#utility.yul\":5678:5681   */\n      dup6\n        /* \"#utility.yul\":5671:5675   */\n      0x20\n        /* \"#utility.yul\":5664:5669   */\n      dup7\n        /* \"#utility.yul\":5660:5676   */\n      add\n        /* \"#utility.yul\":5625:5690   */\n      tag_157\n      jump\t// in\n    tag_264:\n        /* \"#utility.yul\":5715:5744   */\n      tag_265\n        /* \"#utility.yul\":5737:5743   */\n      dup2\n        /* \"#utility.yul\":5715:5744   */\n      tag_144\n      jump\t// in\n    tag_265:\n        /* \"#utility.yul\":5710:5713   */\n      dup5\n        /* \"#utility.yul\":5706:5745   */\n      add\n        /* \"#utility.yul\":5699:5745   */\n      swap2\n      pop\n        /* \"#utility.yul\":5466:5751   */\n      pop\n        /* \"#utility.yul\":5374:5751   */\n      swap3\n      swap2\n      pop\n      pop\n      jump\t// out\n        /* \"#utility.yul\":5757:6180   */\n    tag_34:\n        /* \"#utility.yul\":5898:5902   */\n      0x00\n        /* \"#utility.yul\":5936:5938   */\n      0x40\n        /* \"#utility.yul\":5925:5934   */\n      dup3\n        /* \"#utility.yul\":5921:5939   */\n      add\n        /* \"#utility.yul\":5913:5939   */\n      swap1\n      pop\n        /* \"#utility.yul\":5985:5994   */\n      dup2\n        /* \"#utility.yul\":5979:5983   */\n      dup2\n        /* \"#utility.yul\":5975:5995   */\n      sub\n        /* \"#utility.yul\":5971:5972   */\n      0x00\n        /* \"#utility.yul\":5960:5969   */\n      dup4\n        /* \"#utility.yul\":5956:5973   */\n      add\n        /* \"#utility.yul\":5949:5996   */\n      mstore\n        /* \"#utility.yul\":6013:6091   */\n      tag_267\n        /* \"#utility.yul\":6086:6090   */\n      dup2\n        /* \"#utility.yul\":6077:6083   */\n      dup6\n        /* \"#utility.yul\":6013:6091   */\n      tag_158\n      jump\t// in\n    tag_267:\n        /* \"#utility.yul\":6005:6091   */\n      swap1\n      pop\n        /* \"#utility.yul\":6101:6173   */\n      tag_268\n        /* \"#utility.yul\":6169:6171   */\n      0x20\n        /* \"#utility.yul\":6158:6167   */\n      dup4\n        /* \"#utility.yul\":6154:6172   */\n      add\n        /* \"#utility.yul\":6145:6151   */\n      dup5\n        /* \"#utility.yul\":6101:6173   */\n      tag_141\n      jump\t// in\n    tag_268:\n        /* \"#utility.yul\":5757:6180   */\n      swap4\n      swap3\n      pop\n      pop\n      pop\n      jump\t// out\n        /* \"#utility.yul\":6186:6308   */\n    tag_159:\n        /* \"#utility.yul\":6259:6283   */\n      tag_270\n        /* \"#utility.yul\":6277:6282   */\n      dup2\n        /* \"#utility.yul\":6259:6283   */\n      tag_153\n      jump\t// in\n    tag_270:\n        /* \"#utility.yul\":6252:6257   */\n      dup2\n        /* \"#utility.yul\":6249:6284   */\n      eq\n        /* \"#utility.yul\":6239:6302   */\n      tag_271\n      jumpi\n        /* \"#utility.yul\":6298:6299   */\n      0x00\n        /* \"#utility.yul\":6295:6296   */\n      dup1\n        /* \"#utility.yul\":6288:6300   */\n      revert\n        /* \"#utility.yul\":6239:6302   */\n    tag_271:\n        /* \"#utility.yul\":6186:6308   */\n      pop\n      jump\t// out\n        /* \"#utility.yul\":6314:6453   */\n    tag_160:\n        /* \"#utility.yul\":6360:6365   */\n      0x00\n        /* \"#utility.yul\":6398:6404   */\n      dup2\n        /* \"#utility.yul\":6385:6405   */\n      calldataload\n        /* \"#utility.yul\":6376:6405   */\n      swap1\n      pop\n        /* \"#utility.yul\":6414:6447   */\n      tag_273\n        /* \"#utility.yul\":6441:6446   */\n      dup2\n        /* \"#utility.yul\":6414:6447   */\n      tag_159\n      jump\t// in\n    tag_273:\n        /* \"#utility.yul\":6314:6453   */\n      swap3\n      swap2\n      pop\n      pop\n      jump\t// out\n        /* \"#utility.yul\":6459:6788   */\n    tag_37:\n        /* \"#utility.yul\":6518:6524   */\n      0x00\n        /* \"#utility.yul\":6567:6569   */\n      0x20\n        /* \"#utility.yul\":6555:6564   */\n      dup3\n        /* \"#utility.yul\":6546:6553   */\n      dup5\n        /* \"#utility.yul\":6542:6565   */\n      sub\n        /* \"#utility.yul\":6538:6570   */\n      slt\n        /* \"#utility.yul\":6535:6654   */\n      iszero\n      tag_275\n      jumpi\n        /* \"#utility.yul\":6573:6652   */\n      tag_276\n      tag_136\n      jump\t// in\n    tag_276:\n        /* \"#utility.yul\":6535:6654   */\n    tag_275:\n        /* \"#utility.yul\":6693:6694   */\n      0x00\n        /* \"#utility.yul\":6718:6771   */\n      tag_277\n        /* \"#utility.yul\":6763:6770   */\n      dup5\n        /* \"#utility.yul\":6754:6760   */\n      dup3\n        /* \"#utility.yul\":6743:6752   */\n      dup6\n        /* \"#utility.yul\":6739:6761   */\n      add\n        /* \"#utility.yul\":6718:6771   */\n      tag_160\n      jump\t// in\n    tag_277:\n        /* \"#utility.yul\":6708:6771   */\n      swap2\n      pop\n        /* \"#utility.yul\":6664:6781   */\n      pop\n        /* \"#utility.yul\":6459:6788   */\n      swap3\n      swap2\n      pop\n      pop\n      jump\t// out\n        /* \"#utility.yul\":6794:7303   */\n    tag_42:\n        /* \"#utility.yul\":6863:6869   */\n      0x00\n        /* \"#utility.yul\":6912:6914   */\n      0x20\n        /* \"#utility.yul\":6900:6909   */\n      dup3\n        /* \"#utility.yul\":6891:6898   */\n      dup5\n        /* \"#utility.yul\":6887:6910   */\n      sub\n        /* \"#utility.yul\":6883:6915   */\n      slt\n        /* \"#utility.yul\":6880:6999   */\n      iszero\n      tag_279\n      jumpi\n        /* \"#utility.yul\":6918:6997   */\n      tag_280\n      tag_136\n      jump\t// in\n    tag_280:\n        /* \"#utility.yul\":6880:6999   */\n    tag_279:\n        /* \"#utility.yul\":7066:7067   */\n      0x00\n        /* \"#utility.yul\":7055:7064   */\n      dup3\n        /* \"#utility.yul\":7051:7068   */\n      add\n        /* \"#utility.yul\":7038:7069   */\n      calldataload\n        /* \"#utility.yul\":7096:7114   */\n      0xffffffffffffffff\n        /* \"#utility.yul\":7088:7094   */\n      dup2\n        /* \"#utility.yul\":7085:7115   */\n      gt\n        /* \"#utility.yul\":7082:7199   */\n      iszero\n      tag_281\n      jumpi\n        /* \"#utility.yul\":7118:7197   */\n      tag_282\n      tag_137\n      jump\t// in\n    tag_282:\n        /* \"#utility.yul\":7082:7199   */\n    tag_281:\n        /* \"#utility.yul\":7223:7286   */\n      tag_283\n        /* \"#utility.yul\":7278:7285   */\n      dup5\n        /* \"#utility.yul\":7269:7275   */\n      dup3\n        /* \"#utility.yul\":7258:7267   */\n      dup6\n        /* \"#utility.yul\":7254:7276   */\n      add\n        /* \"#utility.yul\":7223:7286   */\n      tag_151\n      jump\t// in\n    tag_283:\n        /* \"#utility.yul\":7213:7286   */\n      swap2\n      pop\n        /* \"#utility.yul\":7009:7296   */\n      pop\n        /* \"#utility.yul\":6794:7303   */\n      swap3\n      swap2\n      pop\n      pop\n      jump\t// out\n        /* \"#utility.yul\":7309:7385   */\n    tag_161:\n        /* \"#utility.yul\":7345:7352   */\n      0x00\n        /* \"#utility.yul\":7374:7379   */\n      dup2\n        /* \"#utility.yul\":7363:7379   */\n      swap1\n      pop\n        /* \"#utility.yul\":7309:7385   */\n      swap2\n      swap1\n      pop\n      jump\t// out\n        /* \"#utility.yul\":7391:7511   */\n    tag_162:\n        /* \"#utility.yul\":7463:7486   */\n      tag_286\n        /* \"#utility.yul\":7480:7485   */\n      dup2\n        /* \"#utility.yul\":7463:7486   */\n      tag_161\n      jump\t// in\n    tag_286:\n        /* \"#utility.yul\":7456:7461   */\n      dup2\n        /* \"#utility.yul\":7453:7487   */\n      eq\n        /* \"#utility.yul\":7443:7505   */\n      tag_287\n      jumpi\n        /* \"#utility.yul\":7501:7502   */\n      0x00\n        /* \"#utility.yul\":7498:7499   */\n      dup1\n        /* \"#utility.yul\":7491:7503   */\n      revert\n        /* \"#utility.yul\":7443:7505   */\n    tag_287:\n        /* \"#utility.yul\":7391:7511   */\n      pop\n      jump\t// out\n        /* \"#utility.yul\":7517:7654   */\n    tag_163:\n        /* \"#utility.yul\":7562:7567   */\n      0x00\n        /* \"#utility.yul\":7600:7606   */\n      dup2\n        /* \"#utility.yul\":7587:7607   */\n      calldataload\n        /* \"#utility.yul\":7578:7607   */\n      swap1\n      pop\n        /* \"#utility.yul\":7616:7648   */\n      tag_289\n        /* \"#utility.yul\":7642:7647   */\n      dup2\n        /* \"#utility.yul\":7616:7648   */\n      tag_162\n      jump\t// in\n    tag_289:\n        /* \"#utility.yul\":7517:7654   */\n      swap3\n      swap2\n      pop\n      pop\n      jump\t// out\n        /* \"#utility.yul\":7660:8132   */\n    tag_46:\n        /* \"#utility.yul\":7727:7733   */\n      0x00\n        /* \"#utility.yul\":7735:7741   */\n      dup1\n        /* \"#utility.yul\":7784:7786   */\n      0x40\n        /* \"#utility.yul\":7772:7781   */\n      dup4\n        /* \"#utility.yul\":7763:7770   */\n      dup6\n        /* \"#utility.yul\":7759:7782   */\n      sub\n        /* \"#utility.yul\":7755:7787   */\n      slt\n        /* \"#utility.yul\":7752:7871   */\n      iszero\n      tag_291\n      jumpi\n        /* \"#utility.yul\":7790:7869   */\n      tag_292\n      tag_136\n      jump\t// in\n    tag_292:\n        /* \"#utility.yul\":7752:7871   */\n    tag_291:\n        /* \"#utility.yul\":7910:7911   */\n      0x00\n        /* \"#utility.yul\":7935:7988   */\n      tag_293\n        /* \"#utility.yul\":7980:7987   */\n      dup6\n        /* \"#utility.yul\":7971:7977   */\n      dup3\n        /* \"#utility.yul\":7960:7969   */\n      dup7\n        /* \"#utility.yul\":7956:7978   */\n      add\n        /* \"#utility.yul\":7935:7988   */\n      tag_160\n      jump\t// in\n    tag_293:\n        /* \"#utility.yul\":7925:7988   */\n      swap3\n      pop\n        /* \"#utility.yul\":7881:7998   */\n      pop\n        /* \"#utility.yul\":8037:8039   */\n      0x20\n        /* \"#utility.yul\":8063:8115   */\n      tag_294\n        /* \"#utility.yul\":8107:8114   */\n      dup6\n        /* \"#utility.yul\":8098:8104   */\n      dup3\n        /* \"#utility.yul\":8087:8096   */\n      dup7\n        /* \"#utility.yul\":8083:8105   */\n      add\n        /* \"#utility.yul\":8063:8115   */\n      tag_163\n      jump\t// in\n    tag_294:\n        /* \"#utility.yul\":8053:8115   */\n      swap2\n      pop\n        /* \"#utility.yul\":8008:8125   */\n      pop\n        /* \"#utility.yul\":7660:8132   */\n      swap3\n      pop\n      swap3\n      swap1\n      pop\n      jump\t// out\n        /* \"#utility.yul\":8138:8308   */\n    tag_164:\n        /* \"#utility.yul\":8278:8300   */\n      0x496e76616c69642072657761726420696e646578000000000000000000000000\n        /* \"#utility.yul\":8274:8275   */\n      0x00\n        /* \"#utility.yul\":8266:8272   */\n      dup3\n        /* \"#utility.yul\":8262:8276   */\n      add\n        /* \"#utility.yul\":8255:8301   */\n      mstore\n        /* \"#utility.yul\":8138:8308   */\n      pop\n      jump\t// out\n        /* \"#utility.yul\":8314:8680   */\n    tag_165:\n        /* \"#utility.yul\":8456:8459   */\n      0x00\n        /* \"#utility.yul\":8477:8544   */\n      tag_297\n        /* \"#utility.yul\":8541:8543   */\n      0x14\n        /* \"#utility.yul\":8536:8539   */\n      dup4\n        /* \"#utility.yul\":8477:8544   */\n      tag_156\n      jump\t// in\n    tag_297:\n        /* \"#utility.yul\":8470:8544   */\n      swap2\n      pop\n        /* \"#utility.yul\":8553:8646   */\n      tag_298\n        /* \"#utility.yul\":8642:8645   */\n      dup3\n        /* \"#utility.yul\":8553:8646   */\n      tag_164\n      jump\t// in\n    tag_298:\n        /* \"#utility.yul\":8671:8673   */\n      0x20\n        /* \"#utility.yul\":8666:8669   */\n      dup3\n        /* \"#utility.yul\":8662:8674   */\n      add\n        /* \"#utility.yul\":8655:8674   */\n      swap1\n      pop\n        /* \"#utility.yul\":8314:8680   */\n      swap2\n      swap1\n      pop\n      jump\t// out\n        /* \"#utility.yul\":8686:9105   */\n    tag_61:\n        /* \"#utility.yul\":8852:8856   */\n      0x00\n        /* \"#utility.yul\":8890:8892   */\n      0x20\n        /* \"#utility.yul\":8879:8888   */\n      dup3\n        /* \"#utility.yul\":8875:8893   */\n      add\n        /* \"#utility.yul\":8867:8893   */\n      swap1\n      pop\n        /* \"#utility.yul\":8939:8948   */\n      dup2\n        /* \"#utility.yul\":8933:8937   */\n      dup2\n        /* \"#utility.yul\":8929:8949   */\n      sub\n        /* \"#utility.yul\":8925:8926   */\n      0x00\n        /* \"#utility.yul\":8914:8923   */\n      dup4\n        /* \"#utility.yul\":8910:8927   */\n      add\n        /* \"#utility.yul\":8903:8950   */\n      mstore\n        /* \"#utility.yul\":8967:9098   */\n      tag_300\n        /* \"#utility.yul\":9093:9097   */\n      dup2\n        /* \"#utility.yul\":8967:9098   */\n      tag_165\n      jump\t// in\n    tag_300:\n        /* \"#utility.yul\":8959:9098   */\n      swap1\n      pop\n        /* \"#utility.yul\":8686:9105   */\n      swap2\n      swap1\n      pop\n      jump\t// out\n        /* \"#utility.yul\":9111:9291   */\n    tag_64:\n        /* \"#utility.yul\":9159:9236   */\n      0x4e487b7100000000000000000000000000000000000000000000000000000000\n        /* \"#utility.yul\":9156:9157   */\n      0x00\n        /* \"#utility.yul\":9149:9237   */\n      mstore\n        /* \"#utility.yul\":9256:9260   */\n      0x32\n        /* \"#utility.yul\":9253:9254   */\n      0x04\n        /* \"#utility.yul\":9246:9261   */\n      mstore\n        /* \"#utility.yul\":9280:9284   */\n      0x24\n        /* \"#utility.yul\":9277:9278   */\n      0x00\n        /* \"#utility.yul\":9270:9285   */\n      revert\n        /* \"#utility.yul\":9297:9473   */\n    tag_166:\n        /* \"#utility.yul\":9437:9465   */\n      0x496e73756666696369656e742062616c616e6365706f696e7473000000000000\n        /* \"#utility.yul\":9433:9434   */\n      0x00\n        /* \"#utility.yul\":9425:9431   */\n      dup3\n        /* \"#utility.yul\":9421:9435   */\n      add\n        /* \"#utility.yul\":9414:9466   */\n      mstore\n        /* \"#utility.yul\":9297:9473   */\n      pop\n      jump\t// out\n        /* \"#utility.yul\":9479:9845   */\n    tag_167:\n        /* \"#utility.yul\":9621:9624   */\n      0x00\n        /* \"#utility.yul\":9642:9709   */\n      tag_304\n        /* \"#utility.yul\":9706:9708   */\n      0x1a\n        /* \"#utility.yul\":9701:9704   */\n      dup4\n        /* \"#utility.yul\":9642:9709   */\n      tag_156\n      jump\t// in\n    tag_304:\n        /* \"#utility.yul\":9635:9709   */\n      swap2\n      pop\n        /* \"#utility.yul\":9718:9811   */\n      tag_305\n        /* \"#utility.yul\":9807:9810   */\n      dup3\n        /* \"#utility.yul\":9718:9811   */\n      tag_166\n      jump\t// in\n    tag_305:\n        /* \"#utility.yul\":9836:9838   */\n      0x20\n        /* \"#utility.yul\":9831:9834   */\n      dup3\n        /* \"#utility.yul\":9827:9839   */\n      add\n        /* \"#utility.yul\":9820:9839   */\n      swap1\n      pop\n        /* \"#utility.yul\":9479:9845   */\n      swap2\n      swap1\n      pop\n      jump\t// out\n        /* \"#utility.yul\":9851:10270   */\n    tag_68:\n        /* \"#utility.yul\":10017:10021   */\n      0x00\n        /* \"#utility.yul\":10055:10057   */\n      0x20\n        /* \"#utility.yul\":10044:10053   */\n      dup3\n        /* \"#utility.yul\":10040:10058   */\n      add\n        /* \"#utility.yul\":10032:10058   */\n      swap1\n      pop\n        /* \"#utility.yul\":10104:10113   */\n      dup2\n        /* \"#utility.yul\":10098:10102   */\n      dup2\n        /* \"#utility.yul\":10094:10114   */\n      sub\n        /* \"#utility.yul\":10090:10091   */\n      0x00\n        /* \"#utility.yul\":10079:10088   */\n      dup4\n        /* \"#utility.yul\":10075:10092   */\n      add\n        /* \"#utility.yul\":10068:10115   */\n      mstore\n        /* \"#utility.yul\":10132:10263   */\n      tag_307\n        /* \"#utility.yul\":10258:10262   */\n      dup2\n        /* \"#utility.yul\":10132:10263   */\n      tag_167\n      jump\t// in\n    tag_307:\n        /* \"#utility.yul\":10124:10263   */\n      swap1\n      pop\n        /* \"#utility.yul\":9851:10270   */\n      swap2\n      swap1\n      pop\n      jump\t// out\n        /* \"#utility.yul\":10276:10456   */\n    tag_168:\n        /* \"#utility.yul\":10324:10401   */\n      0x4e487b7100000000000000000000000000000000000000000000000000000000\n        /* \"#utility.yul\":10321:10322   */\n      0x00\n        /* \"#utility.yul\":10314:10402   */\n      mstore\n        /* \"#utility.yul\":10421:10425   */\n      0x11\n        /* \"#utility.yul\":10418:10419   */\n      0x04\n        /* \"#utility.yul\":10411:10426   */\n      mstore\n        /* \"#utility.yul\":10445:10449   */\n      0x24\n        /* \"#utility.yul\":10442:10443   */\n      0x00\n        /* \"#utility.yul\":10435:10450   */\n      revert\n        /* \"#utility.yul\":10462:10656   */\n    tag_73:\n        /* \"#utility.yul\":10502:10506   */\n      0x00\n        /* \"#utility.yul\":10522:10542   */\n      tag_310\n        /* \"#utility.yul\":10540:10541   */\n      dup3\n        /* \"#utility.yul\":10522:10542   */\n      tag_138\n      jump\t// in\n    tag_310:\n        /* \"#utility.yul\":10517:10542   */\n      swap2\n      pop\n        /* \"#utility.yul\":10556:10576   */\n      tag_311\n        /* \"#utility.yul\":10574:10575   */\n      dup4\n        /* \"#utility.yul\":10556:10576   */\n      tag_138\n      jump\t// in\n    tag_311:\n        /* \"#utility.yul\":10551:10576   */\n      swap3\n      pop\n        /* \"#utility.yul\":10600:10601   */\n      dup3\n        /* \"#utility.yul\":10597:10598   */\n      dup3\n        /* \"#utility.yul\":10593:10602   */\n      sub\n        /* \"#utility.yul\":10585:10602   */\n      swap1\n      pop\n        /* \"#utility.yul\":10624:10625   */\n      dup2\n        /* \"#utility.yul\":10618:10622   */\n      dup2\n        /* \"#utility.yul\":10615:10626   */\n      gt\n        /* \"#utility.yul\":10612:10649   */\n      iszero\n      tag_312\n      jumpi\n        /* \"#utility.yul\":10629:10647   */\n      tag_313\n      tag_168\n      jump\t// in\n    tag_313:\n        /* \"#utility.yul\":10612:10649   */\n    tag_312:\n        /* \"#utility.yul\":10462:10656   */\n      swap3\n      swap2\n      pop\n      pop\n      jump\t// out\n        /* \"#utility.yul\":10662:10886   */\n    tag_169:\n        /* \"#utility.yul\":10802:10836   */\n      0x4f6e6c7920746865206f776e65722063616e2063616c6c20746869732066756e\n        /* \"#utility.yul\":10798:10799   */\n      0x00\n        /* \"#utility.yul\":10790:10796   */\n      dup3\n        /* \"#utility.yul\":10786:10800   */\n      add\n        /* \"#utility.yul\":10779:10837   */\n      mstore\n        /* \"#utility.yul\":10871:10878   */\n      0x6374696f6e000000000000000000000000000000000000000000000000000000\n        /* \"#utility.yul\":10866:10868   */\n      0x20\n        /* \"#utility.yul\":10858:10864   */\n      dup3\n        /* \"#utility.yul\":10854:10869   */\n      add\n        /* \"#utility.yul\":10847:10879   */\n      mstore\n        /* \"#utility.yul\":10662:10886   */\n      pop\n      jump\t// out\n        /* \"#utility.yul\":10892:11258   */\n    tag_170:\n        /* \"#utility.yul\":11034:11037   */\n      0x00\n        /* \"#utility.yul\":11055:11122   */\n      tag_316\n        /* \"#utility.yul\":11119:11121   */\n      0x25\n        /* \"#utility.yul\":11114:11117   */\n      dup4\n        /* \"#utility.yul\":11055:11122   */\n      tag_156\n      jump\t// in\n    tag_316:\n        /* \"#utility.yul\":11048:11122   */\n      swap2\n      pop\n        /* \"#utility.yul\":11131:11224   */\n      tag_317\n        /* \"#utility.yul\":11220:11223   */\n      dup3\n        /* \"#utility.yul\":11131:11224   */\n      tag_169\n      jump\t// in\n    tag_317:\n        /* \"#utility.yul\":11249:11251   */\n      0x40\n        /* \"#utility.yul\":11244:11247   */\n      dup3\n        /* \"#utility.yul\":11240:11252   */\n      add\n        /* \"#utility.yul\":11233:11252   */\n      swap1\n      pop\n        /* \"#utility.yul\":10892:11258   */\n      swap2\n      swap1\n      pop\n      jump\t// out\n        /* \"#utility.yul\":11264:11683   */\n    tag_77:\n        /* \"#utility.yul\":11430:11434   */\n      0x00\n        /* \"#utility.yul\":11468:11470   */\n      0x20\n        /* \"#utility.yul\":11457:11466   */\n      dup3\n        /* \"#utility.yul\":11453:11471   */\n      add\n        /* \"#utility.yul\":11445:11471   */\n      swap1\n      pop\n        /* \"#utility.yul\":11517:11526   */\n      dup2\n        /* \"#utility.yul\":11511:11515   */\n      dup2\n        /* \"#utility.yul\":11507:11527   */\n      sub\n        /* \"#utility.yul\":11503:11504   */\n      0x00\n        /* \"#utility.yul\":11492:11501   */\n      dup4\n        /* \"#utility.yul\":11488:11505   */\n      add\n        /* \"#utility.yul\":11481:11528   */\n      mstore\n        /* \"#utility.yul\":11545:11676   */\n      tag_319\n        /* \"#utility.yul\":11671:11675   */\n      dup2\n        /* \"#utility.yul\":11545:11676   */\n      tag_170\n      jump\t// in\n    tag_319:\n        /* \"#utility.yul\":11537:11676   */\n      swap1\n      pop\n        /* \"#utility.yul\":11264:11683   */\n      swap2\n      swap1\n      pop\n      jump\t// out\n        /* \"#utility.yul\":11689:11869   */\n    tag_171:\n        /* \"#utility.yul\":11737:11814   */\n      0x4e487b7100000000000000000000000000000000000000000000000000000000\n        /* \"#utility.yul\":11734:11735   */\n      0x00\n        /* \"#utility.yul\":11727:11815   */\n      mstore\n        /* \"#utility.yul\":11834:11838   */\n      0x22\n        /* \"#utility.yul\":11831:11832   */\n      0x04\n        /* \"#utility.yul\":11824:11839   */\n      mstore\n        /* \"#utility.yul\":11858:11862   */\n      0x24\n        /* \"#utility.yul\":11855:11856   */\n      0x00\n        /* \"#utility.yul\":11848:11863   */\n      revert\n        /* \"#utility.yul\":11875:12195   */\n    tag_98:\n        /* \"#utility.yul\":11919:11925   */\n      0x00\n        /* \"#utility.yul\":11956:11957   */\n      0x02\n        /* \"#utility.yul\":11950:11954   */\n      dup3\n        /* \"#utility.yul\":11946:11958   */\n      div\n        /* \"#utility.yul\":11936:11958   */\n      swap1\n      pop\n        /* \"#utility.yul\":12003:12004   */\n      0x01\n        /* \"#utility.yul\":11997:12001   */\n      dup3\n        /* \"#utility.yul\":11993:12005   */\n      and\n        /* \"#utility.yul\":12024:12042   */\n      dup1\n        /* \"#utility.yul\":12014:12095   */\n      tag_322\n      jumpi\n        /* \"#utility.yul\":12080:12084   */\n      0x7f\n        /* \"#utility.yul\":12072:12078   */\n      dup3\n        /* \"#utility.yul\":12068:12085   */\n      and\n        /* \"#utility.yul\":12058:12085   */\n      swap2\n      pop\n        /* \"#utility.yul\":12014:12095   */\n    tag_322:\n        /* \"#utility.yul\":12142:12144   */\n      0x20\n        /* \"#utility.yul\":12134:12140   */\n      dup3\n        /* \"#utility.yul\":12131:12145   */\n      lt\n        /* \"#utility.yul\":12111:12129   */\n      dup2\n        /* \"#utility.yul\":12108:12146   */\n      sub\n        /* \"#utility.yul\":12105:12189   */\n      tag_323\n      jumpi\n        /* \"#utility.yul\":12161:12179   */\n      tag_324\n      tag_171\n      jump\t// in\n    tag_324:\n        /* \"#utility.yul\":12105:12189   */\n    tag_323:\n        /* \"#utility.yul\":11926:12195   */\n      pop\n        /* \"#utility.yul\":11875:12195   */\n      swap2\n      swap1\n      pop\n      jump\t// out\n        /* \"#utility.yul\":12201:12348   */\n    tag_172:\n        /* \"#utility.yul\":12302:12313   */\n      0x00\n        /* \"#utility.yul\":12339:12342   */\n      dup2\n        /* \"#utility.yul\":12324:12342   */\n      swap1\n      pop\n        /* \"#utility.yul\":12201:12348   */\n      swap3\n      swap2\n      pop\n      pop\n      jump\t// out\n        /* \"#utility.yul\":12354:12498   */\n    tag_173:\n        /* \"#utility.yul\":12406:12410   */\n      0x00\n        /* \"#utility.yul\":12429:12432   */\n      dup2\n        /* \"#utility.yul\":12421:12432   */\n      swap1\n      pop\n        /* \"#utility.yul\":12452:12455   */\n      dup2\n        /* \"#utility.yul\":12449:12450   */\n      0x00\n        /* \"#utility.yul\":12442:12456   */\n      mstore\n        /* \"#utility.yul\":12486:12490   */\n      0x20\n        /* \"#utility.yul\":12483:12484   */\n      0x00\n        /* \"#utility.yul\":12473:12491   */\n      keccak256\n        /* \"#utility.yul\":12465:12491   */\n      swap1\n      pop\n        /* \"#utility.yul\":12354:12498   */\n      swap2\n      swap1\n      pop\n      jump\t// out\n        /* \"#utility.yul\":12526:13404   */\n    tag_174:\n        /* \"#utility.yul\":12631:12634   */\n      0x00\n        /* \"#utility.yul\":12668:12673   */\n      dup2\n        /* \"#utility.yul\":12662:12674   */\n      sload\n        /* \"#utility.yul\":12697:12733   */\n      tag_328\n        /* \"#utility.yul\":12723:12732   */\n      dup2\n        /* \"#utility.yul\":12697:12733   */\n      tag_98\n      jump\t// in\n    tag_328:\n        /* \"#utility.yul\":12749:12837   */\n      tag_329\n        /* \"#utility.yul\":12830:12836   */\n      dup2\n        /* \"#utility.yul\":12825:12828   */\n      dup7\n        /* \"#utility.yul\":12749:12837   */\n      tag_172\n      jump\t// in\n    tag_329:\n        /* \"#utility.yul\":12742:12837   */\n      swap5\n      pop\n        /* \"#utility.yul\":12868:12869   */\n      0x01\n        /* \"#utility.yul\":12857:12866   */\n      dup3\n        /* \"#utility.yul\":12853:12870   */\n      and\n        /* \"#utility.yul\":12884:12885   */\n      0x00\n        /* \"#utility.yul\":12879:13045   */\n      dup2\n      eq\n      tag_331\n      jumpi\n        /* \"#utility.yul\":13059:13060   */\n      0x01\n        /* \"#utility.yul\":13054:13398   */\n      dup2\n      eq\n      tag_332\n      jumpi\n        /* \"#utility.yul\":12846:13398   */\n      jump(tag_330)\n        /* \"#utility.yul\":12879:13045   */\n    tag_331:\n        /* \"#utility.yul\":12963:12967   */\n      0xff\n        /* \"#utility.yul\":12959:12968   */\n      not\n        /* \"#utility.yul\":12948:12957   */\n      dup4\n        /* \"#utility.yul\":12944:12969   */\n      and\n        /* \"#utility.yul\":12939:12942   */\n      dup7\n        /* \"#utility.yul\":12932:12970   */\n      mstore\n        /* \"#utility.yul\":13025:13031   */\n      dup2\n        /* \"#utility.yul\":13018:13032   */\n      iszero\n        /* \"#utility.yul\":13011:13033   */\n      iszero\n        /* \"#utility.yul\":13003:13009   */\n      dup3\n        /* \"#utility.yul\":12999:13034   */\n      mul\n        /* \"#utility.yul\":12994:12997   */\n      dup7\n        /* \"#utility.yul\":12990:13035   */\n      add\n        /* \"#utility.yul\":12983:13035   */\n      swap4\n      pop\n        /* \"#utility.yul\":12879:13045   */\n      jump(tag_330)\n        /* \"#utility.yul\":13054:13398   */\n    tag_332:\n        /* \"#utility.yul\":13121:13162   */\n      tag_333\n        /* \"#utility.yul\":13156:13161   */\n      dup6\n        /* \"#utility.yul\":13121:13162   */\n      tag_173\n      jump\t// in\n    tag_333:\n        /* \"#utility.yul\":13184:13185   */\n      0x00\n        /* \"#utility.yul\":13198:13352   */\n    tag_334:\n        /* \"#utility.yul\":13212:13218   */\n      dup4\n        /* \"#utility.yul\":13209:13210   */\n      dup2\n        /* \"#utility.yul\":13206:13219   */\n      lt\n        /* \"#utility.yul\":13198:13352   */\n      iszero\n      tag_336\n      jumpi\n        /* \"#utility.yul\":13286:13293   */\n      dup2\n        /* \"#utility.yul\":13280:13294   */\n      sload\n        /* \"#utility.yul\":13276:13277   */\n      dup2\n        /* \"#utility.yul\":13271:13274   */\n      dup10\n        /* \"#utility.yul\":13267:13278   */\n      add\n        /* \"#utility.yul\":13260:13295   */\n      mstore\n        /* \"#utility.yul\":13336:13337   */\n      0x01\n        /* \"#utility.yul\":13327:13334   */\n      dup3\n        /* \"#utility.yul\":13323:13338   */\n      add\n        /* \"#utility.yul\":13312:13338   */\n      swap2\n      pop\n        /* \"#utility.yul\":13234:13238   */\n      0x20\n        /* \"#utility.yul\":13231:13232   */\n      dup2\n        /* \"#utility.yul\":13227:13239   */\n      add\n        /* \"#utility.yul\":13222:13239   */\n      swap1\n      pop\n        /* \"#utility.yul\":13198:13352   */\n      jump(tag_334)\n    tag_336:\n        /* \"#utility.yul\":13381:13387   */\n      dup4\n        /* \"#utility.yul\":13376:13379   */\n      dup9\n        /* \"#utility.yul\":13372:13388   */\n      add\n        /* \"#utility.yul\":13365:13388   */\n      swap6\n      pop\n        /* \"#utility.yul\":13061:13398   */\n      pop\n      pop\n        /* \"#utility.yul\":12846:13398   */\n    tag_330:\n      pop\n        /* \"#utility.yul\":12635:13404   */\n      pop\n      pop\n        /* \"#utility.yul\":12526:13404   */\n      swap3\n      swap2\n      pop\n      pop\n      jump\t// out\n        /* \"#utility.yul\":13410:13683   */\n    tag_86:\n        /* \"#utility.yul\":13541:13544   */\n      0x00\n        /* \"#utility.yul\":13563:13657   */\n      tag_338\n        /* \"#utility.yul\":13653:13656   */\n      dup3\n        /* \"#utility.yul\":13644:13650   */\n      dup5\n        /* \"#utility.yul\":13563:13657   */\n      tag_174\n      jump\t// in\n    tag_338:\n        /* \"#utility.yul\":13556:13657   */\n      swap2\n      pop\n        /* \"#utility.yul\":13674:13677   */\n      dup2\n        /* \"#utility.yul\":13667:13677   */\n      swap1\n      pop\n        /* \"#utility.yul\":13410:13683   */\n      swap3\n      swap2\n      pop\n      pop\n      jump\t// out\n        /* \"#utility.yul\":13689:13922   */\n    tag_92:\n        /* \"#utility.yul\":13728:13731   */\n      0x00\n        /* \"#utility.yul\":13751:13775   */\n      tag_340\n        /* \"#utility.yul\":13769:13774   */\n      dup3\n        /* \"#utility.yul\":13751:13775   */\n      tag_138\n      jump\t// in\n    tag_340:\n        /* \"#utility.yul\":13742:13775   */\n      swap2\n      pop\n        /* \"#utility.yul\":13797:13863   */\n      0xffffffffffffffffffffffffffffffffffffffffffffffffffffffffffffffff\n        /* \"#utility.yul\":13790:13795   */\n      dup3\n        /* \"#utility.yul\":13787:13864   */\n      sub\n        /* \"#utility.yul\":13784:13887   */\n      tag_341\n      jumpi\n        /* \"#utility.yul\":13867:13885   */\n      tag_342\n      tag_168\n      jump\t// in\n    tag_342:\n        /* \"#utility.yul\":13784:13887   */\n    tag_341:\n        /* \"#utility.yul\":13914:13915   */\n      0x01\n        /* \"#utility.yul\":13907:13912   */\n      dup3\n        /* \"#utility.yul\":13903:13916   */\n      add\n        /* \"#utility.yul\":13896:13916   */\n      swap1\n      pop\n        /* \"#utility.yul\":13689:13922   */\n      swap2\n      swap1\n      pop\n      jump\t// out\n        /* \"#utility.yul\":13928:14069   */\n    tag_175:\n        /* \"#utility.yul\":13977:13981   */\n      0x00\n        /* \"#utility.yul\":14000:14003   */\n      dup2\n        /* \"#utility.yul\":13992:14003   */\n      swap1\n      pop\n        /* \"#utility.yul\":14023:14026   */\n      dup2\n        /* \"#utility.yul\":14020:14021   */\n      0x00\n        /* \"#utility.yul\":14013:14027   */\n      mstore\n        /* \"#utility.yul\":14057:14061   */\n      0x20\n        /* \"#utility.yul\":14054:14055   */\n      0x00\n        /* \"#utility.yul\":14044:14062   */\n      keccak256\n        /* \"#utility.yul\":14036:14062   */\n      swap1\n      pop\n        /* \"#utility.yul\":13928:14069   */\n      swap2\n      swap1\n      pop\n      jump\t// out\n        /* \"#utility.yul\":14075:14168   */\n    tag_176:\n        /* \"#utility.yul\":14112:14118   */\n      0x00\n        /* \"#utility.yul\":14159:14161   */\n      0x20\n        /* \"#utility.yul\":14154:14156   */\n      0x1f\n        /* \"#utility.yul\":14147:14152   */\n      dup4\n        /* \"#utility.yul\":14143:14157   */\n      add\n        /* \"#utility.yul\":14139:14162   */\n      div\n        /* \"#utility.yul\":14129:14162   */\n      swap1\n      pop\n        /* \"#utility.yul\":14075:14168   */\n      swap2\n      swap1\n      pop\n      jump\t// out\n        /* \"#utility.yul\":14174:14281   */\n    tag_177:\n        /* \"#utility.yul\":14218:14226   */\n      0x00\n        /* \"#utility.yul\":14268:14273   */\n      dup3\n        /* \"#utility.yul\":14262:14266   */\n      dup3\n        /* \"#utility.yul\":14258:14274   */\n      shl\n        /* \"#utility.yul\":14237:14274   */\n      swap1\n      pop\n        /* \"#utility.yul\":14174:14281   */\n      swap3\n      swap2\n      pop\n      pop\n      jump\t// out\n        /* \"#utility.yul\":14287:14680   */\n    tag_178:\n        /* \"#utility.yul\":14356:14362   */\n      0x00\n        /* \"#utility.yul\":14406:14407   */\n      0x08\n        /* \"#utility.yul\":14394:14404   */\n      dup4\n        /* \"#utility.yul\":14390:14408   */\n      mul\n        /* \"#utility.yul\":14429:14526   */\n      tag_347\n        /* \"#utility.yul\":14459:14525   */\n      0xffffffffffffffffffffffffffffffffffffffffffffffffffffffffffffffff\n        /* \"#utility.yul\":14448:14457   */\n      dup3\n        /* \"#utility.yul\":14429:14526   */\n      tag_177\n      jump\t// in\n    tag_347:\n        /* \"#utility.yul\":14547:14586   */\n      tag_348\n        /* \"#utility.yul\":14577:14585   */\n      dup7\n        /* \"#utility.yul\":14566:14575   */\n      dup4\n        /* \"#utility.yul\":14547:14586   */\n      tag_177\n      jump\t// in\n    tag_348:\n        /* \"#utility.yul\":14535:14586   */\n      swap6\n      pop\n        /* \"#utility.yul\":14619:14623   */\n      dup1\n        /* \"#utility.yul\":14615:14624   */\n      not\n        /* \"#utility.yul\":14608:14613   */\n      dup5\n        /* \"#utility.yul\":14604:14625   */\n      and\n        /* \"#utility.yul\":14595:14625   */\n      swap4\n      pop\n        /* \"#utility.yul\":14668:14672   */\n      dup1\n        /* \"#utility.yul\":14658:14666   */\n      dup7\n        /* \"#utility.yul\":14654:14673   */\n      and\n        /* \"#utility.yul\":14647:14652   */\n      dup5\n        /* \"#utility.yul\":14644:14674   */\n      or\n        /* \"#utility.yul\":14634:14674   */\n      swap3\n      pop\n        /* \"#utility.yul\":14363:14680   */\n      pop\n      pop\n        /* \"#utility.yul\":14287:14680   */\n      swap4\n      swap3\n      pop\n      pop\n      pop\n      jump\t// out\n        /* \"#utility.yul\":14686:14746   */\n    tag_179:\n        /* \"#utility.yul\":14714:14717   */\n      0x00\n        /* \"#utility.yul\":14735:14740   */\n      dup2\n        /* \"#utility.yul\":14728:14740   */\n      swap1\n      pop\n        /* \"#utility.yul\":14686:14746   */\n      swap2\n      swap1\n      pop\n      jump\t// out\n        /* \"#utility.yul\":14752:14894   */\n    tag_180:\n        /* \"#utility.yul\":14802:14811   */\n      0x00\n        /* \"#utility.yul\":14835:14888   */\n      tag_351\n        /* \"#utility.yul\":14853:14887   */\n      tag_352\n        /* \"#utility.yul\":14862:14886   */\n      tag_353\n        /* \"#utility.yul\":14880:14885   */\n      dup5\n        /* \"#utility.yul\":14862:14886   */\n      tag_138\n      jump\t// in\n    tag_353:\n        /* \"#utility.yul\":14853:14887   */\n      tag_179\n      jump\t// in\n    tag_352:\n        /* \"#utility.yul\":14835:14888   */\n      tag_138\n      jump\t// in\n    tag_351:\n        /* \"#utility.yul\":14822:14888   */\n      swap1\n      pop\n        /* \"#utility.yul\":14752:14894   */\n      swap2\n      swap1\n      pop\n      jump\t// out\n        /* \"#utility.yul\":14900:14975   */\n    tag_181:\n        /* \"#utility.yul\":14943:14946   */\n      0x00\n        /* \"#utility.yul\":14964:14969   */\n      dup2\n        /* \"#utility.yul\":14957:14969   */\n      swap1\n      pop\n        /* \"#utility.yul\":14900:14975   */\n      swap2\n      swap1\n      pop\n      jump\t// out\n        /* \"#utility.yul\":14981:15250   */\n    tag_182:\n        /* \"#utility.yul\":15091:15130   */\n      tag_356\n        /* \"#utility.yul\":15122:15129   */\n      dup4\n        /* \"#utility.yul\":15091:15130   */\n      tag_180\n      jump\t// in\n    tag_356:\n        /* \"#utility.yul\":15152:15243   */\n      tag_357\n        /* \"#utility.yul\":15201:15242   */\n      tag_358\n        /* \"#utility.yul\":15225:15241   */\n      dup3\n        /* \"#utility.yul\":15201:15242   */\n      tag_181\n      jump\t// in\n    tag_358:\n        /* \"#utility.yul\":15193:15199   */\n      dup5\n        /* \"#utility.yul\":15186:15190   */\n      dup5\n        /* \"#utility.yul\":15180:15191   */\n      sload\n        /* \"#utility.yul\":15152:15243   */\n      tag_178\n      jump\t// in\n    tag_357:\n        /* \"#utility.yul\":15146:15150   */\n      dup3\n        /* \"#utility.yul\":15139:15244   */\n      sstore\n        /* \"#utility.yul\":15057:15250   */\n      pop\n        /* \"#utility.yul\":14981:15250   */\n      pop\n      pop\n      pop\n      jump\t// out\n        /* \"#utility.yul\":15256:15329   */\n    tag_183:\n        /* \"#utility.yul\":15301:15304   */\n      0x00\n        /* \"#utility.yul\":15256:15329   */\n      swap1\n      jump\t// out\n        /* \"#utility.yul\":15335:15524   */\n    tag_184:\n        /* \"#utility.yul\":15412:15444   */\n      tag_361\n      tag_183\n      jump\t// in\n    tag_361:\n        /* \"#utility.yul\":15453:15518   */\n      tag_362\n        /* \"#utility.yul\":15511:15517   */\n      dup2\n        /* \"#utility.yul\":15503:15509   */\n      dup5\n        /* \"#utility.yul\":15497:15501   */\n      dup5\n        /* \"#utility.yul\":15453:15518   */\n      tag_182\n      jump\t// in\n    tag_362:\n        /* \"#utility.yul\":15388:15524   */\n      pop\n        /* \"#utility.yul\":15335:15524   */\n      pop\n      pop\n      jump\t// out\n        /* \"#utility.yul\":15530:15716   */\n    tag_185:\n        /* \"#utility.yul\":15590:15710   */\n    tag_364:\n        /* \"#utility.yul\":15607:15610   */\n      dup2\n        /* \"#utility.yul\":15600:15605   */\n      dup2\n        /* \"#utility.yul\":15597:15611   */\n      lt\n        /* \"#utility.yul\":15590:15710   */\n      iszero\n      tag_366\n      jumpi\n        /* \"#utility.yul\":15661:15700   */\n      tag_367\n        /* \"#utility.yul\":15698:15699   */\n      0x00\n        /* \"#utility.yul\":15691:15696   */\n      dup3\n        /* \"#utility.yul\":15661:15700   */\n      tag_184\n      jump\t// in\n    tag_367:\n        /* \"#utility.yul\":15634:15635   */\n      0x01\n        /* \"#utility.yul\":15627:15632   */\n      dup2\n        /* \"#utility.yul\":15623:15636   */\n      add\n        /* \"#utility.yul\":15614:15636   */\n      swap1\n      pop\n        /* \"#utility.yul\":15590:15710   */\n      jump(tag_364)\n    tag_366:\n        /* \"#utility.yul\":15530:15716   */\n      pop\n      pop\n      jump\t// out\n        /* \"#utility.yul\":15722:16265   */\n    tag_186:\n        /* \"#utility.yul\":15823:15825   */\n      0x1f\n        /* \"#utility.yul\":15818:15821   */\n      dup3\n        /* \"#utility.yul\":15815:15826   */\n      gt\n        /* \"#utility.yul\":15812:16258   */\n      iszero\n      tag_369\n      jumpi\n        /* \"#utility.yul\":15857:15895   */\n      tag_370\n        /* \"#utility.yul\":15889:15894   */\n      dup2\n        /* \"#utility.yul\":15857:15895   */\n      tag_175\n      jump\t// in\n    tag_370:\n        /* \"#utility.yul\":15941:15970   */\n      tag_371\n        /* \"#utility.yul\":15959:15969   */\n      dup5\n        /* \"#utility.yul\":15941:15970   */\n      tag_176\n      jump\t// in\n    tag_371:\n        /* \"#utility.yul\":15931:15939   */\n      dup2\n        /* \"#utility.yul\":15927:15971   */\n      add\n        /* \"#utility.yul\":16124:16126   */\n      0x20\n        /* \"#utility.yul\":16112:16122   */\n      dup6\n        /* \"#utility.yul\":16109:16127   */\n      lt\n        /* \"#utility.yul\":16106:16155   */\n      iszero\n      tag_372\n      jumpi\n        /* \"#utility.yul\":16145:16153   */\n      dup2\n        /* \"#utility.yul\":16130:16153   */\n      swap1\n      pop\n        /* \"#utility.yul\":16106:16155   */\n    tag_372:\n        /* \"#utility.yul\":16168:16248   */\n      tag_373\n        /* \"#utility.yul\":16224:16246   */\n      tag_374\n        /* \"#utility.yul\":16242:16245   */\n      dup6\n        /* \"#utility.yul\":16224:16246   */\n      tag_176\n      jump\t// in\n    tag_374:\n        /* \"#utility.yul\":16214:16222   */\n      dup4\n        /* \"#utility.yul\":16210:16247   */\n      add\n        /* \"#utility.yul\":16197:16208   */\n      dup3\n        /* \"#utility.yul\":16168:16248   */\n      tag_185\n      jump\t// in\n    tag_373:\n        /* \"#utility.yul\":15827:16258   */\n      pop\n      pop\n        /* \"#utility.yul\":15812:16258   */\n    tag_369:\n        /* \"#utility.yul\":15722:16265   */\n      pop\n      pop\n      pop\n      jump\t// out\n        /* \"#utility.yul\":16271:16388   */\n    tag_187:\n        /* \"#utility.yul\":16325:16333   */\n      0x00\n        /* \"#utility.yul\":16375:16380   */\n      dup3\n        /* \"#utility.yul\":16369:16373   */\n      dup3\n        /* \"#utility.yul\":16365:16381   */\n      shr\n        /* \"#utility.yul\":16344:16381   */\n      swap1\n      pop\n        /* \"#utility.yul\":16271:16388   */\n      swap3\n      swap2\n      pop\n      pop\n      jump\t// out\n        /* \"#utility.yul\":16394:16563   */\n    tag_188:\n        /* \"#utility.yul\":16438:16444   */\n      0x00\n        /* \"#utility.yul\":16471:16522   */\n      tag_377\n        /* \"#utility.yul\":16519:16520   */\n      0x00\n        /* \"#utility.yul\":16515:16521   */\n      not\n        /* \"#utility.yul\":16507:16512   */\n      dup5\n        /* \"#utility.yul\":16504:16505   */\n      0x08\n        /* \"#utility.yul\":16500:16513   */\n      mul\n        /* \"#utility.yul\":16471:16522   */\n      tag_187\n      jump\t// in\n    tag_377:\n        /* \"#utility.yul\":16467:16523   */\n      not\n        /* \"#utility.yul\":16552:16556   */\n      dup1\n        /* \"#utility.yul\":16546:16550   */\n      dup4\n        /* \"#utility.yul\":16542:16557   */\n      and\n        /* \"#utility.yul\":16532:16557   */\n      swap2\n      pop\n        /* \"#utility.yul\":16445:16563   */\n      pop\n        /* \"#utility.yul\":16394:16563   */\n      swap3\n      swap2\n      pop\n      pop\n      jump\t// out\n        /* \"#utility.yul\":16568:16863   */\n    tag_189:\n        /* \"#utility.yul\":16644:16648   */\n      0x00\n        /* \"#utility.yul\":16790:16819   */\n      tag_379\n        /* \"#utility.yul\":16815:16818   */\n      dup4\n        /* \"#utility.yul\":16809:16813   */\n      dup4\n        /* \"#utility.yul\":16790:16819   */\n      tag_188\n      jump\t// in\n    tag_379:\n        /* \"#utility.yul\":16782:16819   */\n      swap2\n      pop\n        /* \"#utility.yul\":16852:16855   */\n      dup3\n        /* \"#utility.yul\":16849:16850   */\n      0x02\n        /* \"#utility.yul\":16845:16856   */\n      mul\n        /* \"#utility.yul\":16839:16843   */\n      dup3\n        /* \"#utility.yul\":16836:16857   */\n      or\n        /* \"#utility.yul\":16828:16857   */\n      swap1\n      pop\n        /* \"#utility.yul\":16568:16863   */\n      swap3\n      swap2\n      pop\n      pop\n      jump\t// out\n        /* \"#utility.yul\":16868:18263   */\n    tag_96:\n        /* \"#utility.yul\":16985:17022   */\n      tag_381\n        /* \"#utility.yul\":17018:17021   */\n      dup3\n        /* \"#utility.yul\":16985:17022   */\n      tag_155\n      jump\t// in\n    tag_381:\n        /* \"#utility.yul\":17087:17105   */\n      0xffffffffffffffff\n        /* \"#utility.yul\":17079:17085   */\n      dup2\n        /* \"#utility.yul\":17076:17106   */\n      gt\n        /* \"#utility.yul\":17073:17129   */\n      iszero\n      tag_382\n      jumpi\n        /* \"#utility.yul\":17109:17127   */\n      tag_383\n      tag_145\n      jump\t// in\n    tag_383:\n        /* \"#utility.yul\":17073:17129   */\n    tag_382:\n        /* \"#utility.yul\":17153:17191   */\n      tag_384\n        /* \"#utility.yul\":17185:17189   */\n      dup3\n        /* \"#utility.yul\":17179:17190   */\n      sload\n        /* \"#utility.yul\":17153:17191   */\n      tag_98\n      jump\t// in\n    tag_384:\n        /* \"#utility.yul\":17238:17305   */\n      tag_385\n        /* \"#utility.yul\":17298:17304   */\n      dup3\n        /* \"#utility.yul\":17290:17296   */\n      dup3\n        /* \"#utility.yul\":17284:17288   */\n      dup6\n        /* \"#utility.yul\":17238:17305   */\n      tag_186\n      jump\t// in\n    tag_385:\n        /* \"#utility.yul\":17332:17333   */\n      0x00\n        /* \"#utility.yul\":17356:17360   */\n      0x20\n        /* \"#utility.yul\":17343:17360   */\n      swap1\n      pop\n        /* \"#utility.yul\":17388:17390   */\n      0x1f\n        /* \"#utility.yul\":17380:17386   */\n      dup4\n        /* \"#utility.yul\":17377:17391   */\n      gt\n        /* \"#utility.yul\":17405:17406   */\n      0x01\n        /* \"#utility.yul\":17400:18018   */\n      dup2\n      eq\n      tag_387\n      jumpi\n        /* \"#utility.yul\":18062:18063   */\n      0x00\n        /* \"#utility.yul\":18079:18085   */\n      dup5\n        /* \"#utility.yul\":18076:18153   */\n      iszero\n      tag_388\n      jumpi\n        /* \"#utility.yul\":18128:18137   */\n      dup3\n        /* \"#utility.yul\":18123:18126   */\n      dup8\n        /* \"#utility.yul\":18119:18138   */\n      add\n        /* \"#utility.yul\":18113:18139   */\n      mload\n        /* \"#utility.yul\":18104:18139   */\n      swap1\n      pop\n        /* \"#utility.yul\":18076:18153   */\n    tag_388:\n        /* \"#utility.yul\":18179:18246   */\n      tag_389\n        /* \"#utility.yul\":18239:18245   */\n      dup6\n        /* \"#utility.yul\":18232:18237   */\n      dup3\n        /* \"#utility.yul\":18179:18246   */\n      tag_189\n      jump\t// in\n    tag_389:\n        /* \"#utility.yul\":18173:18177   */\n      dup7\n        /* \"#utility.yul\":18166:18247   */\n      sstore\n        /* \"#utility.yul\":18035:18257   */\n      pop\n        /* \"#utility.yul\":17370:18257   */\n      jump(tag_386)\n        /* \"#utility.yul\":17400:18018   */\n    tag_387:\n        /* \"#utility.yul\":17452:17456   */\n      0x1f\n        /* \"#utility.yul\":17448:17457   */\n      not\n        /* \"#utility.yul\":17440:17446   */\n      dup5\n        /* \"#utility.yul\":17436:17458   */\n      and\n        /* \"#utility.yul\":17486:17523   */\n      tag_390\n        /* \"#utility.yul\":17518:17522   */\n      dup7\n        /* \"#utility.yul\":17486:17523   */\n      tag_175\n      jump\t// in\n    tag_390:\n        /* \"#utility.yul\":17545:17546   */\n      0x00\n        /* \"#utility.yul\":17559:17767   */\n    tag_391:\n        /* \"#utility.yul\":17573:17580   */\n      dup3\n        /* \"#utility.yul\":17570:17571   */\n      dup2\n        /* \"#utility.yul\":17567:17581   */\n      lt\n        /* \"#utility.yul\":17559:17767   */\n      iszero\n      tag_393\n      jumpi\n        /* \"#utility.yul\":17652:17661   */\n      dup5\n        /* \"#utility.yul\":17647:17650   */\n      dup10\n        /* \"#utility.yul\":17643:17662   */\n      add\n        /* \"#utility.yul\":17637:17663   */\n      mload\n        /* \"#utility.yul\":17629:17635   */\n      dup3\n        /* \"#utility.yul\":17622:17664   */\n      sstore\n        /* \"#utility.yul\":17703:17704   */\n      0x01\n        /* \"#utility.yul\":17695:17701   */\n      dup3\n        /* \"#utility.yul\":17691:17705   */\n      add\n        /* \"#utility.yul\":17681:17705   */\n      swap2\n      pop\n        /* \"#utility.yul\":17750:17752   */\n      0x20\n        /* \"#utility.yul\":17739:17748   */\n      dup6\n        /* \"#utility.yul\":17735:17753   */\n      add\n        /* \"#utility.yul\":17722:17753   */\n      swap5\n      pop\n        /* \"#utility.yul\":17596:17600   */\n      0x20\n        /* \"#utility.yul\":17593:17594   */\n      dup2\n        /* \"#utility.yul\":17589:17601   */\n      add\n        /* \"#utility.yul\":17584:17601   */\n      swap1\n      pop\n        /* \"#utility.yul\":17559:17767   */\n      jump(tag_391)\n    tag_393:\n        /* \"#utility.yul\":17795:17801   */\n      dup7\n        /* \"#utility.yul\":17786:17793   */\n      dup4\n        /* \"#utility.yul\":17783:17802   */\n      lt\n        /* \"#utility.yul\":17780:17959   */\n      iszero\n      tag_394\n      jumpi\n        /* \"#utility.yul\":17853:17862   */\n      dup5\n        /* \"#utility.yul\":17848:17851   */\n      dup10\n        /* \"#utility.yul\":17844:17863   */\n      add\n        /* \"#utility.yul\":17838:17864   */\n      mload\n        /* \"#utility.yul\":17896:17944   */\n      tag_395\n        /* \"#utility.yul\":17938:17942   */\n      0x1f\n        /* \"#utility.yul\":17930:17936   */\n      dup10\n        /* \"#utility.yul\":17926:17943   */\n      and\n        /* \"#utility.yul\":17915:17924   */\n      dup3\n        /* \"#utility.yul\":17896:17944   */\n      tag_188\n      jump\t// in\n    tag_395:\n        /* \"#utility.yul\":17888:17894   */\n      dup4\n        /* \"#utility.yul\":17881:17945   */\n      sstore\n        /* \"#utility.yul\":17803:17959   */\n      pop\n        /* \"#utility.yul\":17780:17959   */\n    tag_394:\n        /* \"#utility.yul\":18005:18006   */\n      0x01\n        /* \"#utility.yul\":18001:18002   */\n      0x02\n        /* \"#utility.yul\":17993:17999   */\n      dup9\n        /* \"#utility.yul\":17989:18003   */\n      mul\n        /* \"#utility.yul\":17985:18007   */\n      add\n        /* \"#utility.yul\":17979:17983   */\n      dup9\n        /* \"#utility.yul\":17972:18008   */\n      sstore\n        /* \"#utility.yul\":17407:18018   */\n      pop\n      pop\n      pop\n        /* \"#utility.yul\":17370:18257   */\n    tag_386:\n      pop\n        /* \"#utility.yul\":16960:18263   */\n      pop\n      pop\n      pop\n        /* \"#utility.yul\":16868:18263   */\n      pop\n      pop\n      jump\t// out\n        /* \"#utility.yul\":18269:18450   */\n    tag_190:\n        /* \"#utility.yul\":18409:18442   */\n      0x437573746f6d6572206163636f756e7420616c72656164792065786973747300\n        /* \"#utility.yul\":18405:18406   */\n      0x00\n        /* \"#utility.yul\":18397:18403   */\n      dup3\n        /* \"#utility.yul\":18393:18407   */\n      add\n        /* \"#utility.yul\":18386:18443   */\n      mstore\n        /* \"#utility.yul\":18269:18450   */\n      pop\n      jump\t// out\n        /* \"#utility.yul\":18456:18822   */\n    tag_191:\n        /* \"#utility.yul\":18598:18601   */\n      0x00\n        /* \"#utility.yul\":18619:18686   */\n      tag_398\n        /* \"#utility.yul\":18683:18685   */\n      0x1f\n        /* \"#utility.yul\":18678:18681   */\n      dup4\n        /* \"#utility.yul\":18619:18686   */\n      tag_156\n      jump\t// in\n    tag_398:\n        /* \"#utility.yul\":18612:18686   */\n      swap2\n      pop\n        /* \"#utility.yul\":18695:18788   */\n      tag_399\n        /* \"#utility.yul\":18784:18787   */\n      dup3\n        /* \"#utility.yul\":18695:18788   */\n      tag_190\n      jump\t// in\n    tag_399:\n        /* \"#utility.yul\":18813:18815   */\n      0x20\n        /* \"#utility.yul\":18808:18811   */\n      dup3\n        /* \"#utility.yul\":18804:18816   */\n      add\n        /* \"#utility.yul\":18797:18816   */\n      swap1\n      pop\n        /* \"#utility.yul\":18456:18822   */\n      swap2\n      swap1\n      pop\n      jump\t// out\n        /* \"#utility.yul\":18828:19247   */\n    tag_112:\n        /* \"#utility.yul\":18994:18998   */\n      0x00\n        /* \"#utility.yul\":19032:19034   */\n      0x20\n        /* \"#utility.yul\":19021:19030   */\n      dup3\n        /* \"#utility.yul\":19017:19035   */\n      add\n        /* \"#utility.yul\":19009:19035   */\n      swap1\n      pop\n        /* \"#utility.yul\":19081:19090   */\n      dup2\n        /* \"#utility.yul\":19075:19079   */\n      dup2\n        /* \"#utility.yul\":19071:19091   */\n      sub\n        /* \"#utility.yul\":19067:19068   */\n      0x00\n        /* \"#utility.yul\":19056:19065   */\n      dup4\n        /* \"#utility.yul\":19052:19069   */\n      add\n        /* \"#utility.yul\":19045:19092   */\n      mstore\n        /* \"#utility.yul\":19109:19240   */\n      tag_401\n        /* \"#utility.yul\":19235:19239   */\n      dup2\n        /* \"#utility.yul\":19109:19240   */\n      tag_191\n      jump\t// in\n    tag_401:\n        /* \"#utility.yul\":19101:19240   */\n      swap1\n      pop\n        /* \"#utility.yul\":18828:19247   */\n      swap2\n      swap1\n      pop\n      jump\t// out\n        /* \"#utility.yul\":19253:19478   */\n    tag_192:\n        /* \"#utility.yul\":19393:19427   */\n      0x507572636861736520616d6f756e74206d757374206265206772656174657220\n        /* \"#utility.yul\":19389:19390   */\n      0x00\n        /* \"#utility.yul\":19381:19387   */\n      dup3\n        /* \"#utility.yul\":19377:19391   */\n      add\n        /* \"#utility.yul\":19370:19428   */\n      mstore\n        /* \"#utility.yul\":19462:19470   */\n      0x7468616e20300000000000000000000000000000000000000000000000000000\n        /* \"#utility.yul\":19457:19459   */\n      0x20\n        /* \"#utility.yul\":19449:19455   */\n      dup3\n        /* \"#utility.yul\":19445:19460   */\n      add\n        /* \"#utility.yul\":19438:19471   */\n      mstore\n        /* \"#utility.yul\":19253:19478   */\n      pop\n      jump\t// out\n        /* \"#utility.yul\":19484:19850   */\n    tag_193:\n        /* \"#utility.yul\":19626:19629   */\n      0x00\n        /* \"#utility.yul\":19647:19714   */\n      tag_404\n        /* \"#utility.yul\":19711:19713   */\n      0x26\n        /* \"#utility.yul\":19706:19709   */\n      dup4\n        /* \"#utility.yul\":19647:19714   */\n      tag_156\n      jump\t// in\n    tag_404:\n        /* \"#utility.yul\":19640:19714   */\n      swap2\n      pop\n        /* \"#utility.yul\":19723:19816   */\n      tag_405\n        /* \"#utility.yul\":19812:19815   */\n      dup3\n        /* \"#utility.yul\":19723:19816   */\n      tag_192\n      jump\t// in\n    tag_405:\n        /* \"#utility.yul\":19841:19843   */\n      0x40\n        /* \"#utility.yul\":19836:19839   */\n      dup3\n        /* \"#utility.yul\":19832:19844   */\n      add\n        /* \"#utility.yul\":19825:19844   */\n      swap1\n      pop\n        /* \"#utility.yul\":19484:19850   */\n      swap2\n      swap1\n      pop\n      jump\t// out\n        /* \"#utility.yul\":19856:20275   */\n    tag_117:\n        /* \"#utility.yul\":20022:20026   */\n      0x00\n        /* \"#utility.yul\":20060:20062   */\n      0x20\n        /* \"#utility.yul\":20049:20058   */\n      dup3\n        /* \"#utility.yul\":20045:20063   */\n      add\n        /* \"#utility.yul\":20037:20063   */\n      swap1\n      pop\n        /* \"#utility.yul\":20109:20118   */\n      dup2\n        /* \"#utility.yul\":20103:20107   */\n      dup2\n        /* \"#utility.yul\":20099:20119   */\n      sub\n        /* \"#utility.yul\":20095:20096   */\n      0x00\n        /* \"#utility.yul\":20084:20093   */\n      dup4\n        /* \"#utility.yul\":20080:20097   */\n      add\n        /* \"#utility.yul\":20073:20120   */\n      mstore\n        /* \"#utility.yul\":20137:20268   */\n      tag_407\n        /* \"#utility.yul\":20263:20267   */\n      dup2\n        /* \"#utility.yul\":20137:20268   */\n      tag_193\n      jump\t// in\n    tag_407:\n        /* \"#utility.yul\":20129:20268   */\n      swap1\n      pop\n        /* \"#utility.yul\":19856:20275   */\n      swap2\n      swap1\n      pop\n      jump\t// out\n        /* \"#utility.yul\":20281:20454   */\n    tag_194:\n        /* \"#utility.yul\":20421:20446   */\n      0x4d65726368616e74206e6f742072656769737465726564000000000000000000\n        /* \"#utility.yul\":20417:20418   */\n      0x00\n        /* \"#utility.yul\":20409:20415   */\n      dup3\n        /* \"#utility.yul\":20405:20419   */\n      add\n        /* \"#utility.yul\":20398:20447   */\n      mstore\n        /* \"#utility.yul\":20281:20454   */\n      pop\n      jump\t// out\n        /* \"#utility.yul\":20460:20826   */\n    tag_195:\n        /* \"#utility.yul\":20602:20605   */\n      0x00\n        /* \"#utility.yul\":20623:20690   */\n      tag_410\n        /* \"#utility.yul\":20687:20689   */\n      0x17\n        /* \"#utility.yul\":20682:20685   */\n      dup4\n        /* \"#utility.yul\":20623:20690   */\n      tag_156\n      jump\t// in\n    tag_410:\n        /* \"#utility.yul\":20616:20690   */\n      swap2\n      pop\n        /* \"#utility.yul\":20699:20792   */\n      tag_411\n        /* \"#utility.yul\":20788:20791   */\n      dup3\n        /* \"#utility.yul\":20699:20792   */\n      tag_194\n      jump\t// in\n    tag_411:\n        /* \"#utility.yul\":20817:20819   */\n      0x20\n        /* \"#utility.yul\":20812:20815   */\n      dup3\n        /* \"#utility.yul\":20808:20820   */\n      add\n        /* \"#utility.yul\":20801:20820   */\n      swap1\n      pop\n        /* \"#utility.yul\":20460:20826   */\n      swap2\n      swap1\n      pop\n      jump\t// out\n        /* \"#utility.yul\":20832:21251   */\n    tag_120:\n        /* \"#utility.yul\":20998:21002   */\n      0x00\n        /* \"#utility.yul\":21036:21038   */\n      0x20\n        /* \"#utility.yul\":21025:21034   */\n      dup3\n        /* \"#utility.yul\":21021:21039   */\n      add\n        /* \"#utility.yul\":21013:21039   */\n      swap1\n      pop\n        /* \"#utility.yul\":21085:21094   */\n      dup2\n        /* \"#utility.yul\":21079:21083   */\n      dup2\n        /* \"#utility.yul\":21075:21095   */\n      sub\n        /* \"#utility.yul\":21071:21072   */\n      0x00\n        /* \"#utility.yul\":21060:21069   */\n      dup4\n        /* \"#utility.yul\":21056:21073   */\n      add\n        /* \"#utility.yul\":21049:21096   */\n      mstore\n        /* \"#utility.yul\":21113:21244   */\n      tag_413\n        /* \"#utility.yul\":21239:21243   */\n      dup2\n        /* \"#utility.yul\":21113:21244   */\n      tag_195\n      jump\t// in\n    tag_413:\n        /* \"#utility.yul\":21105:21244   */\n      swap1\n      pop\n        /* \"#utility.yul\":20832:21251   */\n      swap2\n      swap1\n      pop\n      jump\t// out\n        /* \"#utility.yul\":21257:21437   */\n    tag_196:\n        /* \"#utility.yul\":21305:21382   */\n      0x4e487b7100000000000000000000000000000000000000000000000000000000\n        /* \"#utility.yul\":21302:21303   */\n      0x00\n        /* \"#utility.yul\":21295:21383   */\n      mstore\n        /* \"#utility.yul\":21402:21406   */\n      0x12\n        /* \"#utility.yul\":21399:21400   */\n      0x04\n        /* \"#utility.yul\":21392:21407   */\n      mstore\n        /* \"#utility.yul\":21426:21430   */\n      0x24\n        /* \"#utility.yul\":21423:21424   */\n      0x00\n        /* \"#utility.yul\":21416:21431   */\n      revert\n        /* \"#utility.yul\":21443:21628   */\n    tag_122:\n        /* \"#utility.yul\":21483:21484   */\n      0x00\n        /* \"#utility.yul\":21500:21520   */\n      tag_416\n        /* \"#utility.yul\":21518:21519   */\n      dup3\n        /* \"#utility.yul\":21500:21520   */\n      tag_138\n      jump\t// in\n    tag_416:\n        /* \"#utility.yul\":21495:21520   */\n      swap2\n      pop\n        /* \"#utility.yul\":21534:21554   */\n      tag_417\n        /* \"#utility.yul\":21552:21553   */\n      dup4\n        /* \"#utility.yul\":21534:21554   */\n      tag_138\n      jump\t// in\n    tag_417:\n        /* \"#utility.yul\":21529:21554   */\n      swap3\n      pop\n        /* \"#utility.yul\":21573:21574   */\n      dup3\n        /* \"#utility.yul\":21563:21598   */\n      tag_418\n      jumpi\n        /* \"#utility.yul\":21578:21596   */\n      tag_419\n      tag_196\n      jump\t// in\n    tag_419:\n        /* \"#utility.yul\":21563:21598   */\n    tag_418:\n        /* \"#utility.yul\":21620:21621   */\n      dup3\n        /* \"#utility.yul\":21617:21618   */\n      dup3\n        /* \"#utility.yul\":21613:21622   */\n      div\n        /* \"#utility.yul\":21608:21622   */\n      swap1\n      pop\n        /* \"#utility.yul\":21443:21628   */\n      swap3\n      swap2\n      pop\n      pop\n      jump\t// out\n        /* \"#utility.yul\":21634:22044   */\n    tag_124:\n        /* \"#utility.yul\":21674:21681   */\n      0x00\n        /* \"#utility.yul\":21697:21717   */\n      tag_421\n        /* \"#utility.yul\":21715:21716   */\n      dup3\n        /* \"#utility.yul\":21697:21717   */\n      tag_138\n      jump\t// in\n    tag_421:\n        /* \"#utility.yul\":21692:21717   */\n      swap2\n      pop\n        /* \"#utility.yul\":21731:21751   */\n      tag_422\n        /* \"#utility.yul\":21749:21750   */\n      dup4\n        /* \"#utility.yul\":21731:21751   */\n      tag_138\n      jump\t// in\n    tag_422:\n        /* \"#utility.yul\":21726:21751   */\n      swap3\n      pop\n        /* \"#utility.yul\":21786:21787   */\n      dup3\n        /* \"#utility.yul\":21783:21784   */\n      dup3\n        /* \"#utility.yul\":21779:21788   */\n      mul\n        /* \"#utility.yul\":21808:21838   */\n      tag_423\n        /* \"#utility.yul\":21826:21837   */\n      dup2\n        /* \"#utility.yul\":21808:21838   */\n      tag_138\n      jump\t// in\n    tag_423:\n        /* \"#utility.yul\":21797:21838   */\n      swap2\n      pop\n        /* \"#utility.yul\":21987:21988   */\n      dup3\n        /* \"#utility.yul\":21978:21985   */\n      dup3\n        /* \"#utility.yul\":21974:21989   */\n      div\n        /* \"#utility.yul\":21971:21972   */\n      dup5\n        /* \"#utility.yul\":21968:21990   */\n      eq\n        /* \"#utility.yul\":21948:21949   */\n      dup4\n        /* \"#utility.yul\":21941:21950   */\n      iszero\n        /* \"#utility.yul\":21921:22004   */\n      or\n        /* \"#utility.yul\":21898:22037   */\n      tag_424\n      jumpi\n        /* \"#utility.yul\":22017:22035   */\n      tag_425\n      tag_168\n      jump\t// in\n    tag_425:\n        /* \"#utility.yul\":21898:22037   */\n    tag_424:\n        /* \"#utility.yul\":21682:22044   */\n      pop\n        /* \"#utility.yul\":21634:22044   */\n      swap3\n      swap2\n      pop\n      pop\n      jump\t// out\n        /* \"#utility.yul\":22050:22241   */\n    tag_126:\n        /* \"#utility.yul\":22090:22093   */\n      0x00\n        /* \"#utility.yul\":22109:22129   */\n      tag_427\n        /* \"#utility.yul\":22127:22128   */\n      dup3\n        /* \"#utility.yul\":22109:22129   */\n      tag_138\n      jump\t// in\n    tag_427:\n        /* \"#utility.yul\":22104:22129   */\n      swap2\n      pop\n        /* \"#utility.yul\":22143:22163   */\n      tag_428\n        /* \"#utility.yul\":22161:22162   */\n      dup4\n        /* \"#utility.yul\":22143:22163   */\n      tag_138\n      jump\t// in\n    tag_428:\n        /* \"#utility.yul\":22138:22163   */\n      swap3\n      pop\n        /* \"#utility.yul\":22186:22187   */\n      dup3\n        /* \"#utility.yul\":22183:22184   */\n      dup3\n        /* \"#utility.yul\":22179:22188   */\n      add\n        /* \"#utility.yul\":22172:22188   */\n      swap1\n      pop\n        /* \"#utility.yul\":22207:22210   */\n      dup1\n        /* \"#utility.yul\":22204:22205   */\n      dup3\n        /* \"#utility.yul\":22201:22211   */\n      gt\n        /* \"#utility.yul\":22198:22234   */\n      iszero\n      tag_429\n      jumpi\n        /* \"#utility.yul\":22214:22232   */\n      tag_430\n      tag_168\n      jump\t// in\n    tag_430:\n        /* \"#utility.yul\":22198:22234   */\n    tag_429:\n        /* \"#utility.yul\":22050:22241   */\n      swap3\n      swap2\n      pop\n      pop\n      jump\t// out\n\n    auxdata: 0xa2646970667358221220dcb2b14760ec2b47255a53a8e731fae1c1029359988225d02243aeb374c8cc3b64736f6c63430008120033\n}\n",
				"bytecode": {
					"linkReferences": {},
					"object": "60806040523480156200001157600080fd5b50336000806101000a81548173ffffffffffffffffffffffffffffffffffffffff021916908373ffffffffffffffffffffffffffffffffffffffff160217905550600a6001819055506001600281905550600360405180604001604052806040518060400160405280600881526020017f52657761726420310000000000000000000000000000000000000000000000008152508152602001600a81525090806001815401808255809150506001900390600052602060002090600202016000909190919091506000820151816000019081620000ef9190620004ed565b50602082015181600101555050600360405180604001604052806040518060400160405280600881526020017f52657761726420320000000000000000000000000000000000000000000000008152508152602001601481525090806001815401808255809150506001900390600052602060002090600202016000909190919091506000820151816000019081620001899190620004ed565b5060208201518160010155505060405180604001604052806040518060400160405280600881526020017f4d65726368616e740000000000000000000000000000000000000000000000008152508152602001600081525060046000820151816000019081620001fa9190620004ed565b50602082015181600101559050506004600660003073ffffffffffffffffffffffffffffffffffffffff1673ffffffffffffffffffffffffffffffffffffffff168152602001908152602001600020600082018160000190816200025f9190620005ec565b5060018201548160010155905050620006ed565b600081519050919050565b7f4e487b7100000000000000000000000000000000000000000000000000000000600052604160045260246000fd5b7f4e487b7100000000000000000000000000000000000000000000000000000000600052602260045260246000fd5b60006002820490506001821680620002f557607f821691505b6020821081036200030b576200030a620002ad565b5b50919050565b60008190508160005260206000209050919050565b60006020601f8301049050919050565b600082821b905092915050565b600060088302620003757fffffffffffffffffffffffffffffffffffffffffffffffffffffffffffffffff8262000336565b62000381868362000336565b95508019841693508086168417925050509392505050565b6000819050919050565b6000819050919050565b6000620003ce620003c8620003c28462000399565b620003a3565b62000399565b9050919050565b6000819050919050565b620003ea83620003ad565b62000402620003f982620003d5565b84845462000343565b825550505050565b600090565b620004196200040a565b62000426818484620003df565b505050565b5b818110156200044e57620004426000826200040f565b6001810190506200042c565b5050565b601f8211156200049d57620004678162000311565b620004728462000326565b8101602085101562000482578190505b6200049a620004918562000326565b8301826200042b565b50505b505050565b600082821c905092915050565b6000620004c260001984600802620004a2565b1980831691505092915050565b6000620004dd8383620004af565b9150826002028217905092915050565b620004f88262000273565b67ffffffffffffffff8111156200051457620005136200027e565b5b620005208254620002dc565b6200052d82828562000452565b600060209050601f83116001811462000565576000841562000550578287015190505b6200055c8582620004cf565b865550620005cc565b601f198416620005758662000311565b60005b828110156200059f5784890151825560018201915060208501945060208101905062000578565b86831015620005bf5784890151620005bb601f891682620004af565b8355505b6001600288020188555050505b505050505050565b600081549050620005e581620002dc565b9050919050565b818103620005fc575050620006eb565b6200060782620005d4565b67ffffffffffffffff8111156200062357620006226200027e565b5b6200062f8254620002dc565b6200063c82828562000452565b6000601f8311600181146200067057600084156200065b578287015490505b620006678582620004cf565b865550620006e4565b601f198416620006808762000311565b96506200068d8662000311565b60005b82811015620006b75784890154825560018201915060018501945060208101905062000690565b86831015620006d75784890154620006d3601f891682620004af565b8355505b6001600288020188555050505b5050505050505b565b61169180620006fd6000396000f3fe608060405234801561001057600080fd5b50600436106100a95760003560e01c8063b2f4666611610071578063b2f4666614610141578063bcf3eec614610172578063db03954e1461018e578063f301af42146101aa578063f68e4149146101db578063ffef9e84146101f9576100a9565b806351a71b17146100ae5780636d1ff757146100ca5780637d1cf86b146100e85780638da5cb5b14610104578063a5ff765114610122575b600080fd5b6100c860048036038101906100c39190610a23565b610217565b005b6100d2610389565b6040516100df9190610a5f565b60405180910390f35b61010260048036038101906100fd9190610bc0565b61038f565b005b61010c610529565b6040516101199190610c5d565b60405180910390f35b61012a61054d565b604051610138929190610cf7565b60405180910390f35b61015b60048036038101906101569190610d53565b6105e7565b604051610169929190610cf7565b60405180910390f35b61018c60048036038101906101879190610d80565b610693565b005b6101a860048036038101906101a39190610dff565b61079f565b005b6101c460048036038101906101bf9190610a23565b6108cd565b6040516101d2929190610cf7565b60405180910390f35b6101e3610989565b6040516101f09190610a5f565b60405180910390f35b6102016109d3565b60405161020e9190610a5f565b60405180910390f35b600380549050811061025e576040517f08c379a000000000000000000000000000000000000000000000000000000000815260040161025590610e8b565b60405180910390fd5b6003818154811061027257610271610eab565b5b906000526020600020906002020160010154600660003373ffffffffffffffffffffffffffffffffffffffff1673ffffffffffffffffffffffffffffffffffffffff168152602001908152602001600020600101541015610308576040517f08c379a00000000000000000000000000000000000000000000000000000000081526004016102ff90610f26565b60405180910390fd5b6003818154811061031c5761031b610eab565b5b906000526020600020906002020160010154600660003373ffffffffffffffffffffffffffffffffffffffff1673ffffffffffffffffffffffffffffffffffffffff168152602001908152602001600020600101600082825461037f9190610f75565b9250508190555050565b60025481565b60008054906101000a900473ffffffffffffffffffffffffffffffffffffffff1673ffffffffffffffffffffffffffffffffffffffff163373ffffffffffffffffffffffffffffffffffffffff161461041d576040517f08c379a00000000000000000000000000000000000000000000000000000000081526004016104149061101b565b60405180910390fd5b6000805b6003805490508110156104bb5783805190602001206003828154811061044a57610449610eab565b5b9060005260206000209060020201600001604051610468919061113e565b6040518091039020036104a857826003828154811061048a57610489610eab565b5b906000526020600020906002020160010181905550600191506104bb565b80806104b390611155565b915050610421565b5080610524576003604051806040016040528085815260200184815250908060018154018082558091505060019003906000526020600020906002020160009091909190915060008201518160000190816105169190611349565b506020820151816001015550505b505050565b60008054906101000a900473ffffffffffffffffffffffffffffffffffffffff1681565b600480600001805461055e9061106a565b80601f016020809104026020016040519081016040528092919081815260200182805461058a9061106a565b80156105d75780601f106105ac576101008083540402835291602001916105d7565b820191906000526020600020905b8154815290600101906020018083116105ba57829003601f168201915b5050505050908060010154905082565b600660205280600052604060002060009150905080600001805461060a9061106a565b80601f01602080910402602001604051908101604052809291908181526020018280546106369061106a565b80156106835780601f1061065857610100808354040283529160200191610683565b820191906000526020600020905b81548152906001019060200180831161066657829003601f168201915b5050505050908060010154905082565b6000600660003373ffffffffffffffffffffffffffffffffffffffff1673ffffffffffffffffffffffffffffffffffffffff16815260200190815260200160002060000180546106e29061106a565b905014610724576040517f08c379a000000000000000000000000000000000000000000000000000000000815260040161071b90611467565b60405180910390fd5b60405180604001604052808281526020016014815250600660003373ffffffffffffffffffffffffffffffffffffffff1673ffffffffffffffffffffffffffffffffffffffff168152602001908152602001600020600082015181600001908161078e9190611349565b506020820151816001015590505050565b600081136107e2576040517f08c379a00000000000000000000000000000000000000000000000000000000081526004016107d9906114f9565b60405180910390fd5b3073ffffffffffffffffffffffffffffffffffffffff163373ffffffffffffffffffffffffffffffffffffffff1614610850576040517f08c379a000000000000000000000000000000000000000000000000000000000815260040161084790611565565b60405180910390fd5b60006002546001548361086391906115b4565b61086d91906115e5565b905080600660008573ffffffffffffffffffffffffffffffffffffffff1673ffffffffffffffffffffffffffffffffffffffff16815260200190815260200160002060010160008282546108c19190611627565b92505081905550505050565b600381815481106108dd57600080fd5b90600052602060002090600202016000915090508060000180546109009061106a565b80601f016020809104026020016040519081016040528092919081815260200182805461092c9061106a565b80156109795780601f1061094e57610100808354040283529160200191610979565b820191906000526020600020905b81548152906001019060200180831161095c57829003601f168201915b5050505050908060010154905082565b6000600660003373ffffffffffffffffffffffffffffffffffffffff1673ffffffffffffffffffffffffffffffffffffffff16815260200190815260200160002060010154905090565b60015481565b6000604051905090565b600080fd5b600080fd5b6000819050919050565b610a00816109ed565b8114610a0b57600080fd5b50565b600081359050610a1d816109f7565b92915050565b600060208284031215610a3957610a386109e3565b5b6000610a4784828501610a0e565b91505092915050565b610a59816109ed565b82525050565b6000602082019050610a746000830184610a50565b92915050565b600080fd5b600080fd5b6000601f19601f8301169050919050565b7f4e487b7100000000000000000000000000000000000000000000000000000000600052604160045260246000fd5b610acd82610a84565b810181811067ffffffffffffffff82111715610aec57610aeb610a95565b5b80604052505050565b6000610aff6109d9565b9050610b0b8282610ac4565b919050565b600067ffffffffffffffff821115610b2b57610b2a610a95565b5b610b3482610a84565b9050602081019050919050565b82818337600083830152505050565b6000610b63610b5e84610b10565b610af5565b905082815260208101848484011115610b7f57610b7e610a7f565b5b610b8a848285610b41565b509392505050565b600082601f830112610ba757610ba6610a7a565b5b8135610bb7848260208601610b50565b91505092915050565b60008060408385031215610bd757610bd66109e3565b5b600083013567ffffffffffffffff811115610bf557610bf46109e8565b5b610c0185828601610b92565b9250506020610c1285828601610a0e565b9150509250929050565b600073ffffffffffffffffffffffffffffffffffffffff82169050919050565b6000610c4782610c1c565b9050919050565b610c5781610c3c565b82525050565b6000602082019050610c726000830184610c4e565b92915050565b600081519050919050565b600082825260208201905092915050565b60005b83811015610cb2578082015181840152602081019050610c97565b60008484015250505050565b6000610cc982610c78565b610cd38185610c83565b9350610ce3818560208601610c94565b610cec81610a84565b840191505092915050565b60006040820190508181036000830152610d118185610cbe565b9050610d206020830184610a50565b9392505050565b610d3081610c3c565b8114610d3b57600080fd5b50565b600081359050610d4d81610d27565b92915050565b600060208284031215610d6957610d686109e3565b5b6000610d7784828501610d3e565b91505092915050565b600060208284031215610d9657610d956109e3565b5b600082013567ffffffffffffffff811115610db457610db36109e8565b5b610dc084828501610b92565b91505092915050565b6000819050919050565b610ddc81610dc9565b8114610de757600080fd5b50565b600081359050610df981610dd3565b92915050565b60008060408385031215610e1657610e156109e3565b5b6000610e2485828601610d3e565b9250506020610e3585828601610dea565b9150509250929050565b7f496e76616c69642072657761726420696e646578000000000000000000000000600082015250565b6000610e75601483610c83565b9150610e8082610e3f565b602082019050919050565b60006020820190508181036000830152610ea481610e68565b9050919050565b7f4e487b7100000000000000000000000000000000000000000000000000000000600052603260045260246000fd5b7f496e73756666696369656e742062616c616e6365706f696e7473000000000000600082015250565b6000610f10601a83610c83565b9150610f1b82610eda565b602082019050919050565b60006020820190508181036000830152610f3f81610f03565b9050919050565b7f4e487b7100000000000000000000000000000000000000000000000000000000600052601160045260246000fd5b6000610f80826109ed565b9150610f8b836109ed565b9250828203905081811115610fa357610fa2610f46565b5b92915050565b7f4f6e6c7920746865206f776e65722063616e2063616c6c20746869732066756e60008201527f6374696f6e000000000000000000000000000000000000000000000000000000602082015250565b6000611005602583610c83565b915061101082610fa9565b604082019050919050565b6000602082019050818103600083015261103481610ff8565b9050919050565b7f4e487b7100000000000000000000000000000000000000000000000000000000600052602260045260246000fd5b6000600282049050600182168061108257607f821691505b6020821081036110955761109461103b565b5b50919050565b600081905092915050565b60008190508160005260206000209050919050565b600081546110c88161106a565b6110d2818661109b565b945060018216600081146110ed576001811461110257611135565b60ff1983168652811515820286019350611135565b61110b856110a6565b60005b8381101561112d5781548189015260018201915060208101905061110e565b838801955050505b50505092915050565b600061114a82846110bb565b915081905092915050565b6000611160826109ed565b91507fffffffffffffffffffffffffffffffffffffffffffffffffffffffffffffffff820361119257611191610f46565b5b600182019050919050565b60008190508160005260206000209050919050565b60006020601f8301049050919050565b600082821b905092915050565b6000600883026111ff7fffffffffffffffffffffffffffffffffffffffffffffffffffffffffffffffff826111c2565b61120986836111c2565b95508019841693508086168417925050509392505050565b6000819050919050565b600061124661124161123c846109ed565b611221565b6109ed565b9050919050565b6000819050919050565b6112608361122b565b61127461126c8261124d565b8484546111cf565b825550505050565b600090565b61128961127c565b611294818484611257565b505050565b5b818110156112b8576112ad600082611281565b60018101905061129a565b5050565b601f8211156112fd576112ce8161119d565b6112d7846111b2565b810160208510156112e6578190505b6112fa6112f2856111b2565b830182611299565b50505b505050565b600082821c905092915050565b600061132060001984600802611302565b1980831691505092915050565b6000611339838361130f565b9150826002028217905092915050565b61135282610c78565b67ffffffffffffffff81111561136b5761136a610a95565b5b611375825461106a565b6113808282856112bc565b600060209050601f8311600181146113b357600084156113a1578287015190505b6113ab858261132d565b865550611413565b601f1984166113c18661119d565b60005b828110156113e9578489015182556001820191506020850194506020810190506113c4565b868310156114065784890151611402601f89168261130f565b8355505b6001600288020188555050505b505050505050565b7f437573746f6d6572206163636f756e7420616c72656164792065786973747300600082015250565b6000611451601f83610c83565b915061145c8261141b565b602082019050919050565b6000602082019050818103600083015261148081611444565b9050919050565b7f507572636861736520616d6f756e74206d75737420626520677265617465722060008201527f7468616e20300000000000000000000000000000000000000000000000000000602082015250565b60006114e3602683610c83565b91506114ee82611487565b604082019050919050565b60006020820190508181036000830152611512816114d6565b9050919050565b7f4d65726368616e74206e6f742072656769737465726564000000000000000000600082015250565b600061154f601783610c83565b915061155a82611519565b602082019050919050565b6000602082019050818103600083015261157e81611542565b9050919050565b7f4e487b7100000000000000000000000000000000000000000000000000000000600052601260045260246000fd5b60006115bf826109ed565b91506115ca836109ed565b9250826115da576115d9611585565b5b828204905092915050565b60006115f0826109ed565b91506115fb836109ed565b9250828202611609816109ed565b915082820484148315176116205761161f610f46565b5b5092915050565b6000611632826109ed565b915061163d836109ed565b925082820190508082111561165557611654610f46565b5b9291505056fea2646970667358221220dcb2b14760ec2b47255a53a8e731fae1c1029359988225d02243aeb374c8cc3b64736f6c63430008120033",
					"opcodes": "PUSH1 0x80 PUSH1 0x40 MSTORE CALLVALUE DUP1 ISZERO PUSH3 0x11 JUMPI PUSH1 0x0 DUP1 REVERT JUMPDEST POP CALLER PUSH1 0x0 DUP1 PUSH2 0x100 EXP DUP2 SLOAD DUP2 PUSH20 0xFFFFFFFFFFFFFFFFFFFFFFFFFFFFFFFFFFFFFFFF MUL NOT AND SWAP1 DUP4 PUSH20 0xFFFFFFFFFFFFFFFFFFFFFFFFFFFFFFFFFFFFFFFF AND MUL OR SWAP1 SSTORE POP PUSH1 0xA PUSH1 0x1 DUP2 SWAP1 SSTORE POP PUSH1 0x1 PUSH1 0x2 DUP2 SWAP1 SSTORE POP PUSH1 0x3 PUSH1 0x40 MLOAD DUP1 PUSH1 0x40 ADD PUSH1 0x40 MSTORE DUP1 PUSH1 0x40 MLOAD DUP1 PUSH1 0x40 ADD PUSH1 0x40 MSTORE DUP1 PUSH1 0x8 DUP2 MSTORE PUSH1 0x20 ADD PUSH32 0x5265776172642031000000000000000000000000000000000000000000000000 DUP2 MSTORE POP DUP2 MSTORE PUSH1 0x20 ADD PUSH1 0xA DUP2 MSTORE POP SWAP1 DUP1 PUSH1 0x1 DUP2 SLOAD ADD DUP1 DUP3 SSTORE DUP1 SWAP2 POP POP PUSH1 0x1 SWAP1 SUB SWAP1 PUSH1 0x0 MSTORE PUSH1 0x20 PUSH1 0x0 KECCAK256 SWAP1 PUSH1 0x2 MUL ADD PUSH1 0x0 SWAP1 SWAP2 SWAP1 SWAP2 SWAP1 SWAP2 POP PUSH1 0x0 DUP3 ADD MLOAD DUP2 PUSH1 0x0 ADD SWAP1 DUP2 PUSH3 0xEF SWAP2 SWAP1 PUSH3 0x4ED JUMP JUMPDEST POP PUSH1 0x20 DUP3 ADD MLOAD DUP2 PUSH1 0x1 ADD SSTORE POP POP PUSH1 0x3 PUSH1 0x40 MLOAD DUP1 PUSH1 0x40 ADD PUSH1 0x40 MSTORE DUP1 PUSH1 0x40 MLOAD DUP1 PUSH1 0x40 ADD PUSH1 0x40 MSTORE DUP1 PUSH1 0x8 DUP2 MSTORE PUSH1 0x20 ADD PUSH32 0x5265776172642032000000000000000000000000000000000000000000000000 DUP2 MSTORE POP DUP2 MSTORE PUSH1 0x20 ADD PUSH1 0x14 DUP2 MSTORE POP SWAP1 DUP1 PUSH1 0x1 DUP2 SLOAD ADD DUP1 DUP3 SSTORE DUP1 SWAP2 POP POP PUSH1 0x1 SWAP1 SUB SWAP1 PUSH1 0x0 MSTORE PUSH1 0x20 PUSH1 0x0 KECCAK256 SWAP1 PUSH1 0x2 MUL ADD PUSH1 0x0 SWAP1 SWAP2 SWAP1 SWAP2 SWAP1 SWAP2 POP PUSH1 0x0 DUP3 ADD MLOAD DUP2 PUSH1 0x0 ADD SWAP1 DUP2 PUSH3 0x189 SWAP2 SWAP1 PUSH3 0x4ED JUMP JUMPDEST POP PUSH1 0x20 DUP3 ADD MLOAD DUP2 PUSH1 0x1 ADD SSTORE POP POP PUSH1 0x40 MLOAD DUP1 PUSH1 0x40 ADD PUSH1 0x40 MSTORE DUP1 PUSH1 0x40 MLOAD DUP1 PUSH1 0x40 ADD PUSH1 0x40 MSTORE DUP1 PUSH1 0x8 DUP2 MSTORE PUSH1 0x20 ADD PUSH32 0x4D65726368616E74000000000000000000000000000000000000000000000000 DUP2 MSTORE POP DUP2 MSTORE PUSH1 0x20 ADD PUSH1 0x0 DUP2 MSTORE POP PUSH1 0x4 PUSH1 0x0 DUP3 ADD MLOAD DUP2 PUSH1 0x0 ADD SWAP1 DUP2 PUSH3 0x1FA SWAP2 SWAP1 PUSH3 0x4ED JUMP JUMPDEST POP PUSH1 0x20 DUP3 ADD MLOAD DUP2 PUSH1 0x1 ADD SSTORE SWAP1 POP POP PUSH1 0x4 PUSH1 0x6 PUSH1 0x0 ADDRESS PUSH20 0xFFFFFFFFFFFFFFFFFFFFFFFFFFFFFFFFFFFFFFFF AND PUSH20 0xFFFFFFFFFFFFFFFFFFFFFFFFFFFFFFFFFFFFFFFF AND DUP2 MSTORE PUSH1 0x20 ADD SWAP1 DUP2 MSTORE PUSH1 0x20 ADD PUSH1 0x0 KECCAK256 PUSH1 0x0 DUP3 ADD DUP2 PUSH1 0x0 ADD SWAP1 DUP2 PUSH3 0x25F SWAP2 SWAP1 PUSH3 0x5EC JUMP JUMPDEST POP PUSH1 0x1 DUP3 ADD SLOAD DUP2 PUSH1 0x1 ADD SSTORE SWAP1 POP POP PUSH3 0x6ED JUMP JUMPDEST PUSH1 0x0 DUP2 MLOAD SWAP1 POP SWAP2 SWAP1 POP JUMP JUMPDEST PUSH32 0x4E487B7100000000000000000000000000000000000000000000000000000000 PUSH1 0x0 MSTORE PUSH1 0x41 PUSH1 0x4 MSTORE PUSH1 0x24 PUSH1 0x0 REVERT JUMPDEST PUSH32 0x4E487B7100000000000000000000000000000000000000000000000000000000 PUSH1 0x0 MSTORE PUSH1 0x22 PUSH1 0x4 MSTORE PUSH1 0x24 PUSH1 0x0 REVERT JUMPDEST PUSH1 0x0 PUSH1 0x2 DUP3 DIV SWAP1 POP PUSH1 0x1 DUP3 AND DUP1 PUSH3 0x2F5 JUMPI PUSH1 0x7F DUP3 AND SWAP2 POP JUMPDEST PUSH1 0x20 DUP3 LT DUP2 SUB PUSH3 0x30B JUMPI PUSH3 0x30A PUSH3 0x2AD JUMP JUMPDEST JUMPDEST POP SWAP2 SWAP1 POP JUMP JUMPDEST PUSH1 0x0 DUP2 SWAP1 POP DUP2 PUSH1 0x0 MSTORE PUSH1 0x20 PUSH1 0x0 KECCAK256 SWAP1 POP SWAP2 SWAP1 POP JUMP JUMPDEST PUSH1 0x0 PUSH1 0x20 PUSH1 0x1F DUP4 ADD DIV SWAP1 POP SWAP2 SWAP1 POP JUMP JUMPDEST PUSH1 0x0 DUP3 DUP3 SHL SWAP1 POP SWAP3 SWAP2 POP POP JUMP JUMPDEST PUSH1 0x0 PUSH1 0x8 DUP4 MUL PUSH3 0x375 PUSH32 0xFFFFFFFFFFFFFFFFFFFFFFFFFFFFFFFFFFFFFFFFFFFFFFFFFFFFFFFFFFFFFFFF DUP3 PUSH3 0x336 JUMP JUMPDEST PUSH3 0x381 DUP7 DUP4 PUSH3 0x336 JUMP JUMPDEST SWAP6 POP DUP1 NOT DUP5 AND SWAP4 POP DUP1 DUP7 AND DUP5 OR SWAP3 POP POP POP SWAP4 SWAP3 POP POP POP JUMP JUMPDEST PUSH1 0x0 DUP2 SWAP1 POP SWAP2 SWAP1 POP JUMP JUMPDEST PUSH1 0x0 DUP2 SWAP1 POP SWAP2 SWAP1 POP JUMP JUMPDEST PUSH1 0x0 PUSH3 0x3CE PUSH3 0x3C8 PUSH3 0x3C2 DUP5 PUSH3 0x399 JUMP JUMPDEST PUSH3 0x3A3 JUMP JUMPDEST PUSH3 0x399 JUMP JUMPDEST SWAP1 POP SWAP2 SWAP1 POP JUMP JUMPDEST PUSH1 0x0 DUP2 SWAP1 POP SWAP2 SWAP1 POP JUMP JUMPDEST PUSH3 0x3EA DUP4 PUSH3 0x3AD JUMP JUMPDEST PUSH3 0x402 PUSH3 0x3F9 DUP3 PUSH3 0x3D5 JUMP JUMPDEST DUP5 DUP5 SLOAD PUSH3 0x343 JUMP JUMPDEST DUP3 SSTORE POP POP POP POP JUMP JUMPDEST PUSH1 0x0 SWAP1 JUMP JUMPDEST PUSH3 0x419 PUSH3 0x40A JUMP JUMPDEST PUSH3 0x426 DUP2 DUP5 DUP5 PUSH3 0x3DF JUMP JUMPDEST POP POP POP JUMP JUMPDEST JUMPDEST DUP2 DUP2 LT ISZERO PUSH3 0x44E JUMPI PUSH3 0x442 PUSH1 0x0 DUP3 PUSH3 0x40F JUMP JUMPDEST PUSH1 0x1 DUP2 ADD SWAP1 POP PUSH3 0x42C JUMP JUMPDEST POP POP JUMP JUMPDEST PUSH1 0x1F DUP3 GT ISZERO PUSH3 0x49D JUMPI PUSH3 0x467 DUP2 PUSH3 0x311 JUMP JUMPDEST PUSH3 0x472 DUP5 PUSH3 0x326 JUMP JUMPDEST DUP2 ADD PUSH1 0x20 DUP6 LT ISZERO PUSH3 0x482 JUMPI DUP2 SWAP1 POP JUMPDEST PUSH3 0x49A PUSH3 0x491 DUP6 PUSH3 0x326 JUMP JUMPDEST DUP4 ADD DUP3 PUSH3 0x42B JUMP JUMPDEST POP POP JUMPDEST POP POP POP JUMP JUMPDEST PUSH1 0x0 DUP3 DUP3 SHR SWAP1 POP SWAP3 SWAP2 POP POP JUMP JUMPDEST PUSH1 0x0 PUSH3 0x4C2 PUSH1 0x0 NOT DUP5 PUSH1 0x8 MUL PUSH3 0x4A2 JUMP JUMPDEST NOT DUP1 DUP4 AND SWAP2 POP POP SWAP3 SWAP2 POP POP JUMP JUMPDEST PUSH1 0x0 PUSH3 0x4DD DUP4 DUP4 PUSH3 0x4AF JUMP JUMPDEST SWAP2 POP DUP3 PUSH1 0x2 MUL DUP3 OR SWAP1 POP SWAP3 SWAP2 POP POP JUMP JUMPDEST PUSH3 0x4F8 DUP3 PUSH3 0x273 JUMP JUMPDEST PUSH8 0xFFFFFFFFFFFFFFFF DUP2 GT ISZERO PUSH3 0x514 JUMPI PUSH3 0x513 PUSH3 0x27E JUMP JUMPDEST JUMPDEST PUSH3 0x520 DUP3 SLOAD PUSH3 0x2DC JUMP JUMPDEST PUSH3 0x52D DUP3 DUP3 DUP6 PUSH3 0x452 JUMP JUMPDEST PUSH1 0x0 PUSH1 0x20 SWAP1 POP PUSH1 0x1F DUP4 GT PUSH1 0x1 DUP2 EQ PUSH3 0x565 JUMPI PUSH1 0x0 DUP5 ISZERO PUSH3 0x550 JUMPI DUP3 DUP8 ADD MLOAD SWAP1 POP JUMPDEST PUSH3 0x55C DUP6 DUP3 PUSH3 0x4CF JUMP JUMPDEST DUP7 SSTORE POP PUSH3 0x5CC JUMP JUMPDEST PUSH1 0x1F NOT DUP5 AND PUSH3 0x575 DUP7 PUSH3 0x311 JUMP JUMPDEST PUSH1 0x0 JUMPDEST DUP3 DUP2 LT ISZERO PUSH3 0x59F JUMPI DUP5 DUP10 ADD MLOAD DUP3 SSTORE PUSH1 0x1 DUP3 ADD SWAP2 POP PUSH1 0x20 DUP6 ADD SWAP5 POP PUSH1 0x20 DUP2 ADD SWAP1 POP PUSH3 0x578 JUMP JUMPDEST DUP7 DUP4 LT ISZERO PUSH3 0x5BF JUMPI DUP5 DUP10 ADD MLOAD PUSH3 0x5BB PUSH1 0x1F DUP10 AND DUP3 PUSH3 0x4AF JUMP JUMPDEST DUP4 SSTORE POP JUMPDEST PUSH1 0x1 PUSH1 0x2 DUP9 MUL ADD DUP9 SSTORE POP POP POP JUMPDEST POP POP POP POP POP POP JUMP JUMPDEST PUSH1 0x0 DUP2 SLOAD SWAP1 POP PUSH3 0x5E5 DUP2 PUSH3 0x2DC JUMP JUMPDEST SWAP1 POP SWAP2 SWAP1 POP JUMP JUMPDEST DUP2 DUP2 SUB PUSH3 0x5FC JUMPI POP POP PUSH3 0x6EB JUMP JUMPDEST PUSH3 0x607 DUP3 PUSH3 0x5D4 JUMP JUMPDEST PUSH8 0xFFFFFFFFFFFFFFFF DUP2 GT ISZERO PUSH3 0x623 JUMPI PUSH3 0x622 PUSH3 0x27E JUMP JUMPDEST JUMPDEST PUSH3 0x62F DUP3 SLOAD PUSH3 0x2DC JUMP JUMPDEST PUSH3 0x63C DUP3 DUP3 DUP6 PUSH3 0x452 JUMP JUMPDEST PUSH1 0x0 PUSH1 0x1F DUP4 GT PUSH1 0x1 DUP2 EQ PUSH3 0x670 JUMPI PUSH1 0x0 DUP5 ISZERO PUSH3 0x65B JUMPI DUP3 DUP8 ADD SLOAD SWAP1 POP JUMPDEST PUSH3 0x667 DUP6 DUP3 PUSH3 0x4CF JUMP JUMPDEST DUP7 SSTORE POP PUSH3 0x6E4 JUMP JUMPDEST PUSH1 0x1F NOT DUP5 AND PUSH3 0x680 DUP8 PUSH3 0x311 JUMP JUMPDEST SWAP7 POP PUSH3 0x68D DUP7 PUSH3 0x311 JUMP JUMPDEST PUSH1 0x0 JUMPDEST DUP3 DUP2 LT ISZERO PUSH3 0x6B7 JUMPI DUP5 DUP10 ADD SLOAD DUP3 SSTORE PUSH1 0x1 DUP3 ADD SWAP2 POP PUSH1 0x1 DUP6 ADD SWAP5 POP PUSH1 0x20 DUP2 ADD SWAP1 POP PUSH3 0x690 JUMP JUMPDEST DUP7 DUP4 LT ISZERO PUSH3 0x6D7 JUMPI DUP5 DUP10 ADD SLOAD PUSH3 0x6D3 PUSH1 0x1F DUP10 AND DUP3 PUSH3 0x4AF JUMP JUMPDEST DUP4 SSTORE POP JUMPDEST PUSH1 0x1 PUSH1 0x2 DUP9 MUL ADD DUP9 SSTORE POP POP POP JUMPDEST POP POP POP POP POP POP JUMPDEST JUMP JUMPDEST PUSH2 0x1691 DUP1 PUSH3 0x6FD PUSH1 0x0 CODECOPY PUSH1 0x0 RETURN INVALID PUSH1 0x80 PUSH1 0x40 MSTORE CALLVALUE DUP1 ISZERO PUSH2 0x10 JUMPI PUSH1 0x0 DUP1 REVERT JUMPDEST POP PUSH1 0x4 CALLDATASIZE LT PUSH2 0xA9 JUMPI PUSH1 0x0 CALLDATALOAD PUSH1 0xE0 SHR DUP1 PUSH4 0xB2F46666 GT PUSH2 0x71 JUMPI DUP1 PUSH4 0xB2F46666 EQ PUSH2 0x141 JUMPI DUP1 PUSH4 0xBCF3EEC6 EQ PUSH2 0x172 JUMPI DUP1 PUSH4 0xDB03954E EQ PUSH2 0x18E JUMPI DUP1 PUSH4 0xF301AF42 EQ PUSH2 0x1AA JUMPI DUP1 PUSH4 0xF68E4149 EQ PUSH2 0x1DB JUMPI DUP1 PUSH4 0xFFEF9E84 EQ PUSH2 0x1F9 JUMPI PUSH2 0xA9 JUMP JUMPDEST DUP1 PUSH4 0x51A71B17 EQ PUSH2 0xAE JUMPI DUP1 PUSH4 0x6D1FF757 EQ PUSH2 0xCA JUMPI DUP1 PUSH4 0x7D1CF86B EQ PUSH2 0xE8 JUMPI DUP1 PUSH4 0x8DA5CB5B EQ PUSH2 0x104 JUMPI DUP1 PUSH4 0xA5FF7651 EQ PUSH2 0x122 JUMPI JUMPDEST PUSH1 0x0 DUP1 REVERT JUMPDEST PUSH2 0xC8 PUSH1 0x4 DUP1 CALLDATASIZE SUB DUP2 ADD SWAP1 PUSH2 0xC3 SWAP2 SWAP1 PUSH2 0xA23 JUMP JUMPDEST PUSH2 0x217 JUMP JUMPDEST STOP JUMPDEST PUSH2 0xD2 PUSH2 0x389 JUMP JUMPDEST PUSH1 0x40 MLOAD PUSH2 0xDF SWAP2 SWAP1 PUSH2 0xA5F JUMP JUMPDEST PUSH1 0x40 MLOAD DUP1 SWAP2 SUB SWAP1 RETURN JUMPDEST PUSH2 0x102 PUSH1 0x4 DUP1 CALLDATASIZE SUB DUP2 ADD SWAP1 PUSH2 0xFD SWAP2 SWAP1 PUSH2 0xBC0 JUMP JUMPDEST PUSH2 0x38F JUMP JUMPDEST STOP JUMPDEST PUSH2 0x10C PUSH2 0x529 JUMP JUMPDEST PUSH1 0x40 MLOAD PUSH2 0x119 SWAP2 SWAP1 PUSH2 0xC5D JUMP JUMPDEST PUSH1 0x40 MLOAD DUP1 SWAP2 SUB SWAP1 RETURN JUMPDEST PUSH2 0x12A PUSH2 0x54D JUMP JUMPDEST PUSH1 0x40 MLOAD PUSH2 0x138 SWAP3 SWAP2 SWAP1 PUSH2 0xCF7 JUMP JUMPDEST PUSH1 0x40 MLOAD DUP1 SWAP2 SUB SWAP1 RETURN JUMPDEST PUSH2 0x15B PUSH1 0x4 DUP1 CALLDATASIZE SUB DUP2 ADD SWAP1 PUSH2 0x156 SWAP2 SWAP1 PUSH2 0xD53 JUMP JUMPDEST PUSH2 0x5E7 JUMP JUMPDEST PUSH1 0x40 MLOAD PUSH2 0x169 SWAP3 SWAP2 SWAP1 PUSH2 0xCF7 JUMP JUMPDEST PUSH1 0x40 MLOAD DUP1 SWAP2 SUB SWAP1 RETURN JUMPDEST PUSH2 0x18C PUSH1 0x4 DUP1 CALLDATASIZE SUB DUP2 ADD SWAP1 PUSH2 0x187 SWAP2 SWAP1 PUSH2 0xD80 JUMP JUMPDEST PUSH2 0x693 JUMP JUMPDEST STOP JUMPDEST PUSH2 0x1A8 PUSH1 0x4 DUP1 CALLDATASIZE SUB DUP2 ADD SWAP1 PUSH2 0x1A3 SWAP2 SWAP1 PUSH2 0xDFF JUMP JUMPDEST PUSH2 0x79F JUMP JUMPDEST STOP JUMPDEST PUSH2 0x1C4 PUSH1 0x4 DUP1 CALLDATASIZE SUB DUP2 ADD SWAP1 PUSH2 0x1BF SWAP2 SWAP1 PUSH2 0xA23 JUMP JUMPDEST PUSH2 0x8CD JUMP JUMPDEST PUSH1 0x40 MLOAD PUSH2 0x1D2 SWAP3 SWAP2 SWAP1 PUSH2 0xCF7 JUMP JUMPDEST PUSH1 0x40 MLOAD DUP1 SWAP2 SUB SWAP1 RETURN JUMPDEST PUSH2 0x1E3 PUSH2 0x989 JUMP JUMPDEST PUSH1 0x40 MLOAD PUSH2 0x1F0 SWAP2 SWAP1 PUSH2 0xA5F JUMP JUMPDEST PUSH1 0x40 MLOAD DUP1 SWAP2 SUB SWAP1 RETURN JUMPDEST PUSH2 0x201 PUSH2 0x9D3 JUMP JUMPDEST PUSH1 0x40 MLOAD PUSH2 0x20E SWAP2 SWAP1 PUSH2 0xA5F JUMP JUMPDEST PUSH1 0x40 MLOAD DUP1 SWAP2 SUB SWAP1 RETURN JUMPDEST PUSH1 0x3 DUP1 SLOAD SWAP1 POP DUP2 LT PUSH2 0x25E JUMPI PUSH1 0x40 MLOAD PUSH32 0x8C379A000000000000000000000000000000000000000000000000000000000 DUP2 MSTORE PUSH1 0x4 ADD PUSH2 0x255 SWAP1 PUSH2 0xE8B JUMP JUMPDEST PUSH1 0x40 MLOAD DUP1 SWAP2 SUB SWAP1 REVERT JUMPDEST PUSH1 0x3 DUP2 DUP2 SLOAD DUP2 LT PUSH2 0x272 JUMPI PUSH2 0x271 PUSH2 0xEAB JUMP JUMPDEST JUMPDEST SWAP1 PUSH1 0x0 MSTORE PUSH1 0x20 PUSH1 0x0 KECCAK256 SWAP1 PUSH1 0x2 MUL ADD PUSH1 0x1 ADD SLOAD PUSH1 0x6 PUSH1 0x0 CALLER PUSH20 0xFFFFFFFFFFFFFFFFFFFFFFFFFFFFFFFFFFFFFFFF AND PUSH20 0xFFFFFFFFFFFFFFFFFFFFFFFFFFFFFFFFFFFFFFFF AND DUP2 MSTORE PUSH1 0x20 ADD SWAP1 DUP2 MSTORE PUSH1 0x20 ADD PUSH1 0x0 KECCAK256 PUSH1 0x1 ADD SLOAD LT ISZERO PUSH2 0x308 JUMPI PUSH1 0x40 MLOAD PUSH32 0x8C379A000000000000000000000000000000000000000000000000000000000 DUP2 MSTORE PUSH1 0x4 ADD PUSH2 0x2FF SWAP1 PUSH2 0xF26 JUMP JUMPDEST PUSH1 0x40 MLOAD DUP1 SWAP2 SUB SWAP1 REVERT JUMPDEST PUSH1 0x3 DUP2 DUP2 SLOAD DUP2 LT PUSH2 0x31C JUMPI PUSH2 0x31B PUSH2 0xEAB JUMP JUMPDEST JUMPDEST SWAP1 PUSH1 0x0 MSTORE PUSH1 0x20 PUSH1 0x0 KECCAK256 SWAP1 PUSH1 0x2 MUL ADD PUSH1 0x1 ADD SLOAD PUSH1 0x6 PUSH1 0x0 CALLER PUSH20 0xFFFFFFFFFFFFFFFFFFFFFFFFFFFFFFFFFFFFFFFF AND PUSH20 0xFFFFFFFFFFFFFFFFFFFFFFFFFFFFFFFFFFFFFFFF AND DUP2 MSTORE PUSH1 0x20 ADD SWAP1 DUP2 MSTORE PUSH1 0x20 ADD PUSH1 0x0 KECCAK256 PUSH1 0x1 ADD PUSH1 0x0 DUP3 DUP3 SLOAD PUSH2 0x37F SWAP2 SWAP1 PUSH2 0xF75 JUMP JUMPDEST SWAP3 POP POP DUP2 SWAP1 SSTORE POP POP JUMP JUMPDEST PUSH1 0x2 SLOAD DUP2 JUMP JUMPDEST PUSH1 0x0 DUP1 SLOAD SWAP1 PUSH2 0x100 EXP SWAP1 DIV PUSH20 0xFFFFFFFFFFFFFFFFFFFFFFFFFFFFFFFFFFFFFFFF AND PUSH20 0xFFFFFFFFFFFFFFFFFFFFFFFFFFFFFFFFFFFFFFFF AND CALLER PUSH20 0xFFFFFFFFFFFFFFFFFFFFFFFFFFFFFFFFFFFFFFFF AND EQ PUSH2 0x41D JUMPI PUSH1 0x40 MLOAD PUSH32 0x8C379A000000000000000000000000000000000000000000000000000000000 DUP2 MSTORE PUSH1 0x4 ADD PUSH2 0x414 SWAP1 PUSH2 0x101B JUMP JUMPDEST PUSH1 0x40 MLOAD DUP1 SWAP2 SUB SWAP1 REVERT JUMPDEST PUSH1 0x0 DUP1 JUMPDEST PUSH1 0x3 DUP1 SLOAD SWAP1 POP DUP2 LT ISZERO PUSH2 0x4BB JUMPI DUP4 DUP1 MLOAD SWAP1 PUSH1 0x20 ADD KECCAK256 PUSH1 0x3 DUP3 DUP2 SLOAD DUP2 LT PUSH2 0x44A JUMPI PUSH2 0x449 PUSH2 0xEAB JUMP JUMPDEST JUMPDEST SWAP1 PUSH1 0x0 MSTORE PUSH1 0x20 PUSH1 0x0 KECCAK256 SWAP1 PUSH1 0x2 MUL ADD PUSH1 0x0 ADD PUSH1 0x40 MLOAD PUSH2 0x468 SWAP2 SWAP1 PUSH2 0x113E JUMP JUMPDEST PUSH1 0x40 MLOAD DUP1 SWAP2 SUB SWAP1 KECCAK256 SUB PUSH2 0x4A8 JUMPI DUP3 PUSH1 0x3 DUP3 DUP2 SLOAD DUP2 LT PUSH2 0x48A JUMPI PUSH2 0x489 PUSH2 0xEAB JUMP JUMPDEST JUMPDEST SWAP1 PUSH1 0x0 MSTORE PUSH1 0x20 PUSH1 0x0 KECCAK256 SWAP1 PUSH1 0x2 MUL ADD PUSH1 0x1 ADD DUP2 SWAP1 SSTORE POP PUSH1 0x1 SWAP2 POP PUSH2 0x4BB JUMP JUMPDEST DUP1 DUP1 PUSH2 0x4B3 SWAP1 PUSH2 0x1155 JUMP JUMPDEST SWAP2 POP POP PUSH2 0x421 JUMP JUMPDEST POP DUP1 PUSH2 0x524 JUMPI PUSH1 0x3 PUSH1 0x40 MLOAD DUP1 PUSH1 0x40 ADD PUSH1 0x40 MSTORE DUP1 DUP6 DUP2 MSTORE PUSH1 0x20 ADD DUP5 DUP2 MSTORE POP SWAP1 DUP1 PUSH1 0x1 DUP2 SLOAD ADD DUP1 DUP3 SSTORE DUP1 SWAP2 POP POP PUSH1 0x1 SWAP1 SUB SWAP1 PUSH1 0x0 MSTORE PUSH1 0x20 PUSH1 0x0 KECCAK256 SWAP1 PUSH1 0x2 MUL ADD PUSH1 0x0 SWAP1 SWAP2 SWAP1 SWAP2 SWAP1 SWAP2 POP PUSH1 0x0 DUP3 ADD MLOAD DUP2 PUSH1 0x0 ADD SWAP1 DUP2 PUSH2 0x516 SWAP2 SWAP1 PUSH2 0x1349 JUMP JUMPDEST POP PUSH1 0x20 DUP3 ADD MLOAD DUP2 PUSH1 0x1 ADD SSTORE POP POP JUMPDEST POP POP POP JUMP JUMPDEST PUSH1 0x0 DUP1 SLOAD SWAP1 PUSH2 0x100 EXP SWAP1 DIV PUSH20 0xFFFFFFFFFFFFFFFFFFFFFFFFFFFFFFFFFFFFFFFF AND DUP2 JUMP JUMPDEST PUSH1 0x4 DUP1 PUSH1 0x0 ADD DUP1 SLOAD PUSH2 0x55E SWAP1 PUSH2 0x106A JUMP JUMPDEST DUP1 PUSH1 0x1F ADD PUSH1 0x20 DUP1 SWAP2 DIV MUL PUSH1 0x20 ADD PUSH1 0x40 MLOAD SWAP1 DUP2 ADD PUSH1 0x40 MSTORE DUP1 SWAP3 SWAP2 SWAP1 DUP2 DUP2 MSTORE PUSH1 0x20 ADD DUP3 DUP1 SLOAD PUSH2 0x58A SWAP1 PUSH2 0x106A JUMP JUMPDEST DUP1 ISZERO PUSH2 0x5D7 JUMPI DUP1 PUSH1 0x1F LT PUSH2 0x5AC JUMPI PUSH2 0x100 DUP1 DUP4 SLOAD DIV MUL DUP4 MSTORE SWAP2 PUSH1 0x20 ADD SWAP2 PUSH2 0x5D7 JUMP JUMPDEST DUP3 ADD SWAP2 SWAP1 PUSH1 0x0 MSTORE PUSH1 0x20 PUSH1 0x0 KECCAK256 SWAP1 JUMPDEST DUP2 SLOAD DUP2 MSTORE SWAP1 PUSH1 0x1 ADD SWAP1 PUSH1 0x20 ADD DUP1 DUP4 GT PUSH2 0x5BA JUMPI DUP3 SWAP1 SUB PUSH1 0x1F AND DUP3 ADD SWAP2 JUMPDEST POP POP POP POP POP SWAP1 DUP1 PUSH1 0x1 ADD SLOAD SWAP1 POP DUP3 JUMP JUMPDEST PUSH1 0x6 PUSH1 0x20 MSTORE DUP1 PUSH1 0x0 MSTORE PUSH1 0x40 PUSH1 0x0 KECCAK256 PUSH1 0x0 SWAP2 POP SWAP1 POP DUP1 PUSH1 0x0 ADD DUP1 SLOAD PUSH2 0x60A SWAP1 PUSH2 0x106A JUMP JUMPDEST DUP1 PUSH1 0x1F ADD PUSH1 0x20 DUP1 SWAP2 DIV MUL PUSH1 0x20 ADD PUSH1 0x40 MLOAD SWAP1 DUP2 ADD PUSH1 0x40 MSTORE DUP1 SWAP3 SWAP2 SWAP1 DUP2 DUP2 MSTORE PUSH1 0x20 ADD DUP3 DUP1 SLOAD PUSH2 0x636 SWAP1 PUSH2 0x106A JUMP JUMPDEST DUP1 ISZERO PUSH2 0x683 JUMPI DUP1 PUSH1 0x1F LT PUSH2 0x658 JUMPI PUSH2 0x100 DUP1 DUP4 SLOAD DIV MUL DUP4 MSTORE SWAP2 PUSH1 0x20 ADD SWAP2 PUSH2 0x683 JUMP JUMPDEST DUP3 ADD SWAP2 SWAP1 PUSH1 0x0 MSTORE PUSH1 0x20 PUSH1 0x0 KECCAK256 SWAP1 JUMPDEST DUP2 SLOAD DUP2 MSTORE SWAP1 PUSH1 0x1 ADD SWAP1 PUSH1 0x20 ADD DUP1 DUP4 GT PUSH2 0x666 JUMPI DUP3 SWAP1 SUB PUSH1 0x1F AND DUP3 ADD SWAP2 JUMPDEST POP POP POP POP POP SWAP1 DUP1 PUSH1 0x1 ADD SLOAD SWAP1 POP DUP3 JUMP JUMPDEST PUSH1 0x0 PUSH1 0x6 PUSH1 0x0 CALLER PUSH20 0xFFFFFFFFFFFFFFFFFFFFFFFFFFFFFFFFFFFFFFFF AND PUSH20 0xFFFFFFFFFFFFFFFFFFFFFFFFFFFFFFFFFFFFFFFF AND DUP2 MSTORE PUSH1 0x20 ADD SWAP1 DUP2 MSTORE PUSH1 0x20 ADD PUSH1 0x0 KECCAK256 PUSH1 0x0 ADD DUP1 SLOAD PUSH2 0x6E2 SWAP1 PUSH2 0x106A JUMP JUMPDEST SWAP1 POP EQ PUSH2 0x724 JUMPI PUSH1 0x40 MLOAD PUSH32 0x8C379A000000000000000000000000000000000000000000000000000000000 DUP2 MSTORE PUSH1 0x4 ADD PUSH2 0x71B SWAP1 PUSH2 0x1467 JUMP JUMPDEST PUSH1 0x40 MLOAD DUP1 SWAP2 SUB SWAP1 REVERT JUMPDEST PUSH1 0x40 MLOAD DUP1 PUSH1 0x40 ADD PUSH1 0x40 MSTORE DUP1 DUP3 DUP2 MSTORE PUSH1 0x20 ADD PUSH1 0x14 DUP2 MSTORE POP PUSH1 0x6 PUSH1 0x0 CALLER PUSH20 0xFFFFFFFFFFFFFFFFFFFFFFFFFFFFFFFFFFFFFFFF AND PUSH20 0xFFFFFFFFFFFFFFFFFFFFFFFFFFFFFFFFFFFFFFFF AND DUP2 MSTORE PUSH1 0x20 ADD SWAP1 DUP2 MSTORE PUSH1 0x20 ADD PUSH1 0x0 KECCAK256 PUSH1 0x0 DUP3 ADD MLOAD DUP2 PUSH1 0x0 ADD SWAP1 DUP2 PUSH2 0x78E SWAP2 SWAP1 PUSH2 0x1349 JUMP JUMPDEST POP PUSH1 0x20 DUP3 ADD MLOAD DUP2 PUSH1 0x1 ADD SSTORE SWAP1 POP POP POP JUMP JUMPDEST PUSH1 0x0 DUP2 SGT PUSH2 0x7E2 JUMPI PUSH1 0x40 MLOAD PUSH32 0x8C379A000000000000000000000000000000000000000000000000000000000 DUP2 MSTORE PUSH1 0x4 ADD PUSH2 0x7D9 SWAP1 PUSH2 0x14F9 JUMP JUMPDEST PUSH1 0x40 MLOAD DUP1 SWAP2 SUB SWAP1 REVERT JUMPDEST ADDRESS PUSH20 0xFFFFFFFFFFFFFFFFFFFFFFFFFFFFFFFFFFFFFFFF AND CALLER PUSH20 0xFFFFFFFFFFFFFFFFFFFFFFFFFFFFFFFFFFFFFFFF AND EQ PUSH2 0x850 JUMPI PUSH1 0x40 MLOAD PUSH32 0x8C379A000000000000000000000000000000000000000000000000000000000 DUP2 MSTORE PUSH1 0x4 ADD PUSH2 0x847 SWAP1 PUSH2 0x1565 JUMP JUMPDEST PUSH1 0x40 MLOAD DUP1 SWAP2 SUB SWAP1 REVERT JUMPDEST PUSH1 0x0 PUSH1 0x2 SLOAD PUSH1 0x1 SLOAD DUP4 PUSH2 0x863 SWAP2 SWAP1 PUSH2 0x15B4 JUMP JUMPDEST PUSH2 0x86D SWAP2 SWAP1 PUSH2 0x15E5 JUMP JUMPDEST SWAP1 POP DUP1 PUSH1 0x6 PUSH1 0x0 DUP6 PUSH20 0xFFFFFFFFFFFFFFFFFFFFFFFFFFFFFFFFFFFFFFFF AND PUSH20 0xFFFFFFFFFFFFFFFFFFFFFFFFFFFFFFFFFFFFFFFF AND DUP2 MSTORE PUSH1 0x20 ADD SWAP1 DUP2 MSTORE PUSH1 0x20 ADD PUSH1 0x0 KECCAK256 PUSH1 0x1 ADD PUSH1 0x0 DUP3 DUP3 SLOAD PUSH2 0x8C1 SWAP2 SWAP1 PUSH2 0x1627 JUMP JUMPDEST SWAP3 POP POP DUP2 SWAP1 SSTORE POP POP POP POP JUMP JUMPDEST PUSH1 0x3 DUP2 DUP2 SLOAD DUP2 LT PUSH2 0x8DD JUMPI PUSH1 0x0 DUP1 REVERT JUMPDEST SWAP1 PUSH1 0x0 MSTORE PUSH1 0x20 PUSH1 0x0 KECCAK256 SWAP1 PUSH1 0x2 MUL ADD PUSH1 0x0 SWAP2 POP SWAP1 POP DUP1 PUSH1 0x0 ADD DUP1 SLOAD PUSH2 0x900 SWAP1 PUSH2 0x106A JUMP JUMPDEST DUP1 PUSH1 0x1F ADD PUSH1 0x20 DUP1 SWAP2 DIV MUL PUSH1 0x20 ADD PUSH1 0x40 MLOAD SWAP1 DUP2 ADD PUSH1 0x40 MSTORE DUP1 SWAP3 SWAP2 SWAP1 DUP2 DUP2 MSTORE PUSH1 0x20 ADD DUP3 DUP1 SLOAD PUSH2 0x92C SWAP1 PUSH2 0x106A JUMP JUMPDEST DUP1 ISZERO PUSH2 0x979 JUMPI DUP1 PUSH1 0x1F LT PUSH2 0x94E JUMPI PUSH2 0x100 DUP1 DUP4 SLOAD DIV MUL DUP4 MSTORE SWAP2 PUSH1 0x20 ADD SWAP2 PUSH2 0x979 JUMP JUMPDEST DUP3 ADD SWAP2 SWAP1 PUSH1 0x0 MSTORE PUSH1 0x20 PUSH1 0x0 KECCAK256 SWAP1 JUMPDEST DUP2 SLOAD DUP2 MSTORE SWAP1 PUSH1 0x1 ADD SWAP1 PUSH1 0x20 ADD DUP1 DUP4 GT PUSH2 0x95C JUMPI DUP3 SWAP1 SUB PUSH1 0x1F AND DUP3 ADD SWAP2 JUMPDEST POP POP POP POP POP SWAP1 DUP1 PUSH1 0x1 ADD SLOAD SWAP1 POP DUP3 JUMP JUMPDEST PUSH1 0x0 PUSH1 0x6 PUSH1 0x0 CALLER PUSH20 0xFFFFFFFFFFFFFFFFFFFFFFFFFFFFFFFFFFFFFFFF AND PUSH20 0xFFFFFFFFFFFFFFFFFFFFFFFFFFFFFFFFFFFFFFFF AND DUP2 MSTORE PUSH1 0x20 ADD SWAP1 DUP2 MSTORE PUSH1 0x20 ADD PUSH1 0x0 KECCAK256 PUSH1 0x1 ADD SLOAD SWAP1 POP SWAP1 JUMP JUMPDEST PUSH1 0x1 SLOAD DUP2 JUMP JUMPDEST PUSH1 0x0 PUSH1 0x40 MLOAD SWAP1 POP SWAP1 JUMP JUMPDEST PUSH1 0x0 DUP1 REVERT JUMPDEST PUSH1 0x0 DUP1 REVERT JUMPDEST PUSH1 0x0 DUP2 SWAP1 POP SWAP2 SWAP1 POP JUMP JUMPDEST PUSH2 0xA00 DUP2 PUSH2 0x9ED JUMP JUMPDEST DUP2 EQ PUSH2 0xA0B JUMPI PUSH1 0x0 DUP1 REVERT JUMPDEST POP JUMP JUMPDEST PUSH1 0x0 DUP2 CALLDATALOAD SWAP1 POP PUSH2 0xA1D DUP2 PUSH2 0x9F7 JUMP JUMPDEST SWAP3 SWAP2 POP POP JUMP JUMPDEST PUSH1 0x0 PUSH1 0x20 DUP3 DUP5 SUB SLT ISZERO PUSH2 0xA39 JUMPI PUSH2 0xA38 PUSH2 0x9E3 JUMP JUMPDEST JUMPDEST PUSH1 0x0 PUSH2 0xA47 DUP5 DUP3 DUP6 ADD PUSH2 0xA0E JUMP JUMPDEST SWAP2 POP POP SWAP3 SWAP2 POP POP JUMP JUMPDEST PUSH2 0xA59 DUP2 PUSH2 0x9ED JUMP JUMPDEST DUP3 MSTORE POP POP JUMP JUMPDEST PUSH1 0x0 PUSH1 0x20 DUP3 ADD SWAP1 POP PUSH2 0xA74 PUSH1 0x0 DUP4 ADD DUP5 PUSH2 0xA50 JUMP JUMPDEST SWAP3 SWAP2 POP POP JUMP JUMPDEST PUSH1 0x0 DUP1 REVERT JUMPDEST PUSH1 0x0 DUP1 REVERT JUMPDEST PUSH1 0x0 PUSH1 0x1F NOT PUSH1 0x1F DUP4 ADD AND SWAP1 POP SWAP2 SWAP1 POP JUMP JUMPDEST PUSH32 0x4E487B7100000000000000000000000000000000000000000000000000000000 PUSH1 0x0 MSTORE PUSH1 0x41 PUSH1 0x4 MSTORE PUSH1 0x24 PUSH1 0x0 REVERT JUMPDEST PUSH2 0xACD DUP3 PUSH2 0xA84 JUMP JUMPDEST DUP2 ADD DUP2 DUP2 LT PUSH8 0xFFFFFFFFFFFFFFFF DUP3 GT OR ISZERO PUSH2 0xAEC JUMPI PUSH2 0xAEB PUSH2 0xA95 JUMP JUMPDEST JUMPDEST DUP1 PUSH1 0x40 MSTORE POP POP POP JUMP JUMPDEST PUSH1 0x0 PUSH2 0xAFF PUSH2 0x9D9 JUMP JUMPDEST SWAP1 POP PUSH2 0xB0B DUP3 DUP3 PUSH2 0xAC4 JUMP JUMPDEST SWAP2 SWAP1 POP JUMP JUMPDEST PUSH1 0x0 PUSH8 0xFFFFFFFFFFFFFFFF DUP3 GT ISZERO PUSH2 0xB2B JUMPI PUSH2 0xB2A PUSH2 0xA95 JUMP JUMPDEST JUMPDEST PUSH2 0xB34 DUP3 PUSH2 0xA84 JUMP JUMPDEST SWAP1 POP PUSH1 0x20 DUP2 ADD SWAP1 POP SWAP2 SWAP1 POP JUMP JUMPDEST DUP3 DUP2 DUP4 CALLDATACOPY PUSH1 0x0 DUP4 DUP4 ADD MSTORE POP POP POP JUMP JUMPDEST PUSH1 0x0 PUSH2 0xB63 PUSH2 0xB5E DUP5 PUSH2 0xB10 JUMP JUMPDEST PUSH2 0xAF5 JUMP JUMPDEST SWAP1 POP DUP3 DUP2 MSTORE PUSH1 0x20 DUP2 ADD DUP5 DUP5 DUP5 ADD GT ISZERO PUSH2 0xB7F JUMPI PUSH2 0xB7E PUSH2 0xA7F JUMP JUMPDEST JUMPDEST PUSH2 0xB8A DUP5 DUP3 DUP6 PUSH2 0xB41 JUMP JUMPDEST POP SWAP4 SWAP3 POP POP POP JUMP JUMPDEST PUSH1 0x0 DUP3 PUSH1 0x1F DUP4 ADD SLT PUSH2 0xBA7 JUMPI PUSH2 0xBA6 PUSH2 0xA7A JUMP JUMPDEST JUMPDEST DUP2 CALLDATALOAD PUSH2 0xBB7 DUP5 DUP3 PUSH1 0x20 DUP7 ADD PUSH2 0xB50 JUMP JUMPDEST SWAP2 POP POP SWAP3 SWAP2 POP POP JUMP JUMPDEST PUSH1 0x0 DUP1 PUSH1 0x40 DUP4 DUP6 SUB SLT ISZERO PUSH2 0xBD7 JUMPI PUSH2 0xBD6 PUSH2 0x9E3 JUMP JUMPDEST JUMPDEST PUSH1 0x0 DUP4 ADD CALLDATALOAD PUSH8 0xFFFFFFFFFFFFFFFF DUP2 GT ISZERO PUSH2 0xBF5 JUMPI PUSH2 0xBF4 PUSH2 0x9E8 JUMP JUMPDEST JUMPDEST PUSH2 0xC01 DUP6 DUP3 DUP7 ADD PUSH2 0xB92 JUMP JUMPDEST SWAP3 POP POP PUSH1 0x20 PUSH2 0xC12 DUP6 DUP3 DUP7 ADD PUSH2 0xA0E JUMP JUMPDEST SWAP2 POP POP SWAP3 POP SWAP3 SWAP1 POP JUMP JUMPDEST PUSH1 0x0 PUSH20 0xFFFFFFFFFFFFFFFFFFFFFFFFFFFFFFFFFFFFFFFF DUP3 AND SWAP1 POP SWAP2 SWAP1 POP JUMP JUMPDEST PUSH1 0x0 PUSH2 0xC47 DUP3 PUSH2 0xC1C JUMP JUMPDEST SWAP1 POP SWAP2 SWAP1 POP JUMP JUMPDEST PUSH2 0xC57 DUP2 PUSH2 0xC3C JUMP JUMPDEST DUP3 MSTORE POP POP JUMP JUMPDEST PUSH1 0x0 PUSH1 0x20 DUP3 ADD SWAP1 POP PUSH2 0xC72 PUSH1 0x0 DUP4 ADD DUP5 PUSH2 0xC4E JUMP JUMPDEST SWAP3 SWAP2 POP POP JUMP JUMPDEST PUSH1 0x0 DUP2 MLOAD SWAP1 POP SWAP2 SWAP1 POP JUMP JUMPDEST PUSH1 0x0 DUP3 DUP3 MSTORE PUSH1 0x20 DUP3 ADD SWAP1 POP SWAP3 SWAP2 POP POP JUMP JUMPDEST PUSH1 0x0 JUMPDEST DUP4 DUP2 LT ISZERO PUSH2 0xCB2 JUMPI DUP1 DUP3 ADD MLOAD DUP2 DUP5 ADD MSTORE PUSH1 0x20 DUP2 ADD SWAP1 POP PUSH2 0xC97 JUMP JUMPDEST PUSH1 0x0 DUP5 DUP5 ADD MSTORE POP POP POP POP JUMP JUMPDEST PUSH1 0x0 PUSH2 0xCC9 DUP3 PUSH2 0xC78 JUMP JUMPDEST PUSH2 0xCD3 DUP2 DUP6 PUSH2 0xC83 JUMP JUMPDEST SWAP4 POP PUSH2 0xCE3 DUP2 DUP6 PUSH1 0x20 DUP7 ADD PUSH2 0xC94 JUMP JUMPDEST PUSH2 0xCEC DUP2 PUSH2 0xA84 JUMP JUMPDEST DUP5 ADD SWAP2 POP POP SWAP3 SWAP2 POP POP JUMP JUMPDEST PUSH1 0x0 PUSH1 0x40 DUP3 ADD SWAP1 POP DUP2 DUP2 SUB PUSH1 0x0 DUP4 ADD MSTORE PUSH2 0xD11 DUP2 DUP6 PUSH2 0xCBE JUMP JUMPDEST SWAP1 POP PUSH2 0xD20 PUSH1 0x20 DUP4 ADD DUP5 PUSH2 0xA50 JUMP JUMPDEST SWAP4 SWAP3 POP POP POP JUMP JUMPDEST PUSH2 0xD30 DUP2 PUSH2 0xC3C JUMP JUMPDEST DUP2 EQ PUSH2 0xD3B JUMPI PUSH1 0x0 DUP1 REVERT JUMPDEST POP JUMP JUMPDEST PUSH1 0x0 DUP2 CALLDATALOAD SWAP1 POP PUSH2 0xD4D DUP2 PUSH2 0xD27 JUMP JUMPDEST SWAP3 SWAP2 POP POP JUMP JUMPDEST PUSH1 0x0 PUSH1 0x20 DUP3 DUP5 SUB SLT ISZERO PUSH2 0xD69 JUMPI PUSH2 0xD68 PUSH2 0x9E3 JUMP JUMPDEST JUMPDEST PUSH1 0x0 PUSH2 0xD77 DUP5 DUP3 DUP6 ADD PUSH2 0xD3E JUMP JUMPDEST SWAP2 POP POP SWAP3 SWAP2 POP POP JUMP JUMPDEST PUSH1 0x0 PUSH1 0x20 DUP3 DUP5 SUB SLT ISZERO PUSH2 0xD96 JUMPI PUSH2 0xD95 PUSH2 0x9E3 JUMP JUMPDEST JUMPDEST PUSH1 0x0 DUP3 ADD CALLDATALOAD PUSH8 0xFFFFFFFFFFFFFFFF DUP2 GT ISZERO PUSH2 0xDB4 JUMPI PUSH2 0xDB3 PUSH2 0x9E8 JUMP JUMPDEST JUMPDEST PUSH2 0xDC0 DUP5 DUP3 DUP6 ADD PUSH2 0xB92 JUMP JUMPDEST SWAP2 POP POP SWAP3 SWAP2 POP POP JUMP JUMPDEST PUSH1 0x0 DUP2 SWAP1 POP SWAP2 SWAP1 POP JUMP JUMPDEST PUSH2 0xDDC DUP2 PUSH2 0xDC9 JUMP JUMPDEST DUP2 EQ PUSH2 0xDE7 JUMPI PUSH1 0x0 DUP1 REVERT JUMPDEST POP JUMP JUMPDEST PUSH1 0x0 DUP2 CALLDATALOAD SWAP1 POP PUSH2 0xDF9 DUP2 PUSH2 0xDD3 JUMP JUMPDEST SWAP3 SWAP2 POP POP JUMP JUMPDEST PUSH1 0x0 DUP1 PUSH1 0x40 DUP4 DUP6 SUB SLT ISZERO PUSH2 0xE16 JUMPI PUSH2 0xE15 PUSH2 0x9E3 JUMP JUMPDEST JUMPDEST PUSH1 0x0 PUSH2 0xE24 DUP6 DUP3 DUP7 ADD PUSH2 0xD3E JUMP JUMPDEST SWAP3 POP POP PUSH1 0x20 PUSH2 0xE35 DUP6 DUP3 DUP7 ADD PUSH2 0xDEA JUMP JUMPDEST SWAP2 POP POP SWAP3 POP SWAP3 SWAP1 POP JUMP JUMPDEST PUSH32 0x496E76616C69642072657761726420696E646578000000000000000000000000 PUSH1 0x0 DUP3 ADD MSTORE POP JUMP JUMPDEST PUSH1 0x0 PUSH2 0xE75 PUSH1 0x14 DUP4 PUSH2 0xC83 JUMP JUMPDEST SWAP2 POP PUSH2 0xE80 DUP3 PUSH2 0xE3F JUMP JUMPDEST PUSH1 0x20 DUP3 ADD SWAP1 POP SWAP2 SWAP1 POP JUMP JUMPDEST PUSH1 0x0 PUSH1 0x20 DUP3 ADD SWAP1 POP DUP2 DUP2 SUB PUSH1 0x0 DUP4 ADD MSTORE PUSH2 0xEA4 DUP2 PUSH2 0xE68 JUMP JUMPDEST SWAP1 POP SWAP2 SWAP1 POP JUMP JUMPDEST PUSH32 0x4E487B7100000000000000000000000000000000000000000000000000000000 PUSH1 0x0 MSTORE PUSH1 0x32 PUSH1 0x4 MSTORE PUSH1 0x24 PUSH1 0x0 REVERT JUMPDEST PUSH32 0x496E73756666696369656E742062616C616E6365706F696E7473000000000000 PUSH1 0x0 DUP3 ADD MSTORE POP JUMP JUMPDEST PUSH1 0x0 PUSH2 0xF10 PUSH1 0x1A DUP4 PUSH2 0xC83 JUMP JUMPDEST SWAP2 POP PUSH2 0xF1B DUP3 PUSH2 0xEDA JUMP JUMPDEST PUSH1 0x20 DUP3 ADD SWAP1 POP SWAP2 SWAP1 POP JUMP JUMPDEST PUSH1 0x0 PUSH1 0x20 DUP3 ADD SWAP1 POP DUP2 DUP2 SUB PUSH1 0x0 DUP4 ADD MSTORE PUSH2 0xF3F DUP2 PUSH2 0xF03 JUMP JUMPDEST SWAP1 POP SWAP2 SWAP1 POP JUMP JUMPDEST PUSH32 0x4E487B7100000000000000000000000000000000000000000000000000000000 PUSH1 0x0 MSTORE PUSH1 0x11 PUSH1 0x4 MSTORE PUSH1 0x24 PUSH1 0x0 REVERT JUMPDEST PUSH1 0x0 PUSH2 0xF80 DUP3 PUSH2 0x9ED JUMP JUMPDEST SWAP2 POP PUSH2 0xF8B DUP4 PUSH2 0x9ED JUMP JUMPDEST SWAP3 POP DUP3 DUP3 SUB SWAP1 POP DUP2 DUP2 GT ISZERO PUSH2 0xFA3 JUMPI PUSH2 0xFA2 PUSH2 0xF46 JUMP JUMPDEST JUMPDEST SWAP3 SWAP2 POP POP JUMP JUMPDEST PUSH32 0x4F6E6C7920746865206F776E65722063616E2063616C6C20746869732066756E PUSH1 0x0 DUP3 ADD MSTORE PUSH32 0x6374696F6E000000000000000000000000000000000000000000000000000000 PUSH1 0x20 DUP3 ADD MSTORE POP JUMP JUMPDEST PUSH1 0x0 PUSH2 0x1005 PUSH1 0x25 DUP4 PUSH2 0xC83 JUMP JUMPDEST SWAP2 POP PUSH2 0x1010 DUP3 PUSH2 0xFA9 JUMP JUMPDEST PUSH1 0x40 DUP3 ADD SWAP1 POP SWAP2 SWAP1 POP JUMP JUMPDEST PUSH1 0x0 PUSH1 0x20 DUP3 ADD SWAP1 POP DUP2 DUP2 SUB PUSH1 0x0 DUP4 ADD MSTORE PUSH2 0x1034 DUP2 PUSH2 0xFF8 JUMP JUMPDEST SWAP1 POP SWAP2 SWAP1 POP JUMP JUMPDEST PUSH32 0x4E487B7100000000000000000000000000000000000000000000000000000000 PUSH1 0x0 MSTORE PUSH1 0x22 PUSH1 0x4 MSTORE PUSH1 0x24 PUSH1 0x0 REVERT JUMPDEST PUSH1 0x0 PUSH1 0x2 DUP3 DIV SWAP1 POP PUSH1 0x1 DUP3 AND DUP1 PUSH2 0x1082 JUMPI PUSH1 0x7F DUP3 AND SWAP2 POP JUMPDEST PUSH1 0x20 DUP3 LT DUP2 SUB PUSH2 0x1095 JUMPI PUSH2 0x1094 PUSH2 0x103B JUMP JUMPDEST JUMPDEST POP SWAP2 SWAP1 POP JUMP JUMPDEST PUSH1 0x0 DUP2 SWAP1 POP SWAP3 SWAP2 POP POP JUMP JUMPDEST PUSH1 0x0 DUP2 SWAP1 POP DUP2 PUSH1 0x0 MSTORE PUSH1 0x20 PUSH1 0x0 KECCAK256 SWAP1 POP SWAP2 SWAP1 POP JUMP JUMPDEST PUSH1 0x0 DUP2 SLOAD PUSH2 0x10C8 DUP2 PUSH2 0x106A JUMP JUMPDEST PUSH2 0x10D2 DUP2 DUP7 PUSH2 0x109B JUMP JUMPDEST SWAP5 POP PUSH1 0x1 DUP3 AND PUSH1 0x0 DUP2 EQ PUSH2 0x10ED JUMPI PUSH1 0x1 DUP2 EQ PUSH2 0x1102 JUMPI PUSH2 0x1135 JUMP JUMPDEST PUSH1 0xFF NOT DUP4 AND DUP7 MSTORE DUP2 ISZERO ISZERO DUP3 MUL DUP7 ADD SWAP4 POP PUSH2 0x1135 JUMP JUMPDEST PUSH2 0x110B DUP6 PUSH2 0x10A6 JUMP JUMPDEST PUSH1 0x0 JUMPDEST DUP4 DUP2 LT ISZERO PUSH2 0x112D JUMPI DUP2 SLOAD DUP2 DUP10 ADD MSTORE PUSH1 0x1 DUP3 ADD SWAP2 POP PUSH1 0x20 DUP2 ADD SWAP1 POP PUSH2 0x110E JUMP JUMPDEST DUP4 DUP9 ADD SWAP6 POP POP POP JUMPDEST POP POP POP SWAP3 SWAP2 POP POP JUMP JUMPDEST PUSH1 0x0 PUSH2 0x114A DUP3 DUP5 PUSH2 0x10BB JUMP JUMPDEST SWAP2 POP DUP2 SWAP1 POP SWAP3 SWAP2 POP POP JUMP JUMPDEST PUSH1 0x0 PUSH2 0x1160 DUP3 PUSH2 0x9ED JUMP JUMPDEST SWAP2 POP PUSH32 0xFFFFFFFFFFFFFFFFFFFFFFFFFFFFFFFFFFFFFFFFFFFFFFFFFFFFFFFFFFFFFFFF DUP3 SUB PUSH2 0x1192 JUMPI PUSH2 0x1191 PUSH2 0xF46 JUMP JUMPDEST JUMPDEST PUSH1 0x1 DUP3 ADD SWAP1 POP SWAP2 SWAP1 POP JUMP JUMPDEST PUSH1 0x0 DUP2 SWAP1 POP DUP2 PUSH1 0x0 MSTORE PUSH1 0x20 PUSH1 0x0 KECCAK256 SWAP1 POP SWAP2 SWAP1 POP JUMP JUMPDEST PUSH1 0x0 PUSH1 0x20 PUSH1 0x1F DUP4 ADD DIV SWAP1 POP SWAP2 SWAP1 POP JUMP JUMPDEST PUSH1 0x0 DUP3 DUP3 SHL SWAP1 POP SWAP3 SWAP2 POP POP JUMP JUMPDEST PUSH1 0x0 PUSH1 0x8 DUP4 MUL PUSH2 0x11FF PUSH32 0xFFFFFFFFFFFFFFFFFFFFFFFFFFFFFFFFFFFFFFFFFFFFFFFFFFFFFFFFFFFFFFFF DUP3 PUSH2 0x11C2 JUMP JUMPDEST PUSH2 0x1209 DUP7 DUP4 PUSH2 0x11C2 JUMP JUMPDEST SWAP6 POP DUP1 NOT DUP5 AND SWAP4 POP DUP1 DUP7 AND DUP5 OR SWAP3 POP POP POP SWAP4 SWAP3 POP POP POP JUMP JUMPDEST PUSH1 0x0 DUP2 SWAP1 POP SWAP2 SWAP1 POP JUMP JUMPDEST PUSH1 0x0 PUSH2 0x1246 PUSH2 0x1241 PUSH2 0x123C DUP5 PUSH2 0x9ED JUMP JUMPDEST PUSH2 0x1221 JUMP JUMPDEST PUSH2 0x9ED JUMP JUMPDEST SWAP1 POP SWAP2 SWAP1 POP JUMP JUMPDEST PUSH1 0x0 DUP2 SWAP1 POP SWAP2 SWAP1 POP JUMP JUMPDEST PUSH2 0x1260 DUP4 PUSH2 0x122B JUMP JUMPDEST PUSH2 0x1274 PUSH2 0x126C DUP3 PUSH2 0x124D JUMP JUMPDEST DUP5 DUP5 SLOAD PUSH2 0x11CF JUMP JUMPDEST DUP3 SSTORE POP POP POP POP JUMP JUMPDEST PUSH1 0x0 SWAP1 JUMP JUMPDEST PUSH2 0x1289 PUSH2 0x127C JUMP JUMPDEST PUSH2 0x1294 DUP2 DUP5 DUP5 PUSH2 0x1257 JUMP JUMPDEST POP POP POP JUMP JUMPDEST JUMPDEST DUP2 DUP2 LT ISZERO PUSH2 0x12B8 JUMPI PUSH2 0x12AD PUSH1 0x0 DUP3 PUSH2 0x1281 JUMP JUMPDEST PUSH1 0x1 DUP2 ADD SWAP1 POP PUSH2 0x129A JUMP JUMPDEST POP POP JUMP JUMPDEST PUSH1 0x1F DUP3 GT ISZERO PUSH2 0x12FD JUMPI PUSH2 0x12CE DUP2 PUSH2 0x119D JUMP JUMPDEST PUSH2 0x12D7 DUP5 PUSH2 0x11B2 JUMP JUMPDEST DUP2 ADD PUSH1 0x20 DUP6 LT ISZERO PUSH2 0x12E6 JUMPI DUP2 SWAP1 POP JUMPDEST PUSH2 0x12FA PUSH2 0x12F2 DUP6 PUSH2 0x11B2 JUMP JUMPDEST DUP4 ADD DUP3 PUSH2 0x1299 JUMP JUMPDEST POP POP JUMPDEST POP POP POP JUMP JUMPDEST PUSH1 0x0 DUP3 DUP3 SHR SWAP1 POP SWAP3 SWAP2 POP POP JUMP JUMPDEST PUSH1 0x0 PUSH2 0x1320 PUSH1 0x0 NOT DUP5 PUSH1 0x8 MUL PUSH2 0x1302 JUMP JUMPDEST NOT DUP1 DUP4 AND SWAP2 POP POP SWAP3 SWAP2 POP POP JUMP JUMPDEST PUSH1 0x0 PUSH2 0x1339 DUP4 DUP4 PUSH2 0x130F JUMP JUMPDEST SWAP2 POP DUP3 PUSH1 0x2 MUL DUP3 OR SWAP1 POP SWAP3 SWAP2 POP POP JUMP JUMPDEST PUSH2 0x1352 DUP3 PUSH2 0xC78 JUMP JUMPDEST PUSH8 0xFFFFFFFFFFFFFFFF DUP2 GT ISZERO PUSH2 0x136B JUMPI PUSH2 0x136A PUSH2 0xA95 JUMP JUMPDEST JUMPDEST PUSH2 0x1375 DUP3 SLOAD PUSH2 0x106A JUMP JUMPDEST PUSH2 0x1380 DUP3 DUP3 DUP6 PUSH2 0x12BC JUMP JUMPDEST PUSH1 0x0 PUSH1 0x20 SWAP1 POP PUSH1 0x1F DUP4 GT PUSH1 0x1 DUP2 EQ PUSH2 0x13B3 JUMPI PUSH1 0x0 DUP5 ISZERO PUSH2 0x13A1 JUMPI DUP3 DUP8 ADD MLOAD SWAP1 POP JUMPDEST PUSH2 0x13AB DUP6 DUP3 PUSH2 0x132D JUMP JUMPDEST DUP7 SSTORE POP PUSH2 0x1413 JUMP JUMPDEST PUSH1 0x1F NOT DUP5 AND PUSH2 0x13C1 DUP7 PUSH2 0x119D JUMP JUMPDEST PUSH1 0x0 JUMPDEST DUP3 DUP2 LT ISZERO PUSH2 0x13E9 JUMPI DUP5 DUP10 ADD MLOAD DUP3 SSTORE PUSH1 0x1 DUP3 ADD SWAP2 POP PUSH1 0x20 DUP6 ADD SWAP5 POP PUSH1 0x20 DUP2 ADD SWAP1 POP PUSH2 0x13C4 JUMP JUMPDEST DUP7 DUP4 LT ISZERO PUSH2 0x1406 JUMPI DUP5 DUP10 ADD MLOAD PUSH2 0x1402 PUSH1 0x1F DUP10 AND DUP3 PUSH2 0x130F JUMP JUMPDEST DUP4 SSTORE POP JUMPDEST PUSH1 0x1 PUSH1 0x2 DUP9 MUL ADD DUP9 SSTORE POP POP POP JUMPDEST POP POP POP POP POP POP JUMP JUMPDEST PUSH32 0x437573746F6D6572206163636F756E7420616C72656164792065786973747300 PUSH1 0x0 DUP3 ADD MSTORE POP JUMP JUMPDEST PUSH1 0x0 PUSH2 0x1451 PUSH1 0x1F DUP4 PUSH2 0xC83 JUMP JUMPDEST SWAP2 POP PUSH2 0x145C DUP3 PUSH2 0x141B JUMP JUMPDEST PUSH1 0x20 DUP3 ADD SWAP1 POP SWAP2 SWAP1 POP JUMP JUMPDEST PUSH1 0x0 PUSH1 0x20 DUP3 ADD SWAP1 POP DUP2 DUP2 SUB PUSH1 0x0 DUP4 ADD MSTORE PUSH2 0x1480 DUP2 PUSH2 0x1444 JUMP JUMPDEST SWAP1 POP SWAP2 SWAP1 POP JUMP JUMPDEST PUSH32 0x507572636861736520616D6F756E74206D757374206265206772656174657220 PUSH1 0x0 DUP3 ADD MSTORE PUSH32 0x7468616E20300000000000000000000000000000000000000000000000000000 PUSH1 0x20 DUP3 ADD MSTORE POP JUMP JUMPDEST PUSH1 0x0 PUSH2 0x14E3 PUSH1 0x26 DUP4 PUSH2 0xC83 JUMP JUMPDEST SWAP2 POP PUSH2 0x14EE DUP3 PUSH2 0x1487 JUMP JUMPDEST PUSH1 0x40 DUP3 ADD SWAP1 POP SWAP2 SWAP1 POP JUMP JUMPDEST PUSH1 0x0 PUSH1 0x20 DUP3 ADD SWAP1 POP DUP2 DUP2 SUB PUSH1 0x0 DUP4 ADD MSTORE PUSH2 0x1512 DUP2 PUSH2 0x14D6 JUMP JUMPDEST SWAP1 POP SWAP2 SWAP1 POP JUMP JUMPDEST PUSH32 0x4D65726368616E74206E6F742072656769737465726564000000000000000000 PUSH1 0x0 DUP3 ADD MSTORE POP JUMP JUMPDEST PUSH1 0x0 PUSH2 0x154F PUSH1 0x17 DUP4 PUSH2 0xC83 JUMP JUMPDEST SWAP2 POP PUSH2 0x155A DUP3 PUSH2 0x1519 JUMP JUMPDEST PUSH1 0x20 DUP3 ADD SWAP1 POP SWAP2 SWAP1 POP JUMP JUMPDEST PUSH1 0x0 PUSH1 0x20 DUP3 ADD SWAP1 POP DUP2 DUP2 SUB PUSH1 0x0 DUP4 ADD MSTORE PUSH2 0x157E DUP2 PUSH2 0x1542 JUMP JUMPDEST SWAP1 POP SWAP2 SWAP1 POP JUMP JUMPDEST PUSH32 0x4E487B7100000000000000000000000000000000000000000000000000000000 PUSH1 0x0 MSTORE PUSH1 0x12 PUSH1 0x4 MSTORE PUSH1 0x24 PUSH1 0x0 REVERT JUMPDEST PUSH1 0x0 PUSH2 0x15BF DUP3 PUSH2 0x9ED JUMP JUMPDEST SWAP2 POP PUSH2 0x15CA DUP4 PUSH2 0x9ED JUMP JUMPDEST SWAP3 POP DUP3 PUSH2 0x15DA JUMPI PUSH2 0x15D9 PUSH2 0x1585 JUMP JUMPDEST JUMPDEST DUP3 DUP3 DIV SWAP1 POP SWAP3 SWAP2 POP POP JUMP JUMPDEST PUSH1 0x0 PUSH2 0x15F0 DUP3 PUSH2 0x9ED JUMP JUMPDEST SWAP2 POP PUSH2 0x15FB DUP4 PUSH2 0x9ED JUMP JUMPDEST SWAP3 POP DUP3 DUP3 MUL PUSH2 0x1609 DUP2 PUSH2 0x9ED JUMP JUMPDEST SWAP2 POP DUP3 DUP3 DIV DUP5 EQ DUP4 ISZERO OR PUSH2 0x1620 JUMPI PUSH2 0x161F PUSH2 0xF46 JUMP JUMPDEST JUMPDEST POP SWAP3 SWAP2 POP POP JUMP JUMPDEST PUSH1 0x0 PUSH2 0x1632 DUP3 PUSH2 0x9ED JUMP JUMPDEST SWAP2 POP PUSH2 0x163D DUP4 PUSH2 0x9ED JUMP JUMPDEST SWAP3 POP DUP3 DUP3 ADD SWAP1 POP DUP1 DUP3 GT ISZERO PUSH2 0x1655 JUMPI PUSH2 0x1654 PUSH2 0xF46 JUMP JUMPDEST JUMPDEST SWAP3 SWAP2 POP POP JUMP INVALID LOG2 PUSH5 0x6970667358 0x22 SLT KECCAK256 0xDC 0xB2 0xB1 SELFBALANCE PUSH1 0xEC 0x2B SELFBALANCE 0x25 GAS MSTORE8 0xA8 0xE7 BALANCE STATICCALL 0xE1 0xC1 MUL SWAP4 MSIZE SWAP9 DUP3 0x25 0xD0 0x22 NUMBER 0xAE 0xB3 PUSH21 0xC8CC3B64736F6C6343000812003300000000000000 "
				},
				"gasEstimates": {
					"creation": {
						"codeDepositCost": "1155400",
						"executionCost": "infinite",
						"totalCost": "infinite"
					},
					"external": {
						"addOrUpdateReward(string,uint256)": "infinite",
						"awardLoyaltyPoints(address,int256)": "infinite",
						"checkBalancePoints()": "2620",
						"createCustomerAccount(string)": "infinite",
						"customerAccounts(address)": "infinite",
						"loyaltypoints()": "2452",
						"merchant()": "infinite",
						"owner()": "2578",
						"purchaseamt()": "2539",
						"redeemReward(uint256)": "infinite",
						"rewards(uint256)": "infinite"
					}
				},
				"methodIdentifiers": {
					"addOrUpdateReward(string,uint256)": "7d1cf86b",
					"awardLoyaltyPoints(address,int256)": "db03954e",
					"checkBalancePoints()": "f68e4149",
					"createCustomerAccount(string)": "bcf3eec6",
					"customerAccounts(address)": "b2f46666",
					"loyaltypoints()": "6d1ff757",
					"merchant()": "a5ff7651",
					"owner()": "8da5cb5b",
					"purchaseamt()": "ffef9e84",
					"redeemReward(uint256)": "51a71b17",
					"rewards(uint256)": "f301af42"
				}
			},
			"storageLayout": {
				"storage": [
					{
						"astId": 3,
						"contract": "loyaltyprg.sol:LoyaltyProgram",
						"label": "owner",
						"offset": 0,
						"slot": "0",
						"type": "t_address"
					},
					{
						"astId": 5,
						"contract": "loyaltyprg.sol:LoyaltyProgram",
						"label": "purchaseamt",
						"offset": 0,
						"slot": "1",
						"type": "t_uint256"
					},
					{
						"astId": 7,
						"contract": "loyaltyprg.sol:LoyaltyProgram",
						"label": "loyaltypoints",
						"offset": 0,
						"slot": "2",
						"type": "t_uint256"
					},
					{
						"astId": 21,
						"contract": "loyaltyprg.sol:LoyaltyProgram",
						"label": "rewards",
						"offset": 0,
						"slot": "3",
						"type": "t_array(t_struct(Reward)12_storage)dyn_storage"
					},
					{
						"astId": 24,
						"contract": "loyaltyprg.sol:LoyaltyProgram",
						"label": "merchant",
						"offset": 0,
						"slot": "4",
						"type": "t_struct(CustomerAccount)17_storage"
					},
					{
						"astId": 29,
						"contract": "loyaltyprg.sol:LoyaltyProgram",
						"label": "customerAccounts",
						"offset": 0,
						"slot": "6",
						"type": "t_mapping(t_address,t_struct(CustomerAccount)17_storage)"
					}
				],
				"types": {
					"t_address": {
						"encoding": "inplace",
						"label": "address",
						"numberOfBytes": "20"
					},
					"t_array(t_struct(Reward)12_storage)dyn_storage": {
						"base": "t_struct(Reward)12_storage",
						"encoding": "dynamic_array",
						"label": "struct LoyaltyProgram.Reward[]",
						"numberOfBytes": "32"
					},
					"t_mapping(t_address,t_struct(CustomerAccount)17_storage)": {
						"encoding": "mapping",
						"key": "t_address",
						"label": "mapping(address => struct LoyaltyProgram.CustomerAccount)",
						"numberOfBytes": "32",
						"value": "t_struct(CustomerAccount)17_storage"
					},
					"t_string_storage": {
						"encoding": "bytes",
						"label": "string",
						"numberOfBytes": "32"
					},
					"t_struct(CustomerAccount)17_storage": {
						"encoding": "inplace",
						"label": "struct LoyaltyProgram.CustomerAccount",
						"members": [
							{
								"astId": 14,
								"contract": "loyaltyprg.sol:LoyaltyProgram",
								"label": "accountName",
								"offset": 0,
								"slot": "0",
								"type": "t_string_storage"
							},
							{
								"astId": 16,
								"contract": "loyaltyprg.sol:LoyaltyProgram",
								"label": "balancepoints",
								"offset": 0,
								"slot": "1",
								"type": "t_uint256"
							}
						],
						"numberOfBytes": "64"
					},
					"t_struct(Reward)12_storage": {
						"encoding": "inplace",
						"label": "struct LoyaltyProgram.Reward",
						"members": [
							{
								"astId": 9,
								"contract": "loyaltyprg.sol:LoyaltyProgram",
								"label": "rewardName",
								"offset": 0,
								"slot": "0",
								"type": "t_string_storage"
							},
							{
								"astId": 11,
								"contract": "loyaltyprg.sol:LoyaltyProgram",
								"label": "loyaltypointsRequired",
								"offset": 0,
								"slot": "1",
								"type": "t_uint256"
							}
						],
						"numberOfBytes": "64"
					},
					"t_uint256": {
						"encoding": "inplace",
						"label": "uint256",
						"numberOfBytes": "32"
					}
				}
			},
			"userdoc": {
				"kind": "user",
				"methods": {},
				"version": 1
			}
		}
	}
}