{
	"data": {
		"bytecode": {
			"linkReferences": {},
			"object": "608060405234801561001057600080fd5b50610a7f806100206000396000f3fe608060405234801561001057600080fd5b506004361061004c5760003560e01c80632a6adb651461005157806331c3b0ef1461007157806374c1194314610091578063bcf3eec6146100ad575b600080fd5b6100596100c9565b604051610068939291906104c3565b60405180910390f35b610079610183565b604051610088939291906104c3565b60405180910390f35b6100ab60048036038101906100a6919061064a565b61023c565b005b6100c760048036038101906100c2919061064a565b61031d565b005b60606000806003600001600360010154600360020160009054906101000a900460ff168280546100f8906106c2565b80601f0160208091040260200160405190810160405280929190818152602001828054610124906106c2565b80156101715780601f1061014657610100808354040283529160200191610171565b820191906000526020600020905b81548152906001019060200180831161015457829003601f168201915b50505050509250925092509250909192565b606060008060008001600060010154600060020160009054906101000a900460ff168280546101b1906106c2565b80601f01602080910402602001604051908101604052809291908181526020018280546101dd906106c2565b801561022a5780601f106101ff5761010080835404028352916020019161022a565b820191906000526020600020905b81548152906001019060200180831161020d57829003601f168201915b50505050509250925092509250909192565b60001515600060020160009054906101000a900460ff161515148015610278575060001515600360020160009054906101000a900460ff161515145b6102b7576040517f08c379a00000000000000000000000000000000000000000000000000000000081526004016102ae9061073f565b60405180910390fd5b604051806060016040528082815260200160328152602001600115158152506000808201518160000190816102ec919061090b565b506020820151816001015560408201518160020160006101000a81548160ff02191690831515021790555090505050565b60001515600360020160009054906101000a900460ff161515148015610359575060001515600060020160009054906101000a900460ff161515145b610398576040517f08c379a000000000000000000000000000000000000000000000000000000000815260040161038f90610a29565b60405180910390fd5b60405180606001604052808281526020016000815260200160011515815250600360008201518160000190816103ce919061090b565b506020820151816001015560408201518160020160006101000a81548160ff02191690831515021790555090505050565b600081519050919050565b600082825260208201905092915050565b60005b8381101561043957808201518184015260208101905061041e565b60008484015250505050565b6000601f19601f8301169050919050565b6000610461826103ff565b61046b818561040a565b935061047b81856020860161041b565b61048481610445565b840191505092915050565b6000819050919050565b6104a28161048f565b82525050565b60008115159050919050565b6104bd816104a8565b82525050565b600060608201905081810360008301526104dd8186610456565b90506104ec6020830185610499565b6104f960408301846104b4565b949350505050565b6000604051905090565b600080fd5b600080fd5b600080fd5b600080fd5b7f4e487b7100000000000000000000000000000000000000000000000000000000600052604160045260246000fd5b61055782610445565b810181811067ffffffffffffffff821117156105765761057561051f565b5b80604052505050565b6000610589610501565b9050610595828261054e565b919050565b600067ffffffffffffffff8211156105b5576105b461051f565b5b6105be82610445565b9050602081019050919050565b82818337600083830152505050565b60006105ed6105e88461059a565b61057f565b9050828152602081018484840111156106095761060861051a565b5b6106148482856105cb565b509392505050565b600082601f83011261063157610630610515565b5b81356106418482602086016105da565b91505092915050565b6000602082840312156106605761065f61050b565b5b600082013567ffffffffffffffff81111561067e5761067d610510565b5b61068a8482850161061c565b91505092915050565b7f4e487b7100000000000000000000000000000000000000000000000000000000600052602260045260246000fd5b600060028204905060018216806106da57607f821691505b6020821081036106ed576106ec610693565b5b50919050565b7f416c72656164792061206d65726368616e74206f7220637573746f6d65720000600082015250565b6000610729601e8361040a565b9150610734826106f3565b602082019050919050565b600060208201905081810360008301526107588161071c565b9050919050565b60008190508160005260206000209050919050565b60006020601f8301049050919050565b600082821b905092915050565b6000600883026107c17fffffffffffffffffffffffffffffffffffffffffffffffffffffffffffffffff82610784565b6107cb8683610784565b95508019841693508086168417925050509392505050565b6000819050919050565b60006108086108036107fe8461048f565b6107e3565b61048f565b9050919050565b6000819050919050565b610822836107ed565b61083661082e8261080f565b848454610791565b825550505050565b600090565b61084b61083e565b610856818484610819565b505050565b5b8181101561087a5761086f600082610843565b60018101905061085c565b5050565b601f8211156108bf576108908161075f565b61089984610774565b810160208510156108a8578190505b6108bc6108b485610774565b83018261085b565b50505b505050565b600082821c905092915050565b60006108e2600019846008026108c4565b1980831691505092915050565b60006108fb83836108d1565b9150826002028217905092915050565b610914826103ff565b67ffffffffffffffff81111561092d5761092c61051f565b5b61093782546106c2565b61094282828561087e565b600060209050601f8311600181146109755760008415610963578287015190505b61096d85826108ef565b8655506109d5565b601f1984166109838661075f565b60005b828110156109ab57848901518255600182019150602085019450602081019050610986565b868310156109c857848901516109c4601f8916826108d1565b8355505b6001600288020188555050505b505050505050565b7f416c7265616479206120637573746f6d6572206f72206d65726368616e740000600082015250565b6000610a13601e8361040a565b9150610a1e826109dd565b602082019050919050565b60006020820190508181036000830152610a4281610a06565b905091905056fea264697066735822122091e7da79bcc470d6d726a7ff61733efe19e6499595def191051dd972f548f48764736f6c63430008120033",
			"opcodes": "PUSH1 0x80 PUSH1 0x40 MSTORE CALLVALUE DUP1 ISZERO PUSH2 0x10 JUMPI PUSH1 0x0 DUP1 REVERT JUMPDEST POP PUSH2 0xA7F DUP1 PUSH2 0x20 PUSH1 0x0 CODECOPY PUSH1 0x0 RETURN INVALID PUSH1 0x80 PUSH1 0x40 MSTORE CALLVALUE DUP1 ISZERO PUSH2 0x10 JUMPI PUSH1 0x0 DUP1 REVERT JUMPDEST POP PUSH1 0x4 CALLDATASIZE LT PUSH2 0x4C JUMPI PUSH1 0x0 CALLDATALOAD PUSH1 0xE0 SHR DUP1 PUSH4 0x2A6ADB65 EQ PUSH2 0x51 JUMPI DUP1 PUSH4 0x31C3B0EF EQ PUSH2 0x71 JUMPI DUP1 PUSH4 0x74C11943 EQ PUSH2 0x91 JUMPI DUP1 PUSH4 0xBCF3EEC6 EQ PUSH2 0xAD JUMPI JUMPDEST PUSH1 0x0 DUP1 REVERT JUMPDEST PUSH2 0x59 PUSH2 0xC9 JUMP JUMPDEST PUSH1 0x40 MLOAD PUSH2 0x68 SWAP4 SWAP3 SWAP2 SWAP1 PUSH2 0x4C3 JUMP JUMPDEST PUSH1 0x40 MLOAD DUP1 SWAP2 SUB SWAP1 RETURN JUMPDEST PUSH2 0x79 PUSH2 0x183 JUMP JUMPDEST PUSH1 0x40 MLOAD PUSH2 0x88 SWAP4 SWAP3 SWAP2 SWAP1 PUSH2 0x4C3 JUMP JUMPDEST PUSH1 0x40 MLOAD DUP1 SWAP2 SUB SWAP1 RETURN JUMPDEST PUSH2 0xAB PUSH1 0x4 DUP1 CALLDATASIZE SUB DUP2 ADD SWAP1 PUSH2 0xA6 SWAP2 SWAP1 PUSH2 0x64A JUMP JUMPDEST PUSH2 0x23C JUMP JUMPDEST STOP JUMPDEST PUSH2 0xC7 PUSH1 0x4 DUP1 CALLDATASIZE SUB DUP2 ADD SWAP1 PUSH2 0xC2 SWAP2 SWAP1 PUSH2 0x64A JUMP JUMPDEST PUSH2 0x31D JUMP JUMPDEST STOP JUMPDEST PUSH1 0x60 PUSH1 0x0 DUP1 PUSH1 0x3 PUSH1 0x0 ADD PUSH1 0x3 PUSH1 0x1 ADD SLOAD PUSH1 0x3 PUSH1 0x2 ADD PUSH1 0x0 SWAP1 SLOAD SWAP1 PUSH2 0x100 EXP SWAP1 DIV PUSH1 0xFF AND DUP3 DUP1 SLOAD PUSH2 0xF8 SWAP1 PUSH2 0x6C2 JUMP JUMPDEST DUP1 PUSH1 0x1F ADD PUSH1 0x20 DUP1 SWAP2 DIV MUL PUSH1 0x20 ADD PUSH1 0x40 MLOAD SWAP1 DUP2 ADD PUSH1 0x40 MSTORE DUP1 SWAP3 SWAP2 SWAP1 DUP2 DUP2 MSTORE PUSH1 0x20 ADD DUP3 DUP1 SLOAD PUSH2 0x124 SWAP1 PUSH2 0x6C2 JUMP JUMPDEST DUP1 ISZERO PUSH2 0x171 JUMPI DUP1 PUSH1 0x1F LT PUSH2 0x146 JUMPI PUSH2 0x100 DUP1 DUP4 SLOAD DIV MUL DUP4 MSTORE SWAP2 PUSH1 0x20 ADD SWAP2 PUSH2 0x171 JUMP JUMPDEST DUP3 ADD SWAP2 SWAP1 PUSH1 0x0 MSTORE PUSH1 0x20 PUSH1 0x0 KECCAK256 SWAP1 JUMPDEST DUP2 SLOAD DUP2 MSTORE SWAP1 PUSH1 0x1 ADD SWAP1 PUSH1 0x20 ADD DUP1 DUP4 GT PUSH2 0x154 JUMPI DUP3 SWAP1 SUB PUSH1 0x1F AND DUP3 ADD SWAP2 JUMPDEST POP POP POP POP POP SWAP3 POP SWAP3 POP SWAP3 POP SWAP3 POP SWAP1 SWAP2 SWAP3 JUMP JUMPDEST PUSH1 0x60 PUSH1 0x0 DUP1 PUSH1 0x0 DUP1 ADD PUSH1 0x0 PUSH1 0x1 ADD SLOAD PUSH1 0x0 PUSH1 0x2 ADD PUSH1 0x0 SWAP1 SLOAD SWAP1 PUSH2 0x100 EXP SWAP1 DIV PUSH1 0xFF AND DUP3 DUP1 SLOAD PUSH2 0x1B1 SWAP1 PUSH2 0x6C2 JUMP JUMPDEST DUP1 PUSH1 0x1F ADD PUSH1 0x20 DUP1 SWAP2 DIV MUL PUSH1 0x20 ADD PUSH1 0x40 MLOAD SWAP1 DUP2 ADD PUSH1 0x40 MSTORE DUP1 SWAP3 SWAP2 SWAP1 DUP2 DUP2 MSTORE PUSH1 0x20 ADD DUP3 DUP1 SLOAD PUSH2 0x1DD SWAP1 PUSH2 0x6C2 JUMP JUMPDEST DUP1 ISZERO PUSH2 0x22A JUMPI DUP1 PUSH1 0x1F LT PUSH2 0x1FF JUMPI PUSH2 0x100 DUP1 DUP4 SLOAD DIV MUL DUP4 MSTORE SWAP2 PUSH1 0x20 ADD SWAP2 PUSH2 0x22A JUMP JUMPDEST DUP3 ADD SWAP2 SWAP1 PUSH1 0x0 MSTORE PUSH1 0x20 PUSH1 0x0 KECCAK256 SWAP1 JUMPDEST DUP2 SLOAD DUP2 MSTORE SWAP1 PUSH1 0x1 ADD SWAP1 PUSH1 0x20 ADD DUP1 DUP4 GT PUSH2 0x20D JUMPI DUP3 SWAP1 SUB PUSH1 0x1F AND DUP3 ADD SWAP2 JUMPDEST POP POP POP POP POP SWAP3 POP SWAP3 POP SWAP3 POP SWAP3 POP SWAP1 SWAP2 SWAP3 JUMP JUMPDEST PUSH1 0x0 ISZERO ISZERO PUSH1 0x0 PUSH1 0x2 ADD PUSH1 0x0 SWAP1 SLOAD SWAP1 PUSH2 0x100 EXP SWAP1 DIV PUSH1 0xFF AND ISZERO ISZERO EQ DUP1 ISZERO PUSH2 0x278 JUMPI POP PUSH1 0x0 ISZERO ISZERO PUSH1 0x3 PUSH1 0x2 ADD PUSH1 0x0 SWAP1 SLOAD SWAP1 PUSH2 0x100 EXP SWAP1 DIV PUSH1 0xFF AND ISZERO ISZERO EQ JUMPDEST PUSH2 0x2B7 JUMPI PUSH1 0x40 MLOAD PUSH32 0x8C379A000000000000000000000000000000000000000000000000000000000 DUP2 MSTORE PUSH1 0x4 ADD PUSH2 0x2AE SWAP1 PUSH2 0x73F JUMP JUMPDEST PUSH1 0x40 MLOAD DUP1 SWAP2 SUB SWAP1 REVERT JUMPDEST PUSH1 0x40 MLOAD DUP1 PUSH1 0x60 ADD PUSH1 0x40 MSTORE DUP1 DUP3 DUP2 MSTORE PUSH1 0x20 ADD PUSH1 0x32 DUP2 MSTORE PUSH1 0x20 ADD PUSH1 0x1 ISZERO ISZERO DUP2 MSTORE POP PUSH1 0x0 DUP1 DUP3 ADD MLOAD DUP2 PUSH1 0x0 ADD SWAP1 DUP2 PUSH2 0x2EC SWAP2 SWAP1 PUSH2 0x90B JUMP JUMPDEST POP PUSH1 0x20 DUP3 ADD MLOAD DUP2 PUSH1 0x1 ADD SSTORE PUSH1 0x40 DUP3 ADD MLOAD DUP2 PUSH1 0x2 ADD PUSH1 0x0 PUSH2 0x100 EXP DUP2 SLOAD DUP2 PUSH1 0xFF MUL NOT AND SWAP1 DUP4 ISZERO ISZERO MUL OR SWAP1 SSTORE POP SWAP1 POP POP POP JUMP JUMPDEST PUSH1 0x0 ISZERO ISZERO PUSH1 0x3 PUSH1 0x2 ADD PUSH1 0x0 SWAP1 SLOAD SWAP1 PUSH2 0x100 EXP SWAP1 DIV PUSH1 0xFF AND ISZERO ISZERO EQ DUP1 ISZERO PUSH2 0x359 JUMPI POP PUSH1 0x0 ISZERO ISZERO PUSH1 0x0 PUSH1 0x2 ADD PUSH1 0x0 SWAP1 SLOAD SWAP1 PUSH2 0x100 EXP SWAP1 DIV PUSH1 0xFF AND ISZERO ISZERO EQ JUMPDEST PUSH2 0x398 JUMPI PUSH1 0x40 MLOAD PUSH32 0x8C379A000000000000000000000000000000000000000000000000000000000 DUP2 MSTORE PUSH1 0x4 ADD PUSH2 0x38F SWAP1 PUSH2 0xA29 JUMP JUMPDEST PUSH1 0x40 MLOAD DUP1 SWAP2 SUB SWAP1 REVERT JUMPDEST PUSH1 0x40 MLOAD DUP1 PUSH1 0x60 ADD PUSH1 0x40 MSTORE DUP1 DUP3 DUP2 MSTORE PUSH1 0x20 ADD PUSH1 0x0 DUP2 MSTORE PUSH1 0x20 ADD PUSH1 0x1 ISZERO ISZERO DUP2 MSTORE POP PUSH1 0x3 PUSH1 0x0 DUP3 ADD MLOAD DUP2 PUSH1 0x0 ADD SWAP1 DUP2 PUSH2 0x3CE SWAP2 SWAP1 PUSH2 0x90B JUMP JUMPDEST POP PUSH1 0x20 DUP3 ADD MLOAD DUP2 PUSH1 0x1 ADD SSTORE PUSH1 0x40 DUP3 ADD MLOAD DUP2 PUSH1 0x2 ADD PUSH1 0x0 PUSH2 0x100 EXP DUP2 SLOAD DUP2 PUSH1 0xFF MUL NOT AND SWAP1 DUP4 ISZERO ISZERO MUL OR SWAP1 SSTORE POP SWAP1 POP POP POP JUMP JUMPDEST PUSH1 0x0 DUP2 MLOAD SWAP1 POP SWAP2 SWAP1 POP JUMP JUMPDEST PUSH1 0x0 DUP3 DUP3 MSTORE PUSH1 0x20 DUP3 ADD SWAP1 POP SWAP3 SWAP2 POP POP JUMP JUMPDEST PUSH1 0x0 JUMPDEST DUP4 DUP2 LT ISZERO PUSH2 0x439 JUMPI DUP1 DUP3 ADD MLOAD DUP2 DUP5 ADD MSTORE PUSH1 0x20 DUP2 ADD SWAP1 POP PUSH2 0x41E JUMP JUMPDEST PUSH1 0x0 DUP5 DUP5 ADD MSTORE POP POP POP POP JUMP JUMPDEST PUSH1 0x0 PUSH1 0x1F NOT PUSH1 0x1F DUP4 ADD AND SWAP1 POP SWAP2 SWAP1 POP JUMP JUMPDEST PUSH1 0x0 PUSH2 0x461 DUP3 PUSH2 0x3FF JUMP JUMPDEST PUSH2 0x46B DUP2 DUP6 PUSH2 0x40A JUMP JUMPDEST SWAP4 POP PUSH2 0x47B DUP2 DUP6 PUSH1 0x20 DUP7 ADD PUSH2 0x41B JUMP JUMPDEST PUSH2 0x484 DUP2 PUSH2 0x445 JUMP JUMPDEST DUP5 ADD SWAP2 POP POP SWAP3 SWAP2 POP POP JUMP JUMPDEST PUSH1 0x0 DUP2 SWAP1 POP SWAP2 SWAP1 POP JUMP JUMPDEST PUSH2 0x4A2 DUP2 PUSH2 0x48F JUMP JUMPDEST DUP3 MSTORE POP POP JUMP JUMPDEST PUSH1 0x0 DUP2 ISZERO ISZERO SWAP1 POP SWAP2 SWAP1 POP JUMP JUMPDEST PUSH2 0x4BD DUP2 PUSH2 0x4A8 JUMP JUMPDEST DUP3 MSTORE POP POP JUMP JUMPDEST PUSH1 0x0 PUSH1 0x60 DUP3 ADD SWAP1 POP DUP2 DUP2 SUB PUSH1 0x0 DUP4 ADD MSTORE PUSH2 0x4DD DUP2 DUP7 PUSH2 0x456 JUMP JUMPDEST SWAP1 POP PUSH2 0x4EC PUSH1 0x20 DUP4 ADD DUP6 PUSH2 0x499 JUMP JUMPDEST PUSH2 0x4F9 PUSH1 0x40 DUP4 ADD DUP5 PUSH2 0x4B4 JUMP JUMPDEST SWAP5 SWAP4 POP POP POP POP JUMP JUMPDEST PUSH1 0x0 PUSH1 0x40 MLOAD SWAP1 POP SWAP1 JUMP JUMPDEST PUSH1 0x0 DUP1 REVERT JUMPDEST PUSH1 0x0 DUP1 REVERT JUMPDEST PUSH1 0x0 DUP1 REVERT JUMPDEST PUSH1 0x0 DUP1 REVERT JUMPDEST PUSH32 0x4E487B7100000000000000000000000000000000000000000000000000000000 PUSH1 0x0 MSTORE PUSH1 0x41 PUSH1 0x4 MSTORE PUSH1 0x24 PUSH1 0x0 REVERT JUMPDEST PUSH2 0x557 DUP3 PUSH2 0x445 JUMP JUMPDEST DUP2 ADD DUP2 DUP2 LT PUSH8 0xFFFFFFFFFFFFFFFF DUP3 GT OR ISZERO PUSH2 0x576 JUMPI PUSH2 0x575 PUSH2 0x51F JUMP JUMPDEST JUMPDEST DUP1 PUSH1 0x40 MSTORE POP POP POP JUMP JUMPDEST PUSH1 0x0 PUSH2 0x589 PUSH2 0x501 JUMP JUMPDEST SWAP1 POP PUSH2 0x595 DUP3 DUP3 PUSH2 0x54E JUMP JUMPDEST SWAP2 SWAP1 POP JUMP JUMPDEST PUSH1 0x0 PUSH8 0xFFFFFFFFFFFFFFFF DUP3 GT ISZERO PUSH2 0x5B5 JUMPI PUSH2 0x5B4 PUSH2 0x51F JUMP JUMPDEST JUMPDEST PUSH2 0x5BE DUP3 PUSH2 0x445 JUMP JUMPDEST SWAP1 POP PUSH1 0x20 DUP2 ADD SWAP1 POP SWAP2 SWAP1 POP JUMP JUMPDEST DUP3 DUP2 DUP4 CALLDATACOPY PUSH1 0x0 DUP4 DUP4 ADD MSTORE POP POP POP JUMP JUMPDEST PUSH1 0x0 PUSH2 0x5ED PUSH2 0x5E8 DUP5 PUSH2 0x59A JUMP JUMPDEST PUSH2 0x57F JUMP JUMPDEST SWAP1 POP DUP3 DUP2 MSTORE PUSH1 0x20 DUP2 ADD DUP5 DUP5 DUP5 ADD GT ISZERO PUSH2 0x609 JUMPI PUSH2 0x608 PUSH2 0x51A JUMP JUMPDEST JUMPDEST PUSH2 0x614 DUP5 DUP3 DUP6 PUSH2 0x5CB JUMP JUMPDEST POP SWAP4 SWAP3 POP POP POP JUMP JUMPDEST PUSH1 0x0 DUP3 PUSH1 0x1F DUP4 ADD SLT PUSH2 0x631 JUMPI PUSH2 0x630 PUSH2 0x515 JUMP JUMPDEST JUMPDEST DUP2 CALLDATALOAD PUSH2 0x641 DUP5 DUP3 PUSH1 0x20 DUP7 ADD PUSH2 0x5DA JUMP JUMPDEST SWAP2 POP POP SWAP3 SWAP2 POP POP JUMP JUMPDEST PUSH1 0x0 PUSH1 0x20 DUP3 DUP5 SUB SLT ISZERO PUSH2 0x660 JUMPI PUSH2 0x65F PUSH2 0x50B JUMP JUMPDEST JUMPDEST PUSH1 0x0 DUP3 ADD CALLDATALOAD PUSH8 0xFFFFFFFFFFFFFFFF DUP2 GT ISZERO PUSH2 0x67E JUMPI PUSH2 0x67D PUSH2 0x510 JUMP JUMPDEST JUMPDEST PUSH2 0x68A DUP5 DUP3 DUP6 ADD PUSH2 0x61C JUMP JUMPDEST SWAP2 POP POP SWAP3 SWAP2 POP POP JUMP JUMPDEST PUSH32 0x4E487B7100000000000000000000000000000000000000000000000000000000 PUSH1 0x0 MSTORE PUSH1 0x22 PUSH1 0x4 MSTORE PUSH1 0x24 PUSH1 0x0 REVERT JUMPDEST PUSH1 0x0 PUSH1 0x2 DUP3 DIV SWAP1 POP PUSH1 0x1 DUP3 AND DUP1 PUSH2 0x6DA JUMPI PUSH1 0x7F DUP3 AND SWAP2 POP JUMPDEST PUSH1 0x20 DUP3 LT DUP2 SUB PUSH2 0x6ED JUMPI PUSH2 0x6EC PUSH2 0x693 JUMP JUMPDEST JUMPDEST POP SWAP2 SWAP1 POP JUMP JUMPDEST PUSH32 0x416C72656164792061206D65726368616E74206F7220637573746F6D65720000 PUSH1 0x0 DUP3 ADD MSTORE POP JUMP JUMPDEST PUSH1 0x0 PUSH2 0x729 PUSH1 0x1E DUP4 PUSH2 0x40A JUMP JUMPDEST SWAP2 POP PUSH2 0x734 DUP3 PUSH2 0x6F3 JUMP JUMPDEST PUSH1 0x20 DUP3 ADD SWAP1 POP SWAP2 SWAP1 POP JUMP JUMPDEST PUSH1 0x0 PUSH1 0x20 DUP3 ADD SWAP1 POP DUP2 DUP2 SUB PUSH1 0x0 DUP4 ADD MSTORE PUSH2 0x758 DUP2 PUSH2 0x71C JUMP JUMPDEST SWAP1 POP SWAP2 SWAP1 POP JUMP JUMPDEST PUSH1 0x0 DUP2 SWAP1 POP DUP2 PUSH1 0x0 MSTORE PUSH1 0x20 PUSH1 0x0 KECCAK256 SWAP1 POP SWAP2 SWAP1 POP JUMP JUMPDEST PUSH1 0x0 PUSH1 0x20 PUSH1 0x1F DUP4 ADD DIV SWAP1 POP SWAP2 SWAP1 POP JUMP JUMPDEST PUSH1 0x0 DUP3 DUP3 SHL SWAP1 POP SWAP3 SWAP2 POP POP JUMP JUMPDEST PUSH1 0x0 PUSH1 0x8 DUP4 MUL PUSH2 0x7C1 PUSH32 0xFFFFFFFFFFFFFFFFFFFFFFFFFFFFFFFFFFFFFFFFFFFFFFFFFFFFFFFFFFFFFFFF DUP3 PUSH2 0x784 JUMP JUMPDEST PUSH2 0x7CB DUP7 DUP4 PUSH2 0x784 JUMP JUMPDEST SWAP6 POP DUP1 NOT DUP5 AND SWAP4 POP DUP1 DUP7 AND DUP5 OR SWAP3 POP POP POP SWAP4 SWAP3 POP POP POP JUMP JUMPDEST PUSH1 0x0 DUP2 SWAP1 POP SWAP2 SWAP1 POP JUMP JUMPDEST PUSH1 0x0 PUSH2 0x808 PUSH2 0x803 PUSH2 0x7FE DUP5 PUSH2 0x48F JUMP JUMPDEST PUSH2 0x7E3 JUMP JUMPDEST PUSH2 0x48F JUMP JUMPDEST SWAP1 POP SWAP2 SWAP1 POP JUMP JUMPDEST PUSH1 0x0 DUP2 SWAP1 POP SWAP2 SWAP1 POP JUMP JUMPDEST PUSH2 0x822 DUP4 PUSH2 0x7ED JUMP JUMPDEST PUSH2 0x836 PUSH2 0x82E DUP3 PUSH2 0x80F JUMP JUMPDEST DUP5 DUP5 SLOAD PUSH2 0x791 JUMP JUMPDEST DUP3 SSTORE POP POP POP POP JUMP JUMPDEST PUSH1 0x0 SWAP1 JUMP JUMPDEST PUSH2 0x84B PUSH2 0x83E JUMP JUMPDEST PUSH2 0x856 DUP2 DUP5 DUP5 PUSH2 0x819 JUMP JUMPDEST POP POP POP JUMP JUMPDEST JUMPDEST DUP2 DUP2 LT ISZERO PUSH2 0x87A JUMPI PUSH2 0x86F PUSH1 0x0 DUP3 PUSH2 0x843 JUMP JUMPDEST PUSH1 0x1 DUP2 ADD SWAP1 POP PUSH2 0x85C JUMP JUMPDEST POP POP JUMP JUMPDEST PUSH1 0x1F DUP3 GT ISZERO PUSH2 0x8BF JUMPI PUSH2 0x890 DUP2 PUSH2 0x75F JUMP JUMPDEST PUSH2 0x899 DUP5 PUSH2 0x774 JUMP JUMPDEST DUP2 ADD PUSH1 0x20 DUP6 LT ISZERO PUSH2 0x8A8 JUMPI DUP2 SWAP1 POP JUMPDEST PUSH2 0x8BC PUSH2 0x8B4 DUP6 PUSH2 0x774 JUMP JUMPDEST DUP4 ADD DUP3 PUSH2 0x85B JUMP JUMPDEST POP POP JUMPDEST POP POP POP JUMP JUMPDEST PUSH1 0x0 DUP3 DUP3 SHR SWAP1 POP SWAP3 SWAP2 POP POP JUMP JUMPDEST PUSH1 0x0 PUSH2 0x8E2 PUSH1 0x0 NOT DUP5 PUSH1 0x8 MUL PUSH2 0x8C4 JUMP JUMPDEST NOT DUP1 DUP4 AND SWAP2 POP POP SWAP3 SWAP2 POP POP JUMP JUMPDEST PUSH1 0x0 PUSH2 0x8FB DUP4 DUP4 PUSH2 0x8D1 JUMP JUMPDEST SWAP2 POP DUP3 PUSH1 0x2 MUL DUP3 OR SWAP1 POP SWAP3 SWAP2 POP POP JUMP JUMPDEST PUSH2 0x914 DUP3 PUSH2 0x3FF JUMP JUMPDEST PUSH8 0xFFFFFFFFFFFFFFFF DUP2 GT ISZERO PUSH2 0x92D JUMPI PUSH2 0x92C PUSH2 0x51F JUMP JUMPDEST JUMPDEST PUSH2 0x937 DUP3 SLOAD PUSH2 0x6C2 JUMP JUMPDEST PUSH2 0x942 DUP3 DUP3 DUP6 PUSH2 0x87E JUMP JUMPDEST PUSH1 0x0 PUSH1 0x20 SWAP1 POP PUSH1 0x1F DUP4 GT PUSH1 0x1 DUP2 EQ PUSH2 0x975 JUMPI PUSH1 0x0 DUP5 ISZERO PUSH2 0x963 JUMPI DUP3 DUP8 ADD MLOAD SWAP1 POP JUMPDEST PUSH2 0x96D DUP6 DUP3 PUSH2 0x8EF JUMP JUMPDEST DUP7 SSTORE POP PUSH2 0x9D5 JUMP JUMPDEST PUSH1 0x1F NOT DUP5 AND PUSH2 0x983 DUP7 PUSH2 0x75F JUMP JUMPDEST PUSH1 0x0 JUMPDEST DUP3 DUP2 LT ISZERO PUSH2 0x9AB JUMPI DUP5 DUP10 ADD MLOAD DUP3 SSTORE PUSH1 0x1 DUP3 ADD SWAP2 POP PUSH1 0x20 DUP6 ADD SWAP5 POP PUSH1 0x20 DUP2 ADD SWAP1 POP PUSH2 0x986 JUMP JUMPDEST DUP7 DUP4 LT ISZERO PUSH2 0x9C8 JUMPI DUP5 DUP10 ADD MLOAD PUSH2 0x9C4 PUSH1 0x1F DUP10 AND DUP3 PUSH2 0x8D1 JUMP JUMPDEST DUP4 SSTORE POP JUMPDEST PUSH1 0x1 PUSH1 0x2 DUP9 MUL ADD DUP9 SSTORE POP POP POP JUMPDEST POP POP POP POP POP POP JUMP JUMPDEST PUSH32 0x416C7265616479206120637573746F6D6572206F72206D65726368616E740000 PUSH1 0x0 DUP3 ADD MSTORE POP JUMP JUMPDEST PUSH1 0x0 PUSH2 0xA13 PUSH1 0x1E DUP4 PUSH2 0x40A JUMP JUMPDEST SWAP2 POP PUSH2 0xA1E DUP3 PUSH2 0x9DD JUMP JUMPDEST PUSH1 0x20 DUP3 ADD SWAP1 POP SWAP2 SWAP1 POP JUMP JUMPDEST PUSH1 0x0 PUSH1 0x20 DUP3 ADD SWAP1 POP DUP2 DUP2 SUB PUSH1 0x0 DUP4 ADD MSTORE PUSH2 0xA42 DUP2 PUSH2 0xA06 JUMP JUMPDEST SWAP1 POP SWAP2 SWAP1 POP JUMP INVALID LOG2 PUSH5 0x6970667358 0x22 SLT KECCAK256 SWAP2 0xE7 0xDA PUSH26 0xBCC470D6D726A7FF61733EFE19E6499595DEF191051DD972F548 DELEGATECALL DUP8 PUSH5 0x736F6C6343 STOP ADDMOD SLT STOP CALLER "
		},
		"gasEstimates": {
			"creation": {
				"codeDepositCost": "537400",
				"executionCost": "568",
				"totalCost": "537968"
			},
			"external": {
				"createCustomerAccount(string)": "infinite",
				"createMerchantAccount(string)": "infinite",
				"customerCheck()": "infinite",
				"merchantCheck()": "infinite"
			}
		},
		"methodIdentifiers": {
			"createCustomerAccount(string)": "bcf3eec6",
			"createMerchantAccount(string)": "74c11943",
			"customerCheck()": "2a6adb65",
			"merchantCheck()": "31c3b0ef"
		}
	},
	"abi": [
		{
			"inputs": [
				{
					"internalType": "string",
					"name": "_accountName",
					"type": "string"
				}
			],
			"name": "createCustomerAccount",
			"outputs": [],
			"stateMutability": "nonpayable",
			"type": "function"
		},
		{
			"inputs": [
				{
					"internalType": "string",
					"name": "_merchantName",
					"type": "string"
				}
			],
			"name": "createMerchantAccount",
			"outputs": [],
			"stateMutability": "nonpayable",
			"type": "function"
		},
		{
			"inputs": [],
			"name": "customerCheck",
			"outputs": [
				{
					"internalType": "string",
					"name": "",
					"type": "string"
				},
				{
					"internalType": "uint256",
					"name": "",
					"type": "uint256"
				},
				{
					"internalType": "bool",
					"name": "",
					"type": "bool"
				}
			],
			"stateMutability": "view",
			"type": "function"
		},
		{
			"inputs": [],
			"name": "merchantCheck",
			"outputs": [
				{
					"internalType": "string",
					"name": "",
					"type": "string"
				},
				{
					"internalType": "uint256",
					"name": "",
					"type": "uint256"
				},
				{
					"internalType": "bool",
					"name": "",
					"type": "bool"
				}
			],
			"stateMutability": "view",
			"type": "function"
		}
	]
}